:100000000C9461000C9473000C9473000C947300B6
:100010000C9473000C9473000C9473000C94730094
:100020000C9473000C9473000C9473000C94730084
:100030000C9473000C9473000C9473000C94730074
:100040000C9407010C9473000C9473000C947300CF
:100050000C9473000C9473000C9473000C94730054
:100060000C9473000C94730000000000240027001F
:100070002A000000000023002600290000000000E4
:10008000250028002B0004040404040404040202D4
:100090000202020203030303030301020408102007
:1000A0004080010204081020010204081020000012
:1000B0000008000201000003040700000000000027
:1000C000000011241FBECFEFD8E0DEBFCDBF21E07E
:1000D000A0E0B1E001C01D92A331B207E1F70E9498
:1000E00051010C9436020C940000833081F028F406
:1000F000813099F08230A1F008958730A9F08830DE
:10010000B9F08430D1F4809180008F7D03C080915C
:1001100080008F7780938000089584B58F7702C028
:1001200084B58F7D84BD08958091B0008F7703C022
:100130008091B0008F7D8093B00008951F93CF937E
:10014000DF93E7EBF0E09491E3EAF0E0D491EFE89D
:10015000F0E0C491CC23D9F0182F992319F0892FFE
:100160000E947500EC2FF0E0EE0FFF1FE458FF4FE8
:10017000A591B4918FB7F894111105C09C91ED2F02
:10018000E095E92302C0EC91ED2BEC938FBFDF915A
:10019000CF911F910895CF93DF9390E0FC01E65635
:1001A000FF4F2491FC01EA57FF4F8491882361F1AE
:1001B00090E0880F991FFC01E859FF4FC591D49139
:1001C000FC01E458FF4FA591B491611109C09FB79C
:1001D000F8948881209582238883EC912E230BC08C
:1001E000623061F49FB7F8943881822F8095832321
:1001F0008883EC912E2B2C939FBF06C08FB7F89469
:10020000E8812E2B28838FBFDF91CF9108951F9215
:100210000F920FB60F9211242F933F938F939F93BA
:10022000AF93BF938091050190910601A0910701C2
:10023000B09108013091040123E0230F2D3720F401
:100240000196A11DB11D05C026E8230F0296A11D30
:10025000B11D209304018093050190930601A093A2
:100260000701B09308018091000190910101A091D4
:100270000201B09103010196A11DB11D80930001FF
:1002800090930101A0930201B0930301BF91AF913C
:100290009F918F913F912F910F900FBE0F901F90C4
:1002A0001895789484B5826084BD84B5816084BDDE
:1002B00085B5826085BD85B5816085BD80916E0004
:1002C000816080936E001092810080918100826035
:1002D0008093810080918100816080938100809172
:1002E00080008160809380008091B1008460809361
:1002F000B1008091B00081608093B00080917A005D
:10030000846080937A0080917A00826080937A0082
:1003100080917A00816080937A0080917A00806871
:1003200080937A001092C10060E087E00E94CB00C9
:1003300061E089E00E94CB0061E08BE00E94CB008D
:1003400061E08CE00E94CB00809109010E949E0038
:10035000C5EBD0E001EA10E03DE8E32E30E0F32EFB
:1003600040E0C42E40E0D42EFE018491F801A49018
:10037000F701B490BB20A9F081110E9475008B2D6C
:1003800090E0880F991F8E589F4FFC01A591B49162
:100390008C91A82291E080E009F490E0A92EB82E7B
:1003A00002C0A12CB12CF1E0AF26809111019091F7
:1003B0001201A816B90699F02FB7F894809105019B
:1003C00090910601A0910701B09108012FBF809381
:1003D0000D0190930E01A0930F01B09310012FB760
:1003E000F8948091050190910601A0910701B091C8
:1003F00008012FBF40910D0150910E0160910F0136
:1004000070911001841B950BA60BB70B0B97A105E0
:10041000B105E8F080910B0190910C01A816B90686
:10042000B1F0B0920C01A0920B0181E0A816B104CA
:1004300071F481E090E02091090130910A01232BB1
:1004400011F080E090E090930A018093090180917F
:1004500009010E949E00B0921201A0921101C114E4
:10046000D10409F481CF0E9400007ECFF894FFCF21
:00000001FF
