:100000000C946A000C9492000C9492000C94920050
:100010000C9492000C9492000C9492000C94920018
:100020000C9492000C9492000C9492000C94920008
:100030000C9492000C9492000C9492000C949200F8
:100040000C94F9040C9492000C94C7040C94A10431
:100050000C9492000C9492000C9492000C949200D8
:100060000C9492000C949200F80654077A07CB0780
:1000700022089F084209220A0000000024002700ED
:100080002A000000000023002600290000000000D4
:10009000250028002B0004040404040404040202C4
:1000A00002020202030303030303010204081020F7
:1000B0004080010204081020010204081020000002
:1000C0000008000201000003040700000000000017
:1000D0000000140B11241FBECFEFD8E0DEBFCDBF50
:1000E00011E0A0E0B1E0ECE6F1E202C005900D9273
:1000F000AC3CB107D9F722E0ACECB1E001C01D92F5
:10010000A23BB207E1F710E0CAE6D0E004C02197B5
:10011000FE010E94080EC936D107C9F70E944305A7
:100120000C94B4100C940000E0911502F0911602AA
:100130000190F081E02D682F85E192E00994CF9243
:10014000DF92EF92FF920F931F93CF93DF936C0197
:100150007A018B01C0E0D0E0CE15DF0589F0D8012F
:100160006D918D01D601ED91FC910190F081E02D12
:10017000C6010995892B11F47E0102C02196ECCFAE
:10018000C701DF91CF911F910F91FF90EF90DF900A
:10019000CF900895FC01918D828D981761F0828D2A
:1001A000DF01A80FB11D5D968C91928D9F5F9F73AB
:1001B000928F90E008958FEF9FEF0895FC01918D4D
:1001C000828D981731F0828DE80FF11D858D90E0BA
:1001D00008958FEF9FEF0895FC01918D228D892F57
:1001E00090E0805C9F4F821B91098F73992708953F
:1001F00085E192E00E94EC0021E0892B09F420E0E7
:10020000822F0895FC01848DDF01A80FB11DA35A30
:10021000BF4F2C91848D90E001968F739927848F26
:10022000A689B7892C93A089B1898C9180648C931D
:10023000938D848D981306C00288F389E02D808108
:100240008F7D80830895EF92FF920F931F93CF933A
:10025000DF93EC0181E0888F9B8D8C8D981305C016
:10026000E889F989808185FD24C0F62E0B8D10E088
:100270000F5F1F4F0F731127E02E8C8DE8120CC0FB
:100280000FB607FCFACFE889F989808185FFF5CFA1
:10029000CE010E940201F1CF8B8DFE01E80FF11D0E
:1002A000E35AFF4FF0820B8FEA89FB8980818062DD
:1002B00007C0EE89FF896083E889F98980818064BD
:1002C000808381E090E0DF91CF911F910F91FF90AB
:1002D000EF900895CF93DF93EC01888D8823C9F0C8
:1002E000EA89FB89808185FD05C0A889B9898C913F
:1002F00086FD0FC00FB607FCF5CF808185FFF2CFDA
:10030000A889B9898C9185FFEDCFCE010E940201A9
:10031000E7CFDF91CF91089580E090E0892B29F01D
:100320000E94F80081110C9400000895833081F040
:1003300028F4813099F08230A1F008958730A9F037
:100340008830B9F08430D1F4809180008F7D03C073
:10035000809180008F7780938000089584B58F7797
:1003600002C084B58F7D84BD08958091B0008F77E1
:1003700003C08091B0008F7D8093B00008951F93DB
:10038000CF93DF93E7ECF0E09491E3EBF0E0D491CE
:10039000EFE9F0E0C491CC23D9F0182F992319F09C
:1003A000892F0E949601EC2FF0E0EE0FFF1FE4571B
:1003B000FF4FA591B4918FB7F894111105C09C918E
:1003C000ED2FE095E92302C0EC91ED2BEC938FBF6C
:1003D000DF91CF911F910895CF93DF93282F30E0C5
:1003E000F901E254FF4F8491F901E655FF4FD49192
:1003F000F901EA56FF4FC491CC2391F081110E947C
:100400009601EC2FF0E0EE0FFF1FEE57FF4FA59186
:10041000B491EC91ED2381E090E021F480E002C002
:1004200080E090E0DF91CF910895CF93DF9390E04B
:10043000FC01E655FF4F2491FC01EA56FF4F8491E1
:10044000882361F190E0880F991FFC01E858FF4F65
:10045000C591D491FC01E457FF4FA591B49161116E
:1004600009C09FB7F8948881209582238883EC91F6
:100470002E230BC0623061F49FB7F8943881822F2D
:10048000809583238883EC912E2B2C939FBF06C0ED
:100490008FB7F894E8812E2B28838FBFDF91CF91FF
:1004A00008953FB7F8948091D7019091D801A09119
:1004B000D901B091DA0126B5A89B05C02F3F19F0EC
:1004C0000196A11DB11D3FBFBA2FA92F982F8827D4
:1004D000820F911DA11DB11DBC01CD0142E0660F2F
:1004E000771F881F991F4A95D1F708952FB7F89461
:1004F0006091D3017091D4018091D5019091D60182
:100500002FBF08950F931F930E94760260931D02E0
:1005100070931E0280931F0290932002E0911502B7
:10052000F09116020084F185E02D85E192E00995B5
:1005300097FF1FC00E94760200911D0210911E02BB
:1005400020911F0230912002DC01CB01801B910B16
:10055000A20BB30B0091190210911A0220911B02F9
:1005600030911C0280179107A207B307B8F28FEFF2
:100570009FEF1F910F910895009769F0FC01019082
:100580000020E9F73197AF01481B590BBC0185E109
:1005900092E00C949F0080E090E00895CF93DF9369
:1005A0000E94BC02EC018AE191E00E94BC028C0F27
:1005B0009D1FDF91CF9108958F929F92AF92BF922E
:1005C0000F931F93CF93DF93CDB7DEB7A1970FB6ED
:1005D000F894DEBF0FBECDBF19A2423008F44AE046
:1005E0008E010F5D1F4F842E912CA12CB12CA501E3
:1005F00094010E942A0DE62FB901CA010150110988
:10060000EA3014F4E05D01C0E95CD801EC93232BDF
:10061000242B252B61F7C8010E94BC02A1960FB6BE
:10062000F894DEBF0FBECDBFDF91CF911F910F9128
:10063000BF90AF909F908F9008950C94BC024AE0B9
:100640000C94DC02CF92DF92EF92FF92CF93DF9374
:100650006C01990FEE08FF08F7FE12C08DE20E94B0
:100660009400EC0166277727CB016C197D098E0970
:100670009F094AE00E94DC027C01EC0EFD1E06C0D0
:100680004AE0C701B6010E94DC027C018AE191E0E8
:100690000E94BC028E0D9F1DDF91CF91FF90EF90C5
:1006A000DF90CF9008954F925F926F927F928F92DA
:1006B0009F92AF92BF92CF92DF92EF92FF926B0127
:1006C0007C019B01AC010E94030E882319F08DE18F
:1006D00091E01AC046015701E894B7F82FEF3FEFB9
:1006E0004FE75FE7C501B4010E94030E811110C0FE
:1006F0002FEF3FEF4FE75FE7C501B4010E949D0B6D
:10070000181634F481E291E00E94BC027C017FC0A3
:100710002FEF3FEF4FE75FE4C701B6010E94FE0DE8
:1007200018161CF485E291E0EFCF2FEF3FEF4FE773
:100730005FECC701B6010E949D0B87FDF3CF20E05F
:1007400030E0A901C701B6010E949D0B87FF09C0D7
:100750008DE20E9494005C01F7FAF094F7F8F094AF
:1007600002C0A12CB12C2AE037ED43EA5BE3C701BC
:10077000B6010E945C0D2B013C010E94CF0D6B0164
:100780007C010E94A20B9B01AC01C301B2010E943B
:100790005B0D2B013C014AE0C701B6010E94DC025F
:1007A0007C01EA0CFB1C8EE20E949400E80EF91E0C
:1007B00020E030E040E251E4C301B2010E94030CAA
:1007C0002B013C010E94CF0D4B01A12CB12C4AE022
:1007D000C501B4010E94DC02E80EF91EC501B40196
:1007E0000E94A20B9B01AC01C301B2010E945B0DF0
:1007F00020E030E040E251E40E94030C0E94CF0D63
:1008000080E090E04AE00E94DC02E80EF91E8AE1F6
:1008100091E00E94BC028E0D9F1DFF90EF90DF9033
:10082000CF90BF90AF909F908F907F906F905F9090
:100830004F900895CF92DF92EF92FF920F931F9304
:10084000CF93DF9387E00E94EC01EC018091D0010F
:100850009091D101C817D90751F00E9451026093BD
:10086000CC017093CD018093CE019093CF010E9473
:1008700051020091CC011091CD012091CE01309117
:10088000CF01DC01CB01801B910BA20BB30BC090FD
:100890000001D0900101E0900201F0900301C81620
:1008A000D906EA06FB06F0F5809105029091060252
:1008B000C817D907B9F1D0930602C0930502C13019
:1008C000D10581F50093F3011093F4012093F50114
:1008D0003093F601809105018F93809104018F93ED
:1008E00089E291E09F938F9387E092E09F938F93AB
:1008F0000E94130E87E092E00E941D036091F301B5
:100900007091F4018091F5019091F6010E941F030E
:100910008FE291E00E94CE020F900F900F900F9007
:100920000F900F90D093D101C093D001DF91CF9160
:100930001F910F91FF90EF90DF90CF9008950E944C
:100940000E0E1F920F920FB60F9211242F933F930A
:100950004F935F936F937F938F939F93AF93BF93C7
:10096000EF93FF9385E192E00E940201FF91EF91E6
:10097000BF91AF919F918F917F916F915F914F91B7
:100980003F912F910F900FBE0F901F9018951F92BF
:100990000F920FB60F9211242F938F939F93EF9383
:1009A000FF93E0912502F09126028081E0912B02D5
:1009B000F0912C0282FD12C0908180912E028F5FF7
:1009C0008F7320912F02821751F0E0912E02F0E0F8
:1009D000EB5EFD4F958F80932E0201C08081FF91C9
:1009E000EF919F918F912F910F900FBE0F901F90BD
:1009F00018951F920F920FB60F9211242F933F93C9
:100A00008F939F93AF93BF938091D3019091D40123
:100A1000A091D501B091D6013091D20123E0230FEE
:100A20002D3720F40196A11DB11D05C026E8230F26
:100A30000296A11DB11D2093D2018093D301909302
:100A4000D401A093D501B093D6018091D7019091A4
:100A5000D801A091D901B091DA010196A11DB11D73
:100A60008093D7019093D801A093D901B093DA0174
:100A7000BF91AF919F918F913F912F910F900FBE9A
:100A80000F901F901895CF93DF93CDB7DEB76C977B
:100A90000FB6F894DEBF0FBECDBF789484B58260E8
:100AA00084BD84B5816084BD85B5826085BD85B512
:100AB000816085BD80916E00816080936E00109290
:100AC000810080918100826080938100809181000B
:100AD000816080938100809180008160809380009C
:100AE0008091B10084608093B1008091B0008160FA
:100AF0008093B00080917A00846080937A00809126
:100B00007A00826080937A0080917A00816080937D
:100B10007A0080917A00806880937A001092C100F8
:100B200060E087E00E94150260E085E00E94150207
:100B300061E089E00E94150280E00E94BF01E0911F
:100B40002502F091260282E08083E0912102F0915B
:100B500022021082E0912302F09124028FEC808324
:100B600010922D02E0912902F0912A0286E0808302
:100B7000E0912702F0912802808180618083E091DA
:100B80002702F0912802808188608083E09127020B
:100B9000F0912802808180688083E0912702F091A3
:100BA000280280818F7D808385E192E00E94CA00C7
:100BB00085E192E00E94EC0018161906CCF700912E
:100BC000DB011091DC010E948202FC0197FD17C03D
:100BD0008D32910509F4B3C4C0970A9708F4AFC4E5
:100BE000EE32F10509F4ABC4E0911502F091160262
:100BF0000680F781E02D85E192E00995E4CF60E081
:100C000070E0CB01000F111F000F111FE1E0F0E0B9
:100C1000EC0FFD1FE00FF11F6083718382839383CC
:100C20008091DB019091DC0101969093DC0180932F
:100C3000DB0105970CF4BCCF29813A814B815C81A3
:100C40002093010230930202409303025093040266
:100C50004D805E806F8078844092FB015092FC0151
:100C60006092FD017092FE0189849A84AB84BC84F9
:100C70008092EB019092EC01A092ED01B092EE0116
:100C80008D859E85AF85B8898D8B9E8BAF8BB88FF8
:100C90008093E1019093E201A093E301B093E4011A
:100CA000C988DA88EB88FC88C701B601298F3A8F9A
:100CB0004B8F5C8F0E94CF0D6093000170930101F8
:100CC000809302019093030185E391E00E941D034C
:100CD000298D3A8D4B8D5C8DCA01B9010E94530359
:100CE0008FE391E00E941D03C301B2010E945303F0
:100CF00088E491E00E941D03C501B4010E945303E2
:100D000081E591E00E941D036D897E898F89988D10
:100D10000E94530389E591E00E941D03C701B601BB
:100D20000E945303809105018F93809104018F935A
:100D300089E291E09F938F9387E092E09F938F9356
:100D40000E94130E87E092E00E941D030E94510250
:100D50000E941F0383E691E00E941D03809104011D
:100D6000909105010E94220380E480937C00809191
:100D70007A00806480937A000F900F900F900F900C
:100D80000F900F9080917A0086FDFCCF60917800E3
:100D90008091790070E0782B072E000C880B990B5E
:100DA000611571058105910511F00E94940B85E193
:100DB00092E00E94CA0085E192E00E94CA0001E030
:100DC00010E027E0E22EF12C33E0232E312C42E01C
:100DD000C42ED12C0E941A04E0911302F091140247
:100DE000E830F10508F0A8C3EC5CFF4F0C94080E46
:100DF00085E192E00E94EC00181619060CF09CC3E5
:100E000085E192E00E94CA00909312028093110241
:100E10000E94510260930D0270930E0280930F02A4
:100E20009093100287E092E00E941D0360910D02F2
:100E300070910E0280910F02909110020E941F0388
:100E40008AE691E00E941D038091110290911202A6
:100E50000E94220310931402009313026DC30E9498
:100E600076024B015C0184189508A608B70820E0BB
:100E700030E04AE754E460910102709102028091EF
:100E80000302909104020E94030C0E94C80D861672
:100E90009706A806B90668F40E941A048091050214
:100EA000909106020197D9F60E9476022B013C012F
:100EB000D6CF0E94510260930D0270930E02809370
:100EC0000F029093100287E092E00E941D03609150
:100ED0000D0270910E0280910F02909110020E94FB
:100EE0001F038EE691E00E94CE02D0921402C092BF
:100EF000130222C385E00E94EC01909300028093CC
:100F0000FF01019709F018C30E94510260930D027E
:100F100070930E0280930F029093100287E092E08C
:100F20000E941D0360910D0270910E0280910F02CC
:100F3000909110020E941F0383E791E00E94CE026D
:100F40000E9451022B013C019AE0892E912CA12C88
:100F5000B12C0E945102DC01CB0184199509A6092C
:100F6000B709883E9340A105B10558F091E0891A70
:100F70009108A108B108A8EE4A0EA3E05A1E611C10
:100F8000711C81149104A104B10419F73092140268
:100F900020921302D1C285E00E94EC0190930002DE
:100FA0008093FF01019709F0C7C20E9451024B01D3
:100FB0005C0160930D0270930E0280930F02909378
:100FC000100220E034E244E759E46091FB017091A3
:100FD000FC018091FD019091FE010E94030C0E9492
:100FE000CF0D860E971EA81EB91E8092F701909213
:100FF000F801A092F901B092FA0187E092E00E9414
:101000001D0360910D0270910E0280910F0290916C
:1010100010020E941F038BE791E00E94CE02109203
:10102000F3011092F4011092F5011092F601109262
:10103000F2011092F10184E090E090931402809309
:1010400013027AC28091F3019091F401A091F5010D
:10105000B091F6010097A105B10569F14091F70142
:101060005091F8016091F9017091FA018417950788
:10107000A607B70700F540910D0250910E0260914E
:101080000F0270911002481759076A077B0798F4FE
:101090008091110290911202C19739F4A5E0B0E05D
:1010A000B0931402A093130206C086E090E09093E0
:1010B0001402809313020E9451028090F7019090D5
:1010C000F801A090F901B090FA0186169706A806DB
:1010D000B90608F031C287E092E00E941D036091DA
:1010E000F7017091F8018091F9019091FA010E9445
:1010F0001F0383E891E00E94CE021093F201009357
:10110000F1018091110290911202C19759F487E088
:1011100092E00E941D030E9451020E941F038CE86E
:1011200091E00AC087E092E00E941D030E945102F4
:101130000E941F0382E991E00E94CE029EC080912E
:10114000F1019091F201892B29F50E9451028090C2
:10115000F7019090F801A090F901B090FA0186167D
:101160009706A806B906B0F487E092E00E941D0336
:101170006091F7017091F8018091F9019091FA0165
:101180000E941F0383E891E00E94CE021093F201B7
:101190000093F1018091EF019091F001892B09F00A
:1011A00049C081E00E94BF010E94510260930D027C
:1011B00070930E0280930F029093100287E092E0EA
:1011C0000E941D0360910D0270910E0280910F022A
:1011D000909110020E941F0381EA91E00E94CE02CA
:1011E00020E034E244E759E46091EB017091EC01B6
:1011F0008091ED019091EE010E94030C0E94CF0DB1
:1012000080900D0290900E02A0900F02B0901002FC
:10121000DC01CB01880D991DAA1DBB1D8093E70140
:101220009093E801A093E901B093EA011093F001D3
:101230000093EF010E9451028090E7019090E80135
:10124000A090E901B090EA0186169706A806B906B3
:1012500008F072C180E00E94BF0187E092E00E9426
:101260001D030E9451020E941F038BEA91E00E941D
:10127000CE021092F0011092EF01F0921402E0926F
:1012800013025AC18091F1019091F201892B29F545
:101290000E9451028090F7019090F801A090F9010E
:1012A000B090FA0186169706A806B906B0F487E052
:1012B00092E00E941D036091F7017091F801809106
:1012C000F9019091FA010E941F0383E891E00E94C6
:1012D000CE021093F2010093F1018091E50190910B
:1012E000E601892BF1F50E9451024B015C016093EC
:1012F0000D0270930E0280930F029093100220E073
:1013000034E244E759E46091E1017091E201809197
:10131000E3019091E4010E94030C0E94CF0D860E20
:10132000971EA81EB91E8092DD019092DE01A09248
:10133000DF01B092E00187E092E00E941D0360911E
:101340000D0270910E0280910F02909110020E9486
:101350001F0386EB91E00E94CE021093E6010093FA
:10136000E5018091E5019091E601019709F0E4C063
:101370004091F3015091F4016091F5017091F601F3
:1013800080910D0290910E02A0910F02B091100277
:1013900084179507A607B707D0F50E9451024B01A5
:1013A0005C0160930D0270930E0280930F02909384
:1013B000100220E034E244E759E46091E1017091C9
:1013C000E2018091E3019091E4010E94030C0E94EC
:1013D000CF0D860E971EA81EB91E8092DD01909239
:1013E000DE01A092DF01B092E00187E092E00E946E
:1013F0001D0360910D0270910E0280910F02909179
:1014000010020E941F0386EB91E00E94CE020E9410
:1014100051028090DD019090DE01A090DF01B0903C
:10142000E001681579058A059B0508F485C087E009
:1014300092E00E941D030E9451020E941F038FEB45
:1014400091E07ACE8091F1019091F201892B29F5FA
:101450000E9451028090F7019090F801A090F9014C
:10146000B090FA0186169706A806B906B0F487E090
:1014700092E00E941D036091F7017091F801809144
:10148000F9019091FA010E941F0383E891E00E9404
:10149000CE021093F2010093F1018091F10190913D
:1014A000F201019709F048C087E092E00E941D0315
:1014B0000E9451020E941F0386EC91E00E94CE021E
:1014C000809104019091050101969093050180930C
:1014D00004019F938F93A9E2B1E0BF93AF9387E09C
:1014E00092E09F938F930E94130E87E092E00E94F8
:1014F0001D030E9451020E941F0383E691E00E9497
:101500001D0380910401909105010E94220385E151
:1015100092E00E94EC000F900F900F900F900F90B0
:101520000F901816190624F485E192E00E94CA0073
:1015300010921402109213020E948C014BCC412C89
:10154000512C80E8682E8FE3782EC12CD12C7601A7
:10155000B12CA12CE130F10579F1ED32F10539F131
:10156000EE32F10539F1CF01C0970A9728F5AAE0CC
:10157000B0E0A70196010E94E00C6F01FF0FEE089A
:10158000FF08C60ED71EE81EF91E20E3C21AD108B6
:10159000E108F108BB2081F02DEC3CEC4CEC5DE364
:1015A000C301B2010E94030C2B013C0105C0AA2417
:1015B000A39402C0BB24B394E0911502F0911602EB
:1015C0000680F781E02D85E192E009950E94820274
:1015D000FC01C0970A9708F4BDCFEE32F10519F46B
:1015E000B1101FC0B7CFE130F10509F4B3CFAA2085
:1015F00041F0F094E094D094C094C11CD11CE11C43
:10160000F11CBB2049F0C701B6010E94A40BA30145
:1016100092010E94030CF6CAC701B6010E94A40BF6
:10162000F1CAA110E6CFEFCFE5E1F2E0138212821A
:1016300088EE93E0A0E0B0E084839583A683B7832F
:101640008EE091E09183808385EC90E0958784879C
:1016500084EC90E09787868780EC90E0918B808B7C
:1016600081EC90E0938B828B82EC90E0958B848B65
:1016700086EC90E0978B868B118E128E138E148ED3
:1016800008958F929F92AF92BF92CF92DF92EF9286
:10169000FF92CF93DF93EC01688179818A819B81EE
:1016A000611571058105910521F464E279ED8BE501
:1016B00097E02DE133EF41E050E00E94C10C490179
:1016C0005A019B01AC01A7EAB1E40E94E00C6B0156
:1016D0007C01ACEEB4EFA50194010E94EE0CDC019C
:1016E000CB018C0D9D1DAE1DBF1DB7FF03C0019723
:1016F000A109B04888839983AA83BB83BC01CD012B
:101700009F77DF91CF91FF90EF90DF90CF90BF90C8
:10171000AF909F908F9008950E94410B089586E0AE
:1017200091E00E94410B08956093060170930701B8
:10173000809308019093090108950E94DF0B08F43B
:1017400081E00895E89409C097FB3EF49095809558
:10175000709561957F4F8F4F9F4F9923A9F0F92F77
:1017600096E9BB279395F695879577956795B795F5
:10177000F111F8CFFAF4BB0F11F460FF1BC06F5FDB
:101780007F4F8F4F9F4F16C0882311F096E911C0ED
:10179000772321F09EE8872F762F05C0662371F00E
:1017A00096E8862F70E060E02AF09A95660F771F22
:1017B000881FDAF7880F9695879597F90895990FFE
:1017C0000008550FAA0BE0E8FEEF16161706E8070B
:1017D000F907C0F012161306E407F50798F0621B2C
:1017E000730B840B950B39F40A2661F0232B242B01
:1017F000252B21F408950A2609F4A140A6958FEF20
:10180000811D811D08950E94160C0C94870C0E9466
:10181000790C38F00E94800C20F0952311F00C9484
:10182000700C0C94760C11240C94BB0C0E94980C38
:1018300070F3959FC1F3950F50E0551F629FF00123
:10184000729FBB27F00DB11D639FAA27F00DB11D3C
:10185000AA1F649F6627B00DA11D661F829F2227C5
:10186000B00DA11D621F739FB00DA11D621F839F4C
:10187000A00D611D221F749F3327A00D611D231F22
:10188000849F600D211D822F762F6A2F11249F5770
:1018900050409AF0F1F088234AF0EE0FFF1FBB1F73
:1018A000661F771F881F91505040A9F79E3F510532
:1018B00080F00C94700C0C94BB0C5F3FE4F3983EEA
:1018C000D4F3869577956795B795F795E7959F5FDC
:1018D000C1F7FE2B880F911D9695879597F908956E
:1018E00097F99F6780E870E060E008959FEF80ECD3
:1018F000089500240A941616170618060906089576
:1019000000240A9412161306140605060895092EDB
:101910000394000C11F4882352F0BB0F40F4BF2B4A
:1019200011F460FF04C06F5F7F4F8F4F9F4F08958A
:1019300057FD9058440F551F59F05F3F71F0479580
:10194000880F97FB991F61F09F3F79F08795089565
:10195000121613061406551FF2CF4695F1DF08C084
:10196000161617061806991FF1CF869571056105A1
:1019700008940895E894BB2766277727CB0197F949
:101980000895052E97FB1EF400940E94D80C57FD75
:1019900007D00E942A0D07FC03D04EF40C94D80CFB
:1019A00050954095309521953F4F4F4F5F4F08958B
:1019B00090958095709561957F4F8F4F9F4F0895BB
:1019C0000E944C0DA59F900DB49F900DA49F800D7B
:1019D000911D11240895B7FF0C94E00C0E94E00CB7
:1019E000821B930B08952F923F924F925F926F92BA
:1019F0007F928F929F92AF92BF92CF92DF92EF929F
:101A0000FF920F931F93CF93DF93CDB7DEB7CA1B1F
:101A1000DB0B0FB6F894DEBF0FBECDBF09942A884A
:101A2000398848885F846E847D848C849B84AA84F2
:101A3000B984C884DF80EE80FD800C811B81AA817F
:101A4000B981CE0FD11D0FB6F894DEBF0FBECDBF4A
:101A5000ED010895A1E21A2EAA1BBB1BFD010DC0CA
:101A6000AA1FBB1FEE1FFF1FA217B307E407F5074E
:101A700020F0A21BB30BE40BF50B661F771F881F2A
:101A8000991F1A9469F760957095809590959B01C0
:101A9000AC01BD01CF010895A29FB001B39FC00169
:101AA000A39F700D811D1124911DB29F700D811D8A
:101AB0001124911D08955058BB27AA270E94730D29
:101AC0000C94870C0E94790C38F00E94800C20F056
:101AD00039F49F3F19F426F40C94760C0EF4E0953B
:101AE000E7FB0C94700CE92F0E94980C58F3BA177E
:101AF000620773078407950720F079F4A6F50C9424
:101B0000BA0C0EF4E0950B2EBA2FA02D0B01B901E3
:101B100090010C01CA01A0011124FF27591B99F063
:101B2000593F50F4503E68F11A16F040A22F232F6F
:101B3000342F4427585FF3CF469537952795A795BF
:101B4000F0405395C9F77EF41F16BA0B620B730B66
:101B5000840BBAF09150A1F0FF0FBB1F661F771FD7
:101B6000881FC2F70EC0BA0F621F731F841F48F48C
:101B7000879577956795B795F7959E3F08F0B0CF15
:101B80009395880F08F09927EE0F979587950895FC
:101B90000E94CF0D6894B1110C94BB0C08950E9463
:101BA000A00C88F09F5798F0B92F9927B751B0F043
:101BB000E1F0660F771F881F991F1AF0BA95C9F7D1
:101BC00014C0B13091F00E94BA0CB1E008950C94A9
:101BD000BA0C672F782F8827B85F39F0B93FCCF35C
:101BE000869577956795B395D9F73EF4909580954E
:101BF000709561957F4F8F4F9F4F08950E94DF0B27
:101C000008F48FEF08950E94DF0B880B990B08955D
:101C1000EE0FFF1F0590F491E02D099481E090E014
:101C2000F8940C94B410AEE0B0E0E9E1FEE00C945E
:101C3000010D0D891E8986E08C831A8309838FEF3D
:101C40009FE79E838D83AE01475E5F4F6F89788DDE
:101C5000CE0101960E94360E2F813885F801E20FE1
:101C6000F31F10822E96E4E00C941D0DACE0B0E062
:101C7000ECE3FEE00C94F30C7C016B018A01FC01A7
:101C800017821682838181FFBDC1CE0101964C016E
:101C9000F7019381F60193FD859193FF81916F0187
:101CA000882309F4ABC1853239F493FD859193FF04
:101CB00081916F01853229F4B70190E00E941E10D6
:101CC000E7CF512C312C20E02032A0F48B3269F088
:101CD00030F4803259F0833269F420612CC08D32A7
:101CE00039F0803339F4216026C02260246023C09B
:101CF000286021C027FD27C030ED380F3A3078F436
:101D000026FF06C0FAE05F9E300D1124532E13C04B
:101D10008AE0389E300D1124332E20620CC08E32A2
:101D200021F426FD6BC1206406C08C3611F42068B6
:101D300002C0883641F4F60193FD859193FF8191AD
:101D40006F018111C1CF982F9F7D9554933028F456
:101D50000C5F1F4FFFE3F9830DC0833631F08337EB
:101D600071F0833509F05BC022C0F801808189835E
:101D70000E5F1F4F44244394512C540115C0380169
:101D8000F2E06F0E711CF801A080B18026FF03C045
:101D9000652D70E002C06FEF7FEFC5012C870E94B8
:101DA00013102C0183012C852F77222E17C03801A8
:101DB000F2E06F0E711CF801A080B18026FF03C015
:101DC000652D70E002C06FEF7FEFC5012C870E9488
:101DD00008102C012C852068222E830123FC1BC0B7
:101DE000832D90E048165906B0F4B70180E290E0E8
:101DF0000E941E103A94F4CFF50127FC859127FE2E
:101E000081915F01B70190E00E941E1031103A9459
:101E1000F1E04F1A51084114510471F7E5C08436BE
:101E200011F0893639F5F80127FF07C0608171810B
:101E3000828193810C5F1F4F08C060817181072EE2
:101E4000000C880B990B0E5F1F4F2F76722E97FF99
:101E500009C090958095709561957F4F8F4F9F4FEA
:101E60002068722E2AE030E0A4010E945610A82EAD
:101E7000A81844C0853729F42F7EB22E2AE030E01E
:101E800025C0F22FF97FBF2E8F36C1F018F48835A8
:101E900079F0B4C0803719F0883721F0AFC02F2F08
:101EA0002061B22EB4FE0DC08B2D8460B82E09C007
:101EB00024FF0AC09F2F9660B92E06C028E030E0AC
:101EC00005C020E130E002C020E132E0F801B7FEB9
:101ED00007C060817181828193810C5F1F4F06C0B2
:101EE0006081718180E090E00E5F1F4FA4010E942D
:101EF0005610A82EA818FB2DFF777F2E76FE0BC05C
:101F0000372D3E7FA51450F474FE0AC072FC08C041
:101F1000372D3E7E05C0BA2C372D03C0BA2C01C028
:101F2000B52C34FF0DC0FE01EA0DF11D8081803318
:101F300011F4397E09C032FF06C0B394B39404C0D3
:101F4000832F867809F0B39433FD13C030FF06C0A9
:101F50005A2CB31418F4530C5B18B32CB31468F454
:101F6000B70180E290E03C870E941E10B3943C854C
:101F7000F5CFB31410F43B1801C0312C34FF12C05C
:101F8000B70180E390E03C870E941E103C8532FF41
:101F900017C031FD03C088E790E002C088E590E0FB
:101FA000B7010CC0832F867859F031FF02C08BE255
:101FB00001C080E237FD8DE2B70190E00E941E1063
:101FC000A51438F4B70180E390E00E941E105A94E3
:101FD000F7CFAA94F401EA0DF11D8081B70190E0DA
:101FE0000E941E10A110F5CF332009F451CEB70185
:101FF00080E290E00E941E103A94F6CFF7018681AD
:10200000978102C08FEF9FEF2C96E2E10C940F0DA9
:10201000FC010590615070400110D8F780959095B3
:102020008E0F9F1F0895FC016150704001900110B8
:10203000D8F7809590958E0F9F1F08950F931F934B
:10204000CF93DF93FB01238121FD03C08FEF9FEF2F
:1020500028C022FF16C0468157812481358142174E
:10206000530744F4A081B1819D012F5F3F4F31831D
:1020700020838C93268137812F5F3F4F37832683C0
:1020800010C0EB01092F182F0084F185E02D099570
:10209000892BE1F68E819F8101969F838E83812F0C
:1020A000902FDF91CF911F910F910895FA01AA27E8
:1020B000283051F1203181F1E8946F936E7F6E5F8B
:1020C0007F4F8F4F9F4FAF4FB1E03ED0B4E03CD039
:1020D000670F781F891F9A1FA11D680F791F8A1F1C
:1020E000911DA11D6A0F711D811D911DA11D20D083
:1020F00009F468943F912AE0269F11243019305D3D
:102100003193DEF6CF010895462F4770405D41932D
:10211000B3E00FD0C9F7F6CF462F4F70405D4A337A
:1021200018F0495D31FD4052419302D0A9F7EACF42
:10213000B4E0A6959795879577956795BA95C9F771
:1021400000976105710508959B01AC010A2E069464
:102150005795479537952795BA95C9F7620F731F1D
:0C216000841F951FA01D0895F894FFCF68
:10216C00204E0000010001000000000000002301CF
:10217C009F00EC00CA00DE006A010D0A006E616E61
:10218C0000696E66006F766600253034642000208E
:10219C004C49434B00484F4C4454494D4520005248
:1021AC0045535057494E200052455754494D4520F0
:1021BC0000544F54494D4520004445424F554E4321
:1021CC0045200020545249414C00205454002054C6
:1021DC004F4E00205354494D4F4E00205245535002
:1021EC004F4E0020524553504F464600204D495308
:1021FC00530020434F525245435452454A45435491
:10220C0000205245574152444F4E002052455741F1
:10221C0052444F46460020544F53544152540020D0
:0C222C00544F454E440020544F464600DD
:00000001FF
