:100000000C946B000C9493000C9493000C9493004C
:100010000C9493000C9493000C9493000C94930014
:100020000C9493000C9493000C9493000C94930004
:100030000C9493000C9493000C9493000C949300F4
:100040000C9402050C9493000C94D0040C94AA0414
:100050000C9493000C9493000C9493000C949300D4
:100060000C9493000C94930020077C07A207F107DF
:100070004808A2081709BA099E0A000000002400D7
:1000800027002A0000000000250028002B000000A7
:1000900000002300260029000404040404040404CE
:1000A0000202020202020303030303030102040823
:1000B00010204080010204081020010204081020D2
:1000C0000000000800020100000304070000000017
:1000D000000000008A0B11241FBECFEFD8E0DEBF66
:1000E000CDBF11E0A0E0B1E0E8E5F2E202C005908A
:1000F0000D92A03EB107D9F722E0A0EEB1E001C019
:100100001D92AA3CB207E1F710E0CBE6D0E004C0B4
:100110002197FE010E947E0ECA36D107C9F70E94C0
:100120004C050C942A110C940000E0912D02F091E2
:100130002E020190F081E02D682F8DE292E009946B
:10014000CF92DF92EF92FF920F931F93CF93DF93A3
:100150006C017A018B01C0E0D0E0CE15DF0589F09B
:10016000D8016D918D01D601ED91FC910190F08146
:10017000E02DC6010995892B11F47E0102C021965C
:10018000ECCFC701DF91CF911F910F91FF90EF90BE
:10019000DF90CF900895FC01918D828D981761F0CA
:1001A000828DDF01A80FB11D5D968C91928D9F5FAE
:1001B0009F73928F90E008958FEF9FEF0895FC0159
:1001C000918D828D981731F0828DE80FF11D858D0C
:1001D00090E008958FEF9FEF0895FC01918D228D9F
:1001E000892F90E0805C9F4F821B91098F73992724
:1001F00008958DE292E00E94ED0021E0892B09F440
:1002000020E0822F0895FC01848DDF01A80FB11D2D
:10021000A35ABF4F2C91848D90E001968F7399273C
:10022000848FA689B7892C93A089B1898C91806429
:100230008C93938D848D981306C00288F389E02DEA
:1002400080818F7D80830895EF92FF920F931F939B
:10025000CF93DF93EC0181E0888F9B8D8C8D981379
:1002600005C0E889F989808185FD24C0F62E0B8DB3
:1002700010E00F5F1F4F0F731127E02E8C8DE812D7
:100280000CC00FB607FCFACFE889F989808185FF99
:10029000F5CFCE010E940301F1CF8B8DFE01E80F57
:1002A000F11DE35AFF4FF0820B8FEA89FB898081B1
:1002B000806207C0EE89FF896083E889F9898081BF
:1002C0008064808381E090E0DF91CF911F910F9156
:1002D000FF90EF900895CF93DF93EC01888D8823F2
:1002E000C9F0EA89FB89808185FD05C0A889B989A3
:1002F0008C9186FD0FC00FB607FCF5CF808185FF7E
:10030000F2CFA889B9898C9185FFEDCFCE010E94EB
:100310000301E7CFDF91CF91089580E090E0892B32
:1003200029F00E94F90081110C9400000895833097
:1003300081F028F4813099F08230A1F0089587305F
:10034000A9F08830B9F08430D1F4809180008F7D9D
:1003500003C0809180008F7780938000089584B5DA
:100360008F7702C084B58F7D84BD08958091B000E1
:100370008F7703C08091B0008F7D8093B000089587
:10038000CF93DF93282F30E0F901E054FF4F8491A1
:10039000F901E455FF4FD491F901E856FF4FC4919C
:1003A000CC2391F081110E949701EC2FF0E0EE0F29
:1003B000FF1FE257FF4FA591B491EC91ED2381E02F
:1003C00090E021F480E002C080E090E0DF91CF91E6
:1003D00008951F93CF93DF93282F30E0F901E05465
:1003E000FF4F8491F901E455FF4FD491F901E8568C
:1003F000FF4FC491CC23C9F0162F81110E949701A1
:10040000EC2FF0E0EE0FFF1FEC57FF4FA591B491DA
:100410008FB7F894111105C09C91ED2FE095E92359
:1004200002C0EC91ED2BEC938FBFDF91CF911F9128
:100430000895CF93DF9390E0FC01E455FF4F2491A2
:10044000FC01E856FF4F8491882361F190E0880F0A
:10045000991FFC01E658FF4FC591D491FC01EC5760
:10046000FF4FA591B491611109C09FB7F89488819D
:10047000209582238883EC912E230BC0623061F497
:100480009FB7F8943881822F809583238883EC91DD
:100490002E2B2C939FBF06C08FB7F894E8812E2B8C
:1004A00028838FBFDF91CF9108953FB7F894809153
:1004B000EB019091EC01A091ED01B091EE0126B518
:1004C000A89B05C02F3F19F00196A11DB11D3FBF8C
:1004D000BA2FA92F982F8827820F911DA11DB11D1A
:1004E000BC01CD0142E0660F771F881F991F4A9516
:1004F000D1F708952FB7F8946091E7017091E80162
:100500008091E9019091EA012FBF08950F931F9305
:100510000E947A026093350270933602809337020C
:1005200090933802E0912D02F0912E020084F18523
:10053000E02D8DE292E0099597FF1FC00E947A029C
:100540000091350210913602209137023091380225
:10055000DC01CB01801B910BA20BB30B009131028C
:1005600010913202209133023091340280179107AA
:10057000A207B307B8F28FEF9FEF1F910F91089575
:10058000009769F0FC0101900020E9F73197AF0175
:10059000481B590BBC018DE292E00C94A00080E056
:1005A00090E00895CF93DF930E94C002EC018AE1AE
:1005B00091E00E94C0028C0F9D1FDF91CF910895A2
:1005C0008F929F92AF92BF920F931F93CF93DF931F
:1005D000CDB7DEB7A1970FB6F894DEBF0FBECDBF83
:1005E00019A2423008F44AE08E010F5D1F4F842E9D
:1005F000912CA12CB12CA50194010E94A00DE62FF5
:10060000B901CA0101501109EA3014F4E05D01C0DA
:10061000E95CD801EC93232B242B252B61F7C8012F
:100620000E94C002A1960FB6F894DEBF0FBECDBFE8
:10063000DF91CF911F910F91BF90AF909F908F90BE
:1006400008950C94C0024AE00C94E002CF92DF922D
:10065000EF92FF92CF93DF936C01990FEE08FF08A2
:10066000F7FE12C08DE20E949500EC016627772705
:10067000CB016C197D098E099F094AE00E94E002B6
:100680007C01EC0EFD1E06C04AE0C701B6010E94C7
:10069000E0027C018AE191E00E94C0028E0D9F1D64
:1006A000DF91CF91FF90EF90DF90CF9008954F9220
:1006B0005F926F927F928F929F92AF92BF92CF92F2
:1006C000DF92EF92FF926B017C019B01AC010E94D3
:1006D000790E882319F08DE191E01AC04601570187
:1006E000E894B7F82FEF3FEF4FE75FE7C501B4019C
:1006F0000E94790E811110C02FEF3FEF4FE75FE7A7
:10070000C501B4010E94130C181634F481E291E083
:100710000E94C0027C017FC02FEF3FEF4FE75FE4F4
:10072000C701B6010E94740E18161CF485E291E010
:10073000EFCF2FEF3FEF4FE75FECC701B6010E940D
:10074000130C87FDF3CF20E030E0A901C701B6010B
:100750000E94130C87FF09C08DE20E9495005C0186
:10076000F7FAF094F7F8F09402C0A12CB12C2AE02B
:1007700037ED43EA5BE3C701B6010E94D20D2B01BE
:100780003C010E94450E6B017C010E94180C9B01EC
:10079000AC01C301B2010E94D10D2B013C014AE022
:1007A000C701B6010E94E0027C01EA0CFB1C8EE24C
:1007B0000E949500E80EF91E20E030E040E251E48E
:1007C000C301B2010E94790C2B013C010E94450E2D
:1007D0004B01A12CB12C4AE0C501B4010E94E002FA
:1007E000E80EF91EC501B4010E94180C9B01AC0172
:1007F000C301B2010E94D10D20E030E040E251E49B
:100800000E94790C0E94450E80E090E04AE00E9430
:10081000E002E80EF91E8AE191E00E94C0028E0D0E
:100820009F1DFF90EF90DF90CF90BF90AF909F9073
:100830008F907F906F905F904F900895CF92DF924E
:10084000EF92FF920F931F93CF93DF9387E00E9465
:10085000C001EC018091E4019091E501C817D9072E
:1008600051F00E9455026093E0017093E101809382
:10087000E2019093E3010E945502C090E001D09004
:10088000E101E090E201F090E301DC01CB018C1981
:100890009D09AE09BF09009100011091010120914D
:1008A000020130910301081719072A073B0708F0D6
:1008B00042C080911D0290911E02C817D907D9F13C
:1008C000D0931E02C0931D026C2F8BE00E94E901A1
:1008D000C130D10581F5C0920702D0920802E092A2
:1008E0000902F0920A02809105018F938091040120
:1008F0008F9389E291E09F938F938FE192E09F9392
:100900008F930E94890E8FE192E00E9421036091F3
:100910000702709108028091090290910A020E94D8
:1009200023038FE291E00E94D2020F900F900F906C
:100930000F900F900F90D093E501C093E401DF91E9
:10094000CF911F910F91FF90EF90DF90CF9008957E
:100950000E94840E1F920F920FB60F9211242F93B4
:100960003F934F935F936F937F938F939F93AF9337
:10097000BF93EF93FF938DE292E00E940301FF91FA
:10098000EF91BF91AF919F918F917F916F915F9107
:100990004F913F912F910F900FBE0F901F90189580
:1009A0001F920F920FB60F9211242F938F939F9344
:1009B000EF93FF93E0913D02F0913E028081E09140
:1009C0004302F091440282FD12C090818091460260
:1009D0008F5F8F7320914702821751F0E09146029A
:1009E000F0E0E35DFD4F958F8093460201C080816A
:1009F000FF91EF919F918F912F910F900FBE0F90CC
:100A00001F9018951F920F920FB60F9211242F93DB
:100A10003F938F939F93AF93BF938091E701909102
:100A2000E801A091E901B091EA013091E60123E0EB
:100A3000230F2D3720F40196A11DB11D05C026E816
:100A4000230F0296A11DB11D2093E6018093E701BB
:100A50009093E801A093E901B093EA018091EB0142
:100A60009091EC01A091ED01B091EE010196A11DD4
:100A7000B11D8093EB019093EC01A093ED01B09335
:100A8000EE01BF91AF919F918F913F912F910F9068
:100A90000FBE0F901F901895CF93DF93CDB7DEB7A1
:100AA000A4970FB6F894DEBF0FBECDBF789484B57F
:100AB000826084BD84B5816084BD85B5826085BD5A
:100AC00085B5816085BD80916E00816080936E00E8
:100AD00010928100809181008260809381008091DA
:100AE000810081608093810080918000816080938B
:100AF00080008091B10084608093B1008091B0004B
:100B000081608093B00080917A00846080937A0045
:100B100080917A00826080937A0080917A0081606F
:100B200080937A0080917A00806880937A00109296
:100B3000C10060E087E00E94190260E085E00E9449
:100B4000190261E089E00E94190261E08BE00E94D5
:100B5000190261E08CE00E94190260E089E00E94C5
:100B6000E901E0913D02F0913E0282E08083E09154
:100B70003902F0913A021082E0913B02F0913C027E
:100B800087E6808310924502E0914102F091420293
:100B900086E08083E0913F02F09140028081806195
:100BA0008083E0913F02F0914002808188608083E1
:100BB000E0913F02F0914002808180688083E09163
:100BC0003F02F091400280818F7D80838DE292E030
:100BD0000E94CB008DE292E00E94ED0018161906EB
:100BE000CCF70091EF011091F0010E948602FC0108
:100BF00097FD17C08D32910509F417C5C0970A9764
:100C000008F413C5EE32F10509F40FC5E0912D0289
:100C1000F0912E020680F781E02D8DE292E0099599
:100C2000E4CF60E070E0CB01000F111F000F111F37
:100C3000E1E0F0E0EC0FFD1FE00FF11F6083718336
:100C4000828393838091EF019091F00101969093BC
:100C5000F0018093EF0106970CF4BCCF29813A8113
:100C60004B815C812093190230931A0240931B023E
:100C700050931C024D805E806F80788440920F02FA
:100C800050921002609211027092120289849A842A
:100C9000AB84BC848092FF0190920002A09201027A
:100CA000B09202028D859E85AF85B889898F9A8F13
:100CB000AB8FBC8F8093F5019093F601A093F70161
:100CC000B093F801C988DA88EB88FC88C701B601BF
:100CD00029A33AA34BA35CA30E94450E6093000195
:100CE0007093010180930201909303018D899E8985
:100CF000AF89B88D8D8F9E8FAF8FB8A3809313026D
:100D000090931402A0931502B093160285E391E02C
:100D10000E94210329A13AA14BA15CA1CA01B901FA
:100D20000E9457038FE391E00E942103C301B201A7
:100D30000E94570388E491E00E942103C501B40199
:100D40000E94570381E591E00E942103698D7A8D0D
:100D50008B8D9C8D0E94570389E591E00E942103B1
:100D6000C701B6010E94570383E691E00E94210368
:100D70006D8D7E8D8F8D98A10E9457038091050106
:100D80008F93809104018F9389E291E09F938F93D9
:100D90008FE192E09F938F930E94890E8FE192E002
:100DA0000E9421030E9455020E9423038AE691E0DB
:100DB0000E94210380910401909105010E94260365
:100DC00080E480937C0080917A00806480937A0034
:100DD0000F900F900F900F900F900F9080917A00CE
:100DE00086FDFCCF609178008091790070E0782BCF
:100DF000072E000C880B990B611571058105910573
:100E000011F00E940A0C8DE292E00E94CB0008E0F3
:100E100010E0EE24E394F12C37E0C32ED12C42E015
:100E2000242E312C0E941E04E0912B02F0912C0202
:100E3000E930F10508F0F6C3EC5CFF4F0C947E0E30
:100E40008DE292E00E94ED00181619060CF0EAC33C
:100E50008DE292E00E94CB0090932A0280932902B7
:100E60000E94550260932502709326028093270208
:100E7000909328028FE192E00E9421036091250265
:100E80007091260280912702909128020E942303EC
:100E900081E791E00E9421038091290290912A022A
:100EA0000E942603F0922C02E0922B02BBC30E9408
:100EB0007A024B015C0184189508A608B70820E067
:100EC00030E04AE754E46091190270911A0280916F
:100ED0001B0290911C020E94790C0E943E0E861605
:100EE0009706A806B90668F40E941E0480911D02A8
:100EF00090911E020197D9F60E947A022B013C01C3
:100F0000D6CF0E94550260932502709326028093EB
:100F10002702909328028FE192E00E9421036091C2
:100F200025027091260280912702909128020E944A
:100F3000230385E791E00E94D20230922C02209296
:100F40002B0270C385E00E94C00190931802809329
:100F50001702019709F066C30E94550260932502AB
:100F60007093260280932702909328028FE192E0EB
:100F70000E94210360912502709126028091270230
:100F8000909128020E9423038AE791E00E94D202F6
:100F90000E9455022B013C019AE0892E912CA12C34
:100FA000B12C0E945502DC01CB0184199509A609D8
:100FB000B709883E9340A105B10558F091E0891A20
:100FC0009108A108B108A8EE4A0EA3E05A1E611CC0
:100FD000711C81149104A104B10419F783E090E01D
:100FE000ACC00E947A022B013C010E947A024B01A4
:100FF0005C0184189508A608B70820E030E04AE7AD
:1010000054E4609113027091140280911502909142
:1010100016020E94790C0E943E0E86169706A806BC
:10102000B90640F50E941E0480911D0290911E0297
:101030000197D9F60E94550260932502709326020B
:1010400080932702909328028FE192E00E9421036F
:1010500060912502709126028091270290912802CA
:101060000E94230382E891E00E94D202D0922C02D7
:10107000C0922B0280912B0290912C02079709F4C9
:10108000D1C2A4E0B0E0B0932C02A0932B02CAC25C
:1010900085E00E94C0015C019093180280931702C2
:1010A000019709F0BFC20E9455022B013C016093D9
:1010B000250270932602809327029093280220E055
:1010C00034E244E759E460910F027091100280917C
:1010D0001102909112020E94790C0E94450EDC01CF
:1010E000CB01840D951DA61DB71D80930B02909317
:1010F0000C02A0930D02B0930E028FE192E00E94C9
:10110000210360912502709126028091270290911F
:1011100028020E9423038EE891E00E94D2021092DE
:101120000702109208021092090210920A02B0926D
:101130000602A092050285E090E090932C02809335
:101140002B0270C28091070290910802A0910902BF
:10115000B0910A020097A105B10559F140910B0227
:1011600050910C0260910D0270910E028417950748
:10117000A607B707F0F4409125025091260260912E
:10118000270270912802481759076A077B0788F4DD
:101190008091290290912A02C19739F4A6E0B0E02B
:1011A000B0932C02A0932B0204C0D0922C02C092C8
:1011B0002B020E94550280900B0290900C02A0908E
:1011C0000D02B0900E0286169706A806B90608F022
:1011D00029C28FE192E00E9421030E9455020E94E1
:1011E000230386E991E00E94D20210920602109237
:1011F00005028091290290912A02C19759F48FE14A
:1012000092E00E9421030E9455020E9423038FE96D
:1012100091E00AC08FE192E00E9421030E945502F2
:101220000E94230385EA91E00E94D20282C180914C
:101230000502909106020197F9F40E9455028090F0
:101240000B0290900C02A0900D02B0900E02861638
:101250009706A806B90680F48FE192E00E94210368
:101260000E9455020E94230386E991E00E94D20267
:1012700010920602109205028091030290910402DE
:10128000892B09F04EC061E089E00E94E90161E02C
:101290008CE00E94E9010E94550260932502709340
:1012A000260280932702909328028FE192E00E9409
:1012B000210360912502709126028091270290916E
:1012C00028020E94230384EB91E00E94D20220E0D6
:1012D00034E244E759E46091FF017091000280918B
:1012E0000102909102020E94790C0E94450E8090AA
:1012F000250290902602A0902702B0902802DC01DF
:10130000CB01880D991DAA1DBB1D8093FB019093F5
:10131000FC01A093FD01B093FE01F0920402E09263
:1013200003020E9455028090FB019090FC01A09066
:10133000FD01B090FE0186169706A806B90608F0D2
:1013400071C160E089E00E94E90160E08CE00E94E8
:10135000E9018FE192E00E9421030E9455020E9460
:1013600023038EEB91E00E94D202109204021092AD
:101370000302DFC080910502909106020197F9F403
:101380000E94550280900B0290900C02A0900D02DA
:10139000B0900E0286169706A806B90680F48FE173
:1013A00092E00E9421030E9455020E94230386E9D5
:1013B00091E00E94D20210920602109205028091E2
:1013C000F9019091FA01892BF1F50E9455024B0128
:1013D0005C0160932502709326028093270290930C
:1013E000280220E034E244E759E46091F50170916D
:1013F000F6018091F7019091F8010E94790C0E940A
:10140000450E860E971EA81EB91E8092F10190927D
:10141000F201A092F301B092F4018FE192E00E94F8
:1014200021036091250270912602809127029091FC
:1014300028020E94230389EC91E00E94D202F092DC
:10144000FA01E092F9018091F9019091FA01019776
:1014500009F0E8C04091070250910802609109022A
:1014600070910A028091250290912602A091270294
:10147000B091280284179507A607B707D0F50E94F8
:1014800055024B015C016093250270932602809304
:1014900027029093280220E034E244E759E4609167
:1014A000F5017091F6018091F7019091F8010E9489
:1014B000790C0E94450E860E971EA81EB91E8092BA
:1014C000F1019092F201A092F301B092F4018FE148
:1014D00092E00E9421036091250270912602809182
:1014E0002702909128020E94230389EC91E00E9438
:1014F000D2020E9455028090F1019090F201A090DA
:10150000F301B090F401681579058A059B0508F48C
:1015100089C08FE192E00E9421030E9455020E943F
:10152000230382ED91E00E94D2021092FA01109200
:10153000F90110932C0200932B0274C080910502D4
:10154000909106020197F9F40E94550280900B02D7
:1015500090900C02A0900D02B0900E028616970695
:10156000A806B90680F48FE192E00E9421030E9450
:1015700055020E94230386E991E00E94D202109254
:101580000602109205028091050290910602892BB5
:1015900009F048C08FE192E00E9421030E945502A9
:1015A0000E94230389ED91E00E94D2028091040100
:1015B00090910501019690930501809304019F93FA
:1015C0008F93A9E2B1E0BF93AF938FE192E09F9335
:1015D0008F930E94890E8FE192E00E9421030E9466
:1015E00055020E9423038AE691E00E942103809124
:1015F0000401909105010E9426038DE292E00E9471
:10160000ED000F900F900F900F900F900F90181605
:10161000190624F48DE292E00E94CB0010922C0275
:1016200010922B020E948D01FDCB412C512C80E8A1
:10163000682E8FE3782EC12CD12C7601B12CA12CF1
:10164000E130F10579F1ED32F10539F1EE32F105D4
:1016500039F1CF01C0970A9728F5AAE0B0E0A701B9
:1016600096010E94560D6F01FF0FEE08FF08C60E8F
:10167000D71EE81EF91E20E3C21AD108E108F108BE
:10168000BB2081F02DEC3CEC4CEC5DE3C301B201DE
:101690000E94790C2B013C0105C0AA24A39402C02E
:1016A000BB24B394E0912D02F0912E020680F781C5
:1016B000E02D8DE292E009950E948602FC01C09720
:1016C0000A9708F4BDCFEE32F10519F4B1101FC02E
:1016D000B7CFE130F10509F4B3CFAA2041F0F0947F
:1016E000E094D094C094C11CD11CE11CF11CBB201F
:1016F00049F0C701B6010E941A0CA30192010E9491
:10170000790C92CAC701B6010E941A0C8DCAA110A9
:10171000E6CFEFCFEDE2F2E01382128288EE93E0A3
:10172000A0E0B0E084839583A683B7838EE091E048
:101730009183808385EC90E09587848784EC90E0AA
:101740009787868780EC90E0918B808B81EC90E08E
:10175000938B828B82EC90E0958B848B86EC90E06F
:10176000978B868B118E128E138E148E08958F9206
:101770009F92AF92BF92CF92DF92EF92FF92CF9360
:10178000DF93EC01688179818A819B816115710504
:101790008105910521F464E279ED8BE597E02DE177
:1017A00033EF41E050E00E94370D49015A019B019F
:1017B000AC01A7EAB1E40E94560D6B017C01ACEECE
:1017C000B4EFA50194010E94640DDC01CB018C0DE6
:1017D0009D1DAE1DBF1DB7FF03C00197A109B048F5
:1017E00088839983AA83BB83BC01CD019F77DF9156
:1017F000CF91FF90EF90DF90CF90BF90AF909F90F0
:101800008F9008950E94B70B089586E091E00E94A2
:10181000B70B089560930601709307018093080148
:101820009093090108950E94550C08F481E00895F1
:10183000E89409C097FB3EF490958095709561956A
:101840007F4F8F4F9F4F9923A9F0F92F96E9BB2720
:101850009395F695879577956795B795F111F8CF9C
:10186000FAF4BB0F11F460FF1BC06F5F7F4F8F4F07
:101870009F4F16C0882311F096E911C0772321F0FD
:101880009EE8872F762F05C0662371F096E8862F95
:1018900070E060E02AF09A95660F771F881FDAF7EC
:1018A000880F9695879597F90895990F0008550F19
:1018B000AA0BE0E8FEEF16161706E807F907C0F0D6
:1018C00012161306E407F50798F0621B730B840BDE
:1018D000950B39F40A2661F0232B242B252B21F4B8
:1018E00008950A2609F4A140A6958FEF811D811D58
:1018F00008950E948C0C0C94FD0C0E94EF0C38F0A3
:101900000E94F60C20F0952311F00C94E60C0C9438
:10191000EC0C11240C94310D0E940E0D70F3959F68
:10192000C1F3950F50E0551F629FF001729FBB27D6
:10193000F00DB11D639FAA27F00DB11DAA1F649F72
:101940006627B00DA11D661F829F2227B00DA11D25
:10195000621F739FB00DA11D621F839FA00D611DAB
:10196000221F749F3327A00D611D231F849F600DCC
:10197000211D822F762F6A2F11249F5750409AF0F5
:10198000F1F088234AF0EE0FFF1FBB1F661F771F81
:10199000881F91505040A9F79E3F510580F00C944C
:1019A000E60C0C94310D5F3FE4F3983ED4F386953A
:1019B00077956795B795F795E7959F5FC1F7FE2BEC
:1019C000880F911D9695879597F9089597F99F67C8
:1019D00080E870E060E008959FEF80EC08950024B7
:1019E0000A941616170618060906089500240A9484
:1019F00012161306140605060895092E0394000C0A
:101A000011F4882352F0BB0F40F4BF2B11F460FF98
:101A100004C06F5F7F4F8F4F9F4F089557FD9058C1
:101A2000440F551F59F05F3F71F04795880F97FBA2
:101A3000991F61F09F3F79F087950895121613065C
:101A40001406551FF2CF4695F1DF08C0161617068B
:101A50001806991FF1CF86957105610508940895C0
:101A6000E894BB2766277727CB0197F90895052EC1
:101A700097FB1EF400940E944E0D57FD07D00E9464
:101A8000A00D07FC03D04EF40C944E0D50954095DC
:101A9000309521953F4F4F4F5F4F0895909580951A
:101AA000709561957F4F8F4F9F4F08950E94C20D93
:101AB000A59F900DB49F900DA49F800D911D1124A2
:101AC0000895B7FF0C94560D0E94560D821B930B80
:101AD00008952F923F924F925F926F927F928F92D2
:101AE0009F92AF92BF92CF92DF92EF92FF920F93AD
:101AF0001F93CF93DF93CDB7DEB7CA1BDB0B0FB6B7
:101B0000F894DEBF0FBECDBF09942A883988488873
:101B10005F846E847D848C849B84AA84B984C88409
:101B2000DF80EE80FD800C811B81AA81B981CE0F00
:101B3000D11D0FB6F894DEBF0FBECDBFED010895E5
:101B4000A1E21A2EAA1BBB1BFD010DC0AA1FBB1FC1
:101B5000EE1FFF1FA217B307E407F50720F0A21B33
:101B6000B30BE40BF50B661F771F881F991F1A94A0
:101B700069F760957095809590959B01AC01BD01CA
:101B8000CF010895A29FB001B39FC001A39F700D24
:101B9000811D1124911DB29F700D811D1124911D75
:101BA00008955058BB27AA270E94E90D0C94FD0CFC
:101BB0000E94EF0C38F00E94F60C20F039F49F3FA1
:101BC00019F426F40C94EC0C0EF4E095E7FB0C945D
:101BD000E60CE92F0E940E0D58F3BA17620773073F
:101BE0008407950720F079F4A6F50C94300D0EF4D7
:101BF000E0950B2EBA2FA02D0B01B90190010C011D
:101C0000CA01A0011124FF27591B99F0593F50F434
:101C1000503E68F11A16F040A22F232F342F44278C
:101C2000585FF3CF469537952795A795F040539584
:101C3000C9F77EF41F16BA0B620B730B840BBAF054
:101C40009150A1F0FF0FBB1F661F771F881FC2F7BF
:101C50000EC0BA0F621F731F841F48F487957795D3
:101C60006795B795F7959E3F08F0B0CF9395880F8D
:101C700008F09927EE0F9795879508950E94450ED5
:101C80006894B1110C94310D08950E94160D88F0DE
:101C90009F5798F0B92F9927B751B0F0E1F0660F30
:101CA000771F881F991F1AF0BA95C9F714C0B13071
:101CB00091F00E94300DB1E008950C94300D672F23
:101CC000782F8827B85F39F0B93FCCF386957795A0
:101CD0006795B395D9F73EF4909580957095619589
:101CE0007F4F8F4F9F4F08950E94550C08F48FEF40
:101CF00008950E94550C880B990B0895EE0FFF1F55
:101D00000590F491E02D099481E090E0F8940C9412
:101D10002A11AEE0B0E0EFE8FEE00C94770D0D89FB
:101D20001E8986E08C831A8309838FEF9FE79E8349
:101D30008D83AE01475E5F4F6F89788DCE0101962E
:101D40000E94AC0E2F813885F801E20FF31F10823C
:101D50002E96E4E00C94930DACE0B0E0E2EBFEE0F4
:101D60000C94690D7C016B018A01FC0117821682BB
:101D7000838181FFBDC1CE0101964C01F7019381A2
:101D8000F60193FD859193FF81916F01882309F4FA
:101D9000ABC1853239F493FD859193FF81916F0139
:101DA000853229F4B70190E00E949410E7CF512CBE
:101DB000312C20E02032A0F48B3269F030F48032F4
:101DC00059F0833269F420612CC08D3239F08033B0
:101DD00039F4216026C02260246023C0286021C01D
:101DE00027FD27C030ED380F3A3078F426FF06C0C3
:101DF000FAE05F9E300D1124532E13C08AE0389E06
:101E0000300D1124332E20620CC08E3221F426FDB9
:101E10006BC1206406C08C3611F4206802C088367D
:101E200041F4F60193FD859193FF81916F0181113A
:101E3000C1CF982F9F7D9554933028F40C5F1F4F8E
:101E4000FFE3F9830DC0833631F0833771F08335BA
:101E500009F05BC022C0F801808189830E5F1F4FAB
:101E600044244394512C540115C03801F2E06F0E04
:101E7000711CF801A080B18026FF03C0652D70E0C1
:101E800002C06FEF7FEFC5012C870E9489102C01E3
:101E900083012C852F77222E17C03801F2E06F0EB8
:101EA000711CF801A080B18026FF03C0652D70E091
:101EB00002C06FEF7FEFC5012C870E947E102C01BE
:101EC0002C852068222E830123FC1BC0832D90E0EB
:101ED00048165906B0F4B70180E290E00E949410D1
:101EE0003A94F4CFF50127FC859127FE81915F019B
:101EF000B70190E00E94941031103A94F1E04F1A2B
:101F000051084114510471F7E5C0843611F0893647
:101F100039F5F80127FF07C06081718182819381C3
:101F20000C5F1F4F08C060817181072E000C880B69
:101F3000990B0E5F1F4F2F76722E97FF09C0909559
:101F40008095709561957F4F8F4F9F4F2068722EBF
:101F50002AE030E0A4010E94CC10A82EA81844C0AA
:101F6000853729F42F7EB22E2AE030E025C0F22FEB
:101F7000F97FBF2E8F36C1F018F4883579F0B4C0E0
:101F8000803719F0883721F0AFC02F2F2061B22E93
:101F9000B4FE0DC08B2D8460B82E09C024FF0AC08A
:101FA0009F2F9660B92E06C028E030E005C020E1E2
:101FB00030E002C020E132E0F801B7FE07C06081E6
:101FC0007181828193810C5F1F4F06C06081718196
:101FD00080E090E00E5F1F4FA4010E94CC10A82E5D
:101FE000A818FB2DFF777F2E76FE0BC0372D3E7F86
:101FF000A51450F474FE0AC072FC08C0372D3E7E52
:1020000005C0BA2C372D03C0BA2C01C0B52C34FF43
:102010000DC0FE01EA0DF11D8081803311F4397E7F
:1020200009C032FF06C0B394B39404C0832F8678EE
:1020300009F0B39433FD13C030FF06C05A2CB3141B
:1020400018F4530C5B18B32CB31468F4B70180E296
:1020500090E03C870E949410B3943C85F5CFB31474
:1020600010F43B1801C0312C34FF12C0B70180E3DB
:1020700090E03C870E9494103C8532FF17C031FDF0
:1020800003C088E790E002C088E590E0B7010CC08B
:10209000832F867859F031FF02C08BE201C080E2C5
:1020A00037FD8DE2B70190E00E949410A51438F43A
:1020B000B70180E390E00E9494105A94F7CFAA945D
:1020C000F401EA0DF11D8081B70190E00E949410A7
:1020D000A110F5CF332009F451CEB70180E290E092
:1020E0000E9494103A94F6CFF7018681978102C03E
:1020F0008FEF9FEF2C96E2E10C94850DFC0105908B
:10210000615070400110D8F7809590958E0F9F1FF9
:102110000895FC016150704001900110D8F780953E
:1021200090958E0F9F1F08950F931F93CF93DF936A
:10213000FB01238121FD03C08FEF9FEF28C022FF09
:1021400016C046815781248135814217530744F4D4
:10215000A081B1819D012F5F3F4F318320838C93FC
:10216000268137812F5F3F4F3783268310C0EB01D5
:10217000092F182F0084F185E02D0995892BE1F6B0
:102180008E819F8101969F838E83812F902FDF9177
:10219000CF911F910F910895FA01AA27283051F18C
:1021A000203181F1E8946F936E7F6E5F7F4F8F4F88
:1021B0009F4FAF4FB1E03ED0B4E03CD0670F781FE7
:1021C000891F9A1FA11D680F791F8A1F911DA11DCC
:1021D0006A0F711D811D911DA11D20D009F4689405
:1021E0003F912AE0269F11243019305D3193DEF6AD
:1021F000CF010895462F4770405D4193B3E00FD063
:10220000C9F7F6CF462F4F70405D4A3318F0495D4D
:1022100031FD4052419302D0A9F7EACFB4E0A69530
:102220009795879577956795BA95C9F70097610552
:10223000710508959B01AC010A2E069457954795A8
:1022400037952795BA95C9F7620F731F841F951F9D
:08225000A01D0895F894FFCFD2
:10225800204E0000010001000000000000002401E1
:10226800A000ED00CB00DF006B010D0A006E616E6F
:1022780000696E66006F76660025303464200020A1
:102288004C49434B00484F4C4454494D452000525B
:1022980045535057494E200052455754494D452003
:1022A80000544F54494D4520004445424F554E4334
:1022B80045200041424F5254200020545249414C7D
:1022C800002054540020544F4E00205354494D4F81
:1022D8004E00204541524C5941424F525400205221
:1022E8004553504F4E0020524553504F464600200C
:1022F8004D4953530020434F525245435452454A87
:1023080045435400205245574152444F4E002052F5
:1023180045574152444F46460020544F535441526A
:10232800540020544F454E440020544F4646000068
:00000001FF
