:100000000C946A000C9492000C9492000C94920050
:100010000C9492000C9492000C9492000C94920018
:100020000C9492000C9492000C9492000C94920008
:100030000C9492000C9492000C9492000C949200F8
:100040000C9459050C9492000C9427050C9401050E
:100050000C9492000C9492000C9492000C949200D8
:100060000C9492000C9492007E07DA070008310885
:100070008B080209A909830A000000002400270058
:100080002A0000000000250028002B0000000000CE
:1000900023002600290004040404040404040202CA
:1000A00002020202030303030303010204081020F7
:1000B0004080010204081020010204081020000002
:1000C0000008000201000003040700000000000017
:1000D0000000790B11241FBECFEFD8E0DEBFCDBFEB
:1000E00011E0A0E0B1E0E6E3F2E202C005900D927B
:1000F000AC3DB107D9F722E0ACEDB1E001C01D92F3
:10010000A23CB207E1F710E0CAE6D0E004C02197B4
:10011000FE010E946D0EC936D107C9F70E94A305E2
:100120000C9419110C940000E0912502F091260224
:100130000190F081E02D682F85E292E00994CF9242
:10014000DF92EF92FF920F931F93CF93DF936C0197
:100150007A018B01C0E0D0E0CE15DF0589F0D8012F
:100160006D918D01D601ED91FC910190F081E02D12
:10017000C6010995892B11F47E0102C02196ECCFAE
:10018000C701DF91CF911F910F91FF90EF90DF900A
:10019000CF900895089580E090E00895FC01538D7C
:1001A000448D252F30E0842F90E0821B930B541751
:1001B00010F0CF96089501970895FC01918D828DDE
:1001C000981761F0828DDF01A80FB11D5D968C91AB
:1001D000928D9F5F9F73928F90E008958FEF9FEFB6
:1001E0000895FC01918D828D981731F0828DE80F72
:1001F000F11D858D90E008958FEF9FEF0895FC012C
:10020000918D228D892F90E0805C9F4F821B9109F8
:100210008F739927089585E292E00E94FF0021E004
:10022000892B09F420E0822F0895FC01848DDF01E1
:10023000A80FB11DA35ABF4F2C91848D90E0019659
:100240008F739927848FA689B7892C93A089B18948
:100250008C9180648C93938D848D981306C0028852
:10026000F389E02D80818F7D80830895EF92FF9246
:100270000F931F93CF93DF93EC0181E0888F9B8DC9
:100280008C8D981305C0E889F989808185FD24C08B
:10029000F62E0B8D10E00F5F1F4F0F731127E02E0E
:1002A0008C8DE8120CC00FB607FCFACFE889F989EB
:1002B000808185FFF5CFCE010E941501F1CF8B8D96
:1002C000FE01E80FF11DE35AFF4FF0820B8FEA8920
:1002D000FB898081806207C0EE89FF896083E8899D
:1002E000F98980818064808381E090E0DF91CF9103
:1002F0001F910F91FF90EF900895CF93DF93EC0142
:10030000888D8823C9F0EA89FB89808185FD05C035
:10031000A889B9898C9186FD0FC00FB607FCF5CF6F
:10032000808185FFF2CFA889B9898C9185FFEDCFB7
:10033000CE010E941501E7CFDF91CF91089580E0B3
:1003400090E0892B29F00E940B0181110C94000090
:100350000895833081F028F4813099F08230A1F043
:1003600008958730A9F08830B9F08430D1F48091B5
:1003700080008F7D03C0809180008F778093800004
:10038000089584B58F7702C084B58F7D84BD0895AC
:100390008091B0008F7703C08091B0008F7D8093F3
:1003A000B0000895CF93DF93282F30E0F901E25495
:1003B000FF4F8491F901E655FF4FD491F901EA56B8
:1003C000FF4FC491CC2391F081110E94A901EC2F21
:1003D000F0E0EE0FFF1FE457FF4FA591B491EC91B1
:1003E000ED2381E090E021F480E002C080E090E025
:1003F000DF91CF9108951F93CF93DF93282F30E0A3
:10040000F901E254FF4F8491F901E655FF4FD49171
:10041000F901EA56FF4FC491CC23C9F0162F811180
:100420000E94A901EC2FF0E0EE0FFF1FEE57FF4FE7
:10043000A591B4918FB7F894111105C09C91ED2F3F
:10044000E095E92302C0EC91ED2BEC938FBFDF9197
:10045000CF911F910895CF93DF9390E0FC01E65573
:10046000FF4F2491FC01EA56FF4F8491882361F1EC
:1004700090E0880F991FFC01E858FF4FC591D49177
:10048000FC01EE57FF4FA591B491611109C09FB7D0
:10049000F8948881209582238883EC912E230BC0C9
:1004A000623061F49FB7F8943881822F809583235E
:1004B0008883EC912E2B2C939FBF06C08FB7F894A6
:1004C000E8812E2B28838FBFDF91CF9108953FB70E
:1004D000F8948091E7019091E801A091E901B09131
:1004E000EA0126B5A89B05C02F3F19F00196A11D72
:1004F000B11D3FBFBA2FA92F982F8827820F911DBA
:10050000A11DB11DBC01CD0142E0660F771F881F00
:10051000991F4A95D1F708958F929F92AF92BF92FB
:10052000CF92DF92EF92FF926B017C010E946702F3
:100530004B015C01C114D104E104F104F1F00E940B
:100540006702DC01CB0188199909AA09BB09883E19
:100550009340A105B10570F321E0C21AD108E1086A
:10056000F10888EE880E83E0981EA11CB11CC1140E
:10057000D104E104F10419F7DDCFFF90EF90DF9093
:10058000CF90BF90AF909F908F9008952FB7F89421
:100590006091E3017091E4018091E5019091E601A1
:1005A0002FBF08950F931F930E94C60260932D02E0
:1005B00070932E0280932F0290933002E0912502D7
:1005C000F09126020484F585E02D85E292E00995FC
:1005D00097FF1FC00E94C60200912D0210912E02AB
:1005E00020912F0230913002DC01CB01801B910B56
:1005F000A20BB30B0091290210912A0220912B0229
:1006000030912C0280179107A207B307B8F28FEF41
:100610009FEF1F910F910895009769F0FC010190E1
:100620000020E9F73197AF01481B590BBC0185E267
:1006300092E00C949F0080E090E00895CF93DF93C8
:100640000E940C03EC018CE191E00E940C038C0FE2
:100650009D1FDF91CF9108958F929F92AF92BF928D
:100660000F931F93CF93DF93CDB7DEB7A1970FB64C
:10067000F894DEBF0FBECDBF19A2423008F44AE0A5
:100680008E010F5D1F4F842E912CA12CB12CA50142
:1006900094010E948F0DE62FB901CA010150110982
:1006A000EA3014F4E05D01C0E95CD801EC93232B3F
:1006B000242B252B61F7C8010E940C03A1960FB6CD
:1006C000F894DEBF0FBECDBFDF91CF911F910F9188
:1006D000BF90AF909F908F9008950C940C034AE0C8
:1006E0000C942C03CF92DF92EF92FF92CF93DF9383
:1006F0006C01990FEE08FF08F7FE12C08DE20E9410
:100700009400EC0166277727CB016C197D098E09CF
:100710009F094AE00E942C037C01EC0EFD1E06C0DE
:100720004AE0C701B6010E942C037C018CE191E0F4
:100730000E940C038E0D9F1DDF91CF91FF90EF90D3
:10074000DF90CF9008954F925F926F927F928F9239
:100750009F92AF92BF92CF92DF92EF92FF926B0186
:100760007C019B01AC010E94680E882319F08FE187
:1007700091E01AC046015701E894B7F82FEF3FEF18
:100780004FE75FE7C501B4010E94680E811110C0F8
:100790002FEF3FEF4FE75FE7C501B4010E94020C66
:1007A000181634F483E291E00E940C037C017FC0B0
:1007B0002FEF3FEF4FE75FE4C701B6010E94630EE2
:1007C00018161CF487E291E0EFCF2FEF3FEF4FE7D1
:1007D0005FECC701B6010E94020C87FDF3CF20E059
:1007E00030E0A901C701B6010E94020C87FF09C0D1
:1007F0008DE20E9494005C01F7FAF094F7F8F0940F
:1008000002C0A12CB12C2AE037ED43EA5BE3C7011B
:10081000B6010E94C10D2B013C010E94340E6B01F8
:100820007C010E94070C9B01AC01C301B2010E9434
:10083000C00D2B013C014AE0C701B6010E942C0308
:100840007C01EA0CFB1C8EE20E949400E80EF91E6B
:1008500020E030E040E251E4C301B2010E94680CA4
:100860002B013C010E94340E4B01A12CB12C4AE01B
:10087000C501B4010E942C03E80EF91EC501B401A4
:100880000E94070C9B01AC01C301B2010E94C00D84
:1008900020E030E040E251E40E94680C0E94340EF7
:1008A00080E090E04AE00E942C03E80EF91E8CE103
:1008B00091E00E940C038E0D9F1DFF90EF90DF9042
:1008C000CF90BF90AF909F908F907F906F905F90F0
:1008D0004F9008958F929F92AF92BF92CF92DF92E6
:1008E000EF92FF921F93CF93DF9387E00E94D20194
:1008F00011E0892B09F010E0C12FD0E08091E001D8
:100900009091E101C817D90751F00E9467026093E6
:10091000DC017093DD018093DE019093DF010E9482
:100920006702C090DC01D090DD01E090DE01F09024
:10093000DF01DC01CB018C199D09AE09BF09809054
:10094000000190900101A0900201B090030188166F
:100950009906AA06BB0608F042C080911302909146
:100960001402C817D907D9F1D0931402C093130207
:10097000612F8BE00E94FB01C130D10581F5C0924F
:100980000102D0920202E0920302F09204028091EE
:1009900005018F93809104018F938BE291E09F93E7
:1009A0008F9385E192E09F938F930E94780E85E16B
:1009B00092E00E946D0360910102709102028091A9
:1009C0000302909104020E946F0381E391E00E9470
:1009D0001E030F900F900F900F900F900F90D093D9
:1009E000E101C093E001DF91CF911F91FF90EF9063
:1009F000DF90CF90BF90AF909F908F9008950E940E
:100A0000730E1F920F920FB60F9211242F933F93E4
:100A10004F935F936F937F938F939F93AF93BF9306
:100A2000EF93FF9385E292E00E941501FF91EF9111
:100A3000BF91AF919F918F917F916F915F914F91F6
:100A40003F912F910F900FBE0F901F9018951F92FE
:100A50000F920FB60F9211242F938F939F93EF93C2
:100A6000FF93E0913502F09136028081E0913B02E4
:100A7000F0913C0282FD12C0908180913E028F5F16
:100A80008F7320913F02821751F0E0913E02F0E017
:100A9000EB5DFD4F958F80933E0201C08081FF91F9
:100AA000EF919F918F912F910F900FBE0F901F90FC
:100AB00018951F920F920FB60F9211242F933F9308
:100AC0008F939F93AF93BF938091E3019091E40143
:100AD000A091E501B091E6013091E20123E0230FFE
:100AE0002D3720F40196A11DB11D05C026E8230F66
:100AF0000296A11DB11D2093E2018093E301909322
:100B0000E401A093E501B093E6018091E7019091A3
:100B1000E801A091E901B091EA010196A11DB11D82
:100B20008093E7019093E801A093E901B093EA0173
:100B3000BF91AF919F918F913F912F910F900FBED9
:100B40000F901F901895CF93DF93CDB7DEB76C97BA
:100B50000FB6F894DEBF0FBECDBF789484B5826027
:100B600084BD84B5816084BD85B5826085BD85B551
:100B7000816085BD80916E00816080936E001092CF
:100B8000810080918100826080938100809181004A
:100B900081608093810080918000816080938000DB
:100BA0008091B10084608093B1008091B000816039
:100BB0008093B00080917A00846080937A00809165
:100BC0007A00826080937A0080917A0081608093BD
:100BD0007A0080917A00806880937A001092C10038
:100BE00060E087E00E942B0260E085E00E942B021B
:100BF00061E089E00E942B0261E08BE00E942B0201
:100C000061E08CE00E942B0260E089E00E94FB0121
:100C1000E0913502F091360282E08083E09131026A
:100C2000F09132021082E0913302F091340287E6B3
:100C3000808310923D02E0913902F0913A0286E001
:100C40008083E0913702F091380280818061808357
:100C5000E0913702F0913802808188608083E091D2
:100C60003702F0913802808180688083E0913702FA
:100C7000F091380280818F7D808385E292E00E942E
:100C8000DD0085E292E00E94FF0018161906CCF7FD
:100C90000091EB011091EC010E94D202FC0197FD42
:100CA00017C08D32910509F4AFC4C0970A9708F4B4
:100CB000ABC4EE32F10509F4A7C4E0912502F0912E
:100CC00026020284F385E02D85E292E00995E4CFC7
:100CD00060E070E0CB01000F111F000F111FE1E079
:100CE000F0E0EC0FFD1FE00FF11F60837183828342
:100CF00093838091EB019091EC0101969093EC012C
:100D00008093EB0105970CF4BCCF29813A814B818C
:100D10005C8120930F023093100240931102509394
:100D200012024D805E806F8078844092090250925A
:100D30000A0260920B0270920C0289849A84AB843E
:100D4000BC848092FB019092FC01A092FD01B092C4
:100D5000FE018D859E85AF85B8898D8B9E8BAF8B6F
:100D6000B88F8093F1019093F201A093F301B093B7
:100D7000F401C988DA88EB88FC88C701B601298F9D
:100D80003A8F4B8F5C8F0E94340E609300017093FA
:100D90000101809302019093030187E391E00E9497
:100DA0006D03298D3A8D4B8D5C8DCA01B9010E946E
:100DB000A30381E491E00E946D03C301B2010E948C
:100DC000A3038AE491E00E946D03C501B4010E946F
:100DD000A30383E591E00E946D036D897E898F896D
:100DE000988D0E94A3038BE591E00E946D03C701DB
:100DF000B6010E94A303809105018F9380910401A5
:100E00008F938BE291E09F938F9385E192E09F9384
:100E10008F930E94780E85E192E00E946D030E94FC
:100E200067020E946F0385E691E00E946D03809146
:100E30000401909105010E94720380E480937C007C
:100E400080917A00806480937A000F900F900F90C9
:100E50000F900F900F9080917A0086FDFCCF6091EB
:100E600078008091790070E0782B072E000C880BB9
:100E7000990B611571058105910511F00E94F90B1F
:100E800085E292E00E94DD0007E010E0EE24E394AA
:100E9000F12C23E0222E312C32E0C32ED12C0E94E3
:100EA0006A048090230290902402092C000CAA0866
:100EB000BB08B7FE0CC08DE20E949400662777271E
:100EC000CB01681979098A099B094AE003C04AE005
:100ED000C501B4010E942C0380912102909122024D
:100EE0000E947203E0912302F0912402E830F105A0
:100EF00008F087C3EC5CFF4F0C946D0E85E292E026
:100F00000E94FF00181619060CF07BC385E292E0E0
:100F10000E94DD009093200280931F020E946702CE
:100F200060931B0270931C0280931D0290931E021B
:100F300085E192E00E946D0360911B0270911C029A
:100F400080911D0290911E020E946F038CE691E039
:100F50000E946D0380911F02909120020E947203F3
:100F6000F0922402E09223024CC30E94C6024B017D
:100F70005C0184189508A608B70820E030E04AE72D
:100F800054E460910F0270911002809111029091CF
:100F900012020E94680C0E942D0E86169706A80663
:100FA000B90668F40E946A048091130290911402B9
:100FB0000197D9F60E94C6022B013C01D6CF0E94B0
:100FC000670260931B0270931C0280931D02909332
:100FD0001E0285E192E00E946D0360911B027091F8
:100FE0001C0280911D0290911E020E946F0380E7F7
:100FF00091E00E941E03D0922402C092230201C3FA
:1010000085E00E94D20190930E0280930D02019719
:1010100009F0F7C20E94670260931B0270931C02E2
:1010200080931D0290931E0285E192E00E946D0361
:1010300060911B0270911C0280911D0290911E0212
:101040000E946F0385E791E00E941E036AE070E052
:1010500080E090E00E948C023092240220922302D1
:10106000D0C285E00E94D2015C0190930E02809371
:101070000D0291E0A916B10409F0C3C20E946702F3
:101080002B013C0160931B0270931C0280931D0294
:1010900090931E0220E034E244E759E46091090293
:1010A00070910A0280910B0290910C020E94680CD0
:1010B0000E94340E460E571E681E791E409205028D
:1010C00050920602609207027092080285E192E057
:1010D0000E946D0360911B0270911C0280911D02A1
:1010E00090911E020E946F038DE791E00E941E0303
:1010F0001092010210920202109203021092040256
:10110000B0922202A0922102A4E0B0E0B0932402A7
:10111000A093230276C28091010290910202A091D5
:101120000302B09104020097A105B10569F1409155
:10113000050250910602609107027091080284171F
:101140009507A607B70700F540911B0250911C02B6
:1011500060911D0270911E02481759076A077B07AC
:1011600098F480911F0290912002C19739F485E094
:1011700090E0909324028093230206C0A6E0B0E0A2
:10118000B0932402A09323020E946702809005027C
:1011900090900602A0900702B0900802861697066B
:1011A000A806B90608F02DC285E192E00E946D0301
:1011B0000E9467020E946F0385E891E00E941E036F
:1011C000109222021092210280911F02909120021F
:1011D000C19759F485E192E00E946D030E94670275
:1011E0000E946F038EE891E00AC085E192E00E94C0
:1011F0006D030E9467020E946F0384E991E00E94E0
:101200001E03A2C080912102909122020197F9F45D
:101210000E9467028090050290900602A09007024B
:10122000B090080286169706A806B90680F485E1F4
:1012300092E00E946D030E9467020E946F0385E89E
:1012400091E00E941E0310922202109221028091CE
:10125000FF0190910002892B09F04EC061E089E006
:101260000E94FB0161E08CE00E94FB010E9467028A
:1012700060931B0270931C0280931D0290931E02C8
:1012800085E192E00E946D0360911B0270911C0247
:1012900080911D0290911E020E946F0383EA91E0EB
:1012A0000E941E0320E034E244E759E46091FB0110
:1012B0007091FC018091FD019091FE010E94680CEB
:1012C0000E94340E80901B0290901C02A0901D0280
:1012D000B0901E02DC01CB01880D991DAA1DBB1D1B
:1012E0008093F7019093F801A093F901B093FA016C
:1012F000F0920002E092FF010E9467028090F701E5
:101300009090F801A090F901B090FA018616970626
:10131000A806B90608F075C160E089E00E94FB01EB
:1013200060E08CE00E94FB0185E192E00E946D0389
:101330000E9467020E946F038DEA91E00E941E03E3
:10134000109200021092FF011093240200932302D6
:1013500058C180912102909122020197F9F40E94D4
:1013600067028090050290900602A0900702B0905C
:10137000080286169706A806B90680F485E192E071
:101380000E946D030E9467020E946F0385E891E04E
:101390000E941E0310922202109221028091F501F8
:1013A0009091F601892BF1F50E9467024B015C01D7
:1013B00060931B0270931C0280931D0290931E0287
:1013C00020E034E244E759E46091F1017091F201C8
:1013D0008091F3019091F4010E94680C0E94340EF8
:1013E000860E971EA81EB91E8092ED019092EE0106
:1013F000A092EF01B092F00185E192E00E946D03AE
:1014000060911B0270911C0280911D0290911E023E
:101410000E946F0388EB91E00E941E03F092F60198
:10142000E092F5018091F5019091F601019709F0A4
:10143000E8C0409101025091020260910302709154
:10144000040280911B0290911C02A0911D02B09198
:101450001E0284179507A607B707D0F50E946702FA
:101460004B015C0160931B0270931C0280931D0270
:1014700090931E0220E034E244E759E46091F101C8
:101480007091F2018091F3019091F4010E94680C37
:101490000E94340E860E971EA81EB91E8092ED0182
:1014A0009092EE01A092EF01B092F00185E192E0FE
:1014B0000E946D0360911B0270911C0280911D02BD
:1014C00090911E020E946F0388EB91E00E941E0320
:1014D0000E9467028090ED019090EE01A090EF01D4
:1014E000B090F001681579058A059B0508F489C05C
:1014F00085E192E00E946D030E9467020E946F03E3
:1015000081EC91E07CCE80912102909122020197A2
:1015100019F588EC91E00E941E030E9467028090FA
:10152000050290900602A0900702B090080286166D
:101530009706A806B90680F485E192E00E946D0343
:101540000E9467020E946F0385E891E00E941E03DB
:101550001092220210922102809121029091220287
:10156000892B09F04EC064E670E080E090E00E94B4
:101570008C0285E192E00E946D030E9467020E9446
:101580006F0386ED91E00E941E038091040190910B
:101590000501019690930501809304019F938F9319
:1015A000ABE2B1E0BF93AF9385E192E09F938F935D
:1015B0000E94780E85E192E00E946D030E9467020E
:1015C0000E946F0385E691E00E946D038091040103
:1015D000909105010E94720385E292E00E94FF0053
:1015E0000F900F900F900F900F900F9018161906F4
:1015F00024F485E292E00E94DD0010922402109211
:1016000023020E949F014BCC412C512C80E8682E74
:101610008FE3782EC12CD12C7601B12CA12CE13096
:10162000F10579F1ED32F10539F1EE32F10539F1DB
:10163000CF01C0970A9728F5AAE0B0E0A70196016C
:101640000E94450D6F01FF0FEE08FF08C60ED71E62
:10165000E81EF91E80E3C81AD108E108F108BB2092
:1016600081F02DEC3CEC4CEC5DE3C301B2010E9437
:10167000680C2B013C0105C0AA24A39402C0BB2422
:10168000B394E0912502F09126020284F385E02DC7
:1016900085E292E009950E94D202FC01C0970A9768
:1016A00008F4BDCFEE32F10519F4B1101FC0B7CF69
:1016B000E130F10509F4B3CFAA2041F0F094E094B1
:1016C000D094C094C11CD11CE11CF11CBB2049F07A
:1016D000C701B6010E94090CA30192010E94680C87
:1016E000FACAC701B6010E94090CF5CAA110E6CFDB
:1016F000EFCFE5E2F2E01382128288EE93E0A0E001
:10170000B0E084839583A683B7838EE091E09183D4
:10171000808385EC90E09587848784EC90E09787C0
:10172000868780EC90E0918B808B81EC90E0938BAE
:10173000828B82EC90E0958B848B86EC90E0978B8B
:10174000868B118E128E138E148E08958F929F9217
:10175000AF92BF92CF92DF92EF92FF92CF93DF933F
:10176000EC01688179818A819B8161157105810510
:10177000910521F464E279ED8BE597E02DE133EFFB
:1017800041E050E00E94260D49015A019B01AC0145
:10179000A7EAB1E40E94450D6B017C01ACEEB4EF09
:1017A000A50194010E94530DDC01CB018C0D9D1D00
:1017B000AE1DBF1DB7FF03C00197A109B0488883C4
:1017C0009983AA83BB83BC01CD019F77DF91CF9121
:1017D000FF90EF90DF90CF90BF90AF909F908F9051
:1017E00008950E94A60B089586E091E00E94A60B42
:1017F0000895609306017093070180930801909308
:10180000090108950E94440C08F481E00895E894C9
:1018100009C097FB3EF490958095709561957F4F38
:101820008F4F9F4F9923A9F0F92F96E9BB279395E6
:10183000F695879577956795B795F111F8CFFAF4F6
:10184000BB0F11F460FF1BC06F5F7F4F8F4F9F4F27
:1018500016C0882311F096E911C0772321F09EE885
:10186000872F762F05C0662371F096E8862F70E0EB
:1018700060E02AF09A95660F771F881FDAF7880FC5
:101880009695879597F90895990F0008550FAA0B1B
:10189000E0E8FEEF16161706E807F907C0F0121683
:1018A0001306E407F50798F0621B730B840B950B86
:1018B00039F40A2661F0232B242B252B21F40895DB
:1018C0000A2609F4A140A6958FEF811D811D089578
:1018D0000E947B0C0C94EC0C0E94DE0C38F00E94F1
:1018E000E50C20F0952311F00C94D50C0C94DB0C36
:1018F00011240C94200D0E94FD0C70F3959FC1F3F0
:10190000950F50E0551F629FF001729FBB27F00DAD
:10191000B11D639FAA27F00DB11DAA1F649F662702
:10192000B00DA11D661F829F2227B00DA11D621F51
:10193000739FB00DA11D621F839FA00D611D221F0B
:10194000749F3327A00D611D231F849F600D211DEF
:10195000822F762F6A2F11249F5750409AF0F1F072
:1019600088234AF0EE0FFF1FBB1F661F771F881FDB
:1019700091505040A9F79E3F510580F00C94D50C32
:101980000C94200D5F3FE4F3983ED4F38695779551
:101990006795B795F795E7959F5FC1F7FE2B880F81
:1019A000911D9695879597F9089597F99F6780E817
:1019B00070E060E008959FEF80EC089500240A94A1
:1019C0001616170618060906089500240A9412161A
:1019D0001306140605060895092E0394000C11F44D
:1019E000882352F0BB0F40F4BF2B11F460FF04C0FA
:1019F0006F5F7F4F8F4F9F4F089557FD9058440F53
:101A0000551F59F05F3F71F04795880F97FB991F5D
:101A100061F09F3F79F0879508951216130614061A
:101A2000551FF2CF4695F1DF08C0161617061806A7
:101A3000991FF1CF86957105610508940895E89482
:101A4000BB2766277727CB0197F90895052E97FBCB
:101A50001EF400940E943D0D57FD07D00E948F0D8B
:101A600007FC03D04EF40C943D0D509540953095F5
:101A700021953F4F4F4F5F4F0895909580957095FA
:101A800061957F4F8F4F9F4F08950E94B10DA59F85
:101A9000900DB49F900DA49F800D911D1124089569
:101AA000B7FF0C94450D0E94450D821B930B0895C2
:101AB0002F923F924F925F926F927F928F929F925E
:101AC000AF92BF92CF92DF92EF92FF920F931F934C
:101AD000CF93DF93CDB7DEB7CA1BDB0B0FB6F894FD
:101AE000DEBF0FBECDBF09942A88398848885F843D
:101AF0006E847D848C849B84AA84B984C884DF80AE
:101B0000EE80FD800C811B81AA81B981CE0FD11D91
:101B10000FB6F894DEBF0FBECDBFED010895A1E270
:101B20001A2EAA1BBB1BFD010DC0AA1FBB1FEE1F57
:101B3000FF1FA217B307E407F50720F0A21BB30BA2
:101B4000E40BF50B661F771F881F991F1A9469F71E
:101B500060957095809590959B01AC01BD01CF017A
:101B60000895A29FB001B39FC001A39F700D811D76
:101B70001124911DB29F700D811D1124911D089596
:101B80005058BB27AA270E94D80D0C94EC0C0E9439
:101B9000DE0C38F00E94E50C20F039F49F3F19F478
:101BA00026F40C94DB0C0EF4E095E7FB0C94D50CBA
:101BB000E92F0E94FD0C58F3BA17620773078407D8
:101BC000950720F079F4A6F50C941F0D0EF4E0951E
:101BD0000B2EBA2FA02D0B01B90190010C01CA01E7
:101BE000A0011124FF27591B99F0593F50F4503E92
:101BF00068F11A16F040A22F232F342F4427585F84
:101C0000F3CF469537952795A795F0405395C9F79B
:101C10007EF41F16BA0B620B730B840BBAF0915053
:101C2000A1F0FF0FBB1F661F771F881FC2F70EC0F2
:101C3000BA0F621F731F841F48F4879577956795C5
:101C4000B795F7959E3F08F0B0CF9395880F08F0B1
:101C50009927EE0F9795879508950E94340E689402
:101C6000B1110C94200D08950E94050D88F09F5726
:101C700098F0B92F9927B751B0F0E1F0660F771FB0
:101C8000881F991F1AF0BA95C9F714C0B13091F0A6
:101C90000E941F0DB1E008950C941F0D672F782F3F
:101CA0008827B85F39F0B93FCCF38695779567956B
:101CB000B395D9F73EF490958095709561957F4FD7
:101CC0008F4F9F4F08950E94440C08F48FEF0895A2
:101CD0000E94440C880B990B0895EE0FFF1F05908E
:101CE000F491E02D099481E090E0F8940C9419119E
:101CF000AEE0B0E0EEE7FEE00C94660D0D891E89C3
:101D000086E08C831A8309838FEF9FE79E838D8300
:101D1000AE01475E5F4F6F89788DCE0101960E94BC
:101D20009B0E2F813885F801E20FF31F10822E964B
:101D3000E4E00C94820DACE0B0E0E1EAFEE00C944B
:101D4000580D7C016B018A01FC0117821682838188
:101D500081FFBDC1CE0101964C01F7019381F601CF
:101D600093FD859193FF81916F01882309F4ABC1A5
:101D7000853239F493FD859193FF81916F0185320E
:101D800029F4B70190E00E948310E7CF512C312C49
:101D900020E02032A0F48B3269F030F4803259F028
:101DA000833269F420612CC08D3239F0803339F4EC
:101DB000216026C02260246023C0286021C027FD46
:101DC00027C030ED380F3A3078F426FF06C0FAE02D
:101DD0005F9E300D1124532E13C08AE0389E300DC3
:101DE0001124332E20620CC08E3221F426FD6BC1EB
:101DF000206406C08C3611F4206802C0883641F495
:101E0000F60193FD859193FF81916F018111C1CFFF
:101E1000982F9F7D9554933028F40C5F1F4FFFE35C
:101E2000F9830DC0833631F0833771F0833509F0C3
:101E30005BC022C0F801808189830E5F1F4F44245C
:101E40004394512C540115C03801F2E06F0E711CFF
:101E5000F801A080B18026FF03C0652D70E002C0AC
:101E60006FEF7FEFC5012C870E9478102C01830152
:101E70002C852F77222E17C03801F2E06F0E711CCF
:101E8000F801A080B18026FF03C0652D70E002C07C
:101E90006FEF7FEFC5012C870E946D102C012C8500
:101EA0002068222E830123FC1BC0832D90E048165E
:101EB0005906B0F4B70180E290E00E9483103A9492
:101EC000F4CFF50127FC859127FE81915F01B701D1
:101ED00090E00E94831031103A94F1E04F1A5108BB
:101EE0004114510471F7E5C0843611F0893639F593
:101EF000F80127FF07C060817181828193810C5FA7
:101F00001F4F08C060817181072E000C880B990B50
:101F10000E5F1F4F2F76722E97FF09C09095809508
:101F2000709561957F4F8F4F9F4F2068722E2AE0EA
:101F300030E0A4010E94BB10A82EA81844C0853729
:101F400029F42F7EB22E2AE030E025C0F22FF97F4F
:101F5000BF2E8F36C1F018F4883579F0B4C08037C1
:101F600019F0883721F0AFC02F2F2061B22EB4FEB8
:101F70000DC08B2D8460B82E09C024FF0AC09F2F8E
:101F80009660B92E06C028E030E005C020E130E0C0
:101F900002C020E132E0F801B7FE07C06081718124
:101FA000828193810C5F1F4F06C06081718180E048
:101FB00090E00E5F1F4FA4010E94BB10A82EA8182E
:101FC000FB2DFF777F2E76FE0BC0372D3E7FA514AD
:101FD00050F474FE0AC072FC08C0372D3E7E05C066
:101FE000BA2C372D03C0BA2C01C0B52C34FF0DC05C
:101FF000FE01EA0DF11D8081803311F4397E09C0A4
:1020000032FF06C0B394B39404C0832F867809F0DE
:10201000B39433FD13C030FF06C05A2CB31418F428
:10202000530C5B18B32CB31468F4B70180E290E052
:102030003C870E948310B3943C85F5CFB31410F411
:102040003B1801C0312C34FF12C0B70180E390E08F
:102050003C870E9483103C8532FF17C031FD03C0CE
:1020600088E790E002C088E590E0B7010CC0832FBC
:10207000867859F031FF02C08BE201C080E237FD63
:102080008DE2B70190E00E948310A51438F4B701E7
:1020900080E390E00E9483105A94F7CFAA94F40151
:1020A000EA0DF11D8081B70190E00E948310A1101C
:1020B000F5CF332009F451CEB70180E290E00E94C1
:1020C00083103A94F6CFF7018681978102C08FEF93
:1020D0009FEF2C96E2E10C94740DFC010590615089
:1020E00070400110D8F7809590958E0F9F1F08952E
:1020F000FC016150704001900110D8F780959095D7
:102100008E0F9F1F08950F931F93CF93DF93FB01B3
:10211000238121FD03C08FEF9FEF28C022FF16C04F
:1021200046815781248135814217530744F4A081A9
:10213000B1819D012F5F3F4F318320838C93268196
:1021400037812F5F3F4F3783268310C0EB01092F64
:10215000182F0084F185E02D0995892BE1F68E81F9
:102160009F8101969F838E83812F902FDF91CF9146
:102170001F910F910895FA01AA27283051F12031BB
:1021800081F1E8946F936E7F6E5F7F4F8F4F9F4F0B
:10219000AF4FB1E03ED0B4E03CD0670F781F891F4D
:1021A0009A1FA11D680F791F8A1F911DA11D6A0F1B
:1021B000711D811D911DA11D20D009F468943F91CE
:1021C0002AE0269F11243019305D3193DEF6CF01CD
:1021D0000895462F4770405D4193B3E00FD0C9F793
:1021E000F6CF462F4F70405D4A3318F0495D31FD00
:1021F0004052419302D0A9F7EACFB4E0A695979553
:10220000879577956795BA95C9F700976105710528
:1022100008959B01AC010A2E069457954795379572
:102220002795BA95C9F7620F731F841F951FA01DCC
:062230000895F894FFCFB1
:10223600204E0000010001000000000000003601F1
:102246009F00CE007D01FF00DD00F1000D0A006E4B
:10225600616E00696E66006F766600253034642014
:1022660000204C49434B00484F4C4454494D4520AF
:10227600005245535057494E200052455754494D38
:10228600452000544F54494D4520004445424F5582
:102296004E4345200020545249414C0020545400DE
:1022A60020544F4E00205354494D4F4E0020524566
:1022B60053504F4E0020524553504F464600204D36
:1022C6004953530020434F525245435452454A45C1
:1022D600435400205245574152444F4E0020524528
:1022E600574152444F46460020544F53544152548E
:1022F6000020544F454E440057494E5354415445CF
:0C23060020484947480020544F4646003C
:00000001FF
