:100000000C946B000C9493000C9493000C9493004C
:100010000C9493000C9493000C9493000C94930014
:100020000C9493000C9493000C9493000C94930004
:100030000C9493000C9493000C9493000C949300F4
:100040000C9420050C9493000C94EE040C94C804BA
:100050000C9493000C9493000C9493000C949300D4
:100060000C9493000C9493003E079A07C0070F0866
:100070006608C0083509D809BC0A00000000240041
:1000800027002A0000000000250028002B000000A7
:1000900000002300260029000404040404040404CE
:1000A0000202020202020303030303030102040823
:1000B00010204080010204081020010204081020D2
:1000C0000000000800020100000304070000000017
:1000D00000000000A80B11241FBECFEFD8E0DEBF48
:1000E000CDBF11E0A0E0B1E0E4E9F2E202C005908A
:1000F0000D92A23EB107D9F722E0A2EEB1E001C015
:100100001D92AC3CB207E1F710E0CBE6D0E004C0B2
:100110002197FE010E949C0ECA36D107C9F70E94A2
:100120006A050C9448110C940000E0912F02F091A4
:1001300030020190F081E02D682F8FE292E0099467
:10014000CF92DF92EF92FF920F931F93CF93DF93A3
:100150006C017A018B01C0E0D0E0CE15DF0589F09B
:10016000D8016D918D01D601ED91FC910190F08146
:10017000E02DC6010995892B11F47E0102C021965C
:10018000ECCFC701DF91CF911F910F91FF90EF90BE
:10019000DF90CF900895089580E090E00895FC01ED
:1001A000538D448D252F30E0842F90E0821B930BDC
:1001B000541710F0CF96089501970895FC01918D82
:1001C000828D981761F0828DDF01A80FB11D5D96B9
:1001D0008C91928D9F5F9F73928F90E008958FEF27
:1001E0009FEF0895FC01918D828D981731F0828DDB
:1001F000E80FF11D858D90E008958FEF9FEF089532
:10020000FC01918D228D892F90E0805C9F4F821B95
:1002100091098F73992708958FE292E00E9400015F
:1002200021E0892B09F420E0822F0895FC01848DC0
:10023000DF01A80FB11DA35ABF4F2C91848D90E010
:1002400001968F739927848FA689B7892C93A089EB
:10025000B1898C9180648C93938D848D981306C0A2
:100260000288F389E02D80818F7D80830895EF924D
:10027000FF920F931F93CF93DF93EC0181E0888F60
:100280009B8D8C8D981305C0E889F989808185FD47
:1002900024C0F62E0B8D10E00F5F1F4F0F73112738
:1002A000E02E8C8DE8120CC00FB607FCFACFE8895F
:1002B000F989808185FFF5CFCE010E941601F1CF2B
:1002C0008B8DFE01E80FF11DE35AFF4FF0820B8F7B
:1002D000EA89FB898081806207C0EE89FF8960839B
:1002E000E889F98980818064808381E090E0DF91F2
:1002F000CF911F910F91FF90EF900895CF93DF93CF
:10030000EC01888D8823C9F0EA89FB89808185FD0D
:1003100005C0A889B9898C9186FD0FC00FB607FC6E
:10032000F5CF808185FFF2CFA889B9898C9185FFAF
:10033000EDCFCE010E941601E7CFDF91CF91089556
:1003400080E090E0892B29F00E940C0181110C942F
:1003500000000895833081F028F4813099F08230D4
:10036000A1F008958730A9F08830B9F08430D1F435
:10037000809180008F7D03C0809180008F77809373
:100380008000089584B58F7702C084B58F7D84BDC9
:1003900008958091B0008F7703C08091B0008F7D69
:1003A0008093B0000895CF93DF93282F30E0F901B8
:1003B000E054FF4F8491F901E455FF4FD491F901C6
:1003C000E856FF4FC491CC2391F081110E94AA01FD
:1003D000EC2FF0E0EE0FFF1FE257FF4FA591B49115
:1003E000EC91ED2381E090E021F480E002C080E018
:1003F00090E0DF91CF9108951F93CF93DF93282F43
:1004000030E0F901E054FF4F8491F901E455FF4FCA
:10041000D491F901E856FF4FC491CC23C9F0162FAF
:1004200081110E94AA01EC2FF0E0EE0FFF1FEC57A4
:10043000FF4FA591B4918FB7F894111105C09C910D
:10044000ED2FE095E92302C0EC91ED2BEC938FBFEB
:10045000DF91CF911F910895CF93DF9390E0FC013E
:10046000E455FF4F2491FC01E856FF4F8491882307
:1004700061F190E0880F991FFC01E658FF4FC5918C
:10048000D491FC01EC57FF4FA591B491611109C0C3
:100490009FB7F8948881209582238883EC912E233E
:1004A0000BC0623061F49FB7F8943881822F809539
:1004B00083238883EC912E2B2C939FBF06C08FB78C
:1004C000F894E8812E2B28838FBFDF91CF91089578
:1004D0003FB7F8948091ED019091EE01A091EF016A
:1004E000B091F00126B5A89B05C02F3F19F00196E9
:1004F000A11DB11D3FBFBA2FA92F982F8827820FAA
:10050000911DA11DB11DBC01CD0142E0660F771FF9
:10051000881F991F4A95D1F708952FB7F8946091D5
:10052000E9017091EA018091EB019091EC012FBFFC
:1005300008950F931F930E948D026093370270936A
:1005400038028093390290933A02E0912F02F091A1
:1005500030020484F585E02D8FE292E0099597FF43
:100560001FC00E948D020091370210913802209125
:10057000390230913A02DC01CB01801B910BA20BB6
:10058000B30B009133021091340220913502309167
:10059000360280179107A207B307B8F28FEF9FEFDB
:1005A0001F910F910895009769F0FC0101900020C0
:1005B000E9F73197AF01481B590BBC018FE292E07C
:1005C0000C94A00080E090E00895CF93DF930E9408
:1005D000D302EC018CE191E00E94D3028C0F9D1FAD
:1005E000DF91CF9108958F929F92AF92BF920F9318
:1005F0001F93CF93DF93CDB7DEB7A1970FB6F894D3
:10060000DEBF0FBECDBF19A2423008F44AE08E0112
:100610000F5D1F4F842E912CA12CB12CA5019401AC
:100620000E94BE0DE62FB901CA0101501109EA303E
:1006300014F4E05D01C0E95CD801EC93232B242B7A
:10064000252B61F7C8010E94D302A1960FB6F8943A
:10065000DEBF0FBECDBFDF91CF911F910F91BF9035
:10066000AF909F908F9008950C94D3024AE00C9421
:10067000F302CF92DF92EF92FF92CF93DF936C0160
:10068000990FEE08FF08F7FE12C08DE20E94950058
:10069000EC0166277727CB016C197D098E099F092C
:1006A0004AE00E94F3027C01EC0EFD1E06C04AE007
:1006B000C701B6010E94F3027C018CE191E00E9427
:1006C000D3028E0D9F1DDF91CF91FF90EF90DF90B1
:1006D000CF9008954F925F926F927F928F929F92E8
:1006E000AF92BF92CF92DF92EF92FF926B017C01AB
:1006F0009B01AC010E94970E882319F08FE191E0D5
:100700001AC046015701E894B7F82FEF3FEF4FE7C3
:100710005FE7C501B4010E94970E811110C02FEF51
:100720003FEF4FE75FE7C501B4010E94310C181697
:1007300034F483E291E00E94D3027C017FC02FEF6A
:100740003FEF4FE75FE4C701B6010E94920E181613
:100750001CF487E291E0EFCF2FEF3FEF4FE75FEC24
:10076000C701B6010E94310C87FDF3CF20E030E0D5
:10077000A901C701B6010E94310C87FF09C08DE2B3
:100780000E9495005C01F7FAF094F7F8F09402C02B
:10079000A12CB12C2AE037ED43EA5BE3C701B60197
:1007A0000E94F00D2B013C010E94630E6B017C0145
:1007B0000E94360C9B01AC01C301B2010E94EF0DF7
:1007C0002B013C014AE0C701B6010E94F3027C0103
:1007D000EA0CFB1C8EE20E949500E80EF91E20E058
:1007E00030E040E251E4C301B2010E94970C2B01BA
:1007F0003C010E94630E4B01A12CB12C4AE0C501C3
:10080000B4010E94F302E80EF91EC501B4010E9472
:10081000360C9B01AC01C301B2010E94EF0D20E038
:1008200030E040E251E40E94970C0E94630E80E0A9
:1008300090E04AE00E94F302E80EF91E8CE191E09C
:100840000E94D3028E0D9F1DFF90EF90DF90CF90FE
:10085000BF90AF909F908F907F906F905F904F90E0
:1008600008958F929F92AF92BF92CF92DF92EF92B4
:10087000FF921F93CF93DF9387E00E94D30111E093
:10088000892B09F010E0C12FD0E08091E601909112
:10089000E701C817D90751F00E9468026093E2018E
:1008A0007093E3018093E4019093E5010E94680254
:1008B000C090E201D090E301E090E401F090E50106
:1008C000DC01CB018C199D09AE09BF0980900001A4
:1008D00090900101A0900201B09003018816990642
:1008E000AA06BB0608F042C080911F029091200228
:1008F000C817D907D9F1D0932002C0931F02612FE6
:100900008BE00E94FC01C130D10581F5C092090243
:10091000D0920A02E0920B02F0920C028091050143
:100920008F93809104018F938BE291E09F938F933B
:1009300081E292E09F938F930E94A70E81E292E062
:100940000E9434036091090270910A0280910B02A7
:1009500090910C020E94360381E391E00E94E5022F
:100960000F900F900F900F900F900F90D093E70182
:10097000C093E601DF91CF911F91FF90EF90DF9040
:10098000CF90BF90AF909F908F9008950E94A20E3D
:100990001F920F920FB60F9211242F933F934F93F4
:1009A0005F936F937F938F939F93AF93BF93EF93D7
:1009B000FF938FE292E00E941601FF91EF91BF91A9
:1009C000AF919F918F917F916F915F914F913F91E7
:1009D0002F910F900FBE0F901F9018951F920F929E
:1009E0000FB60F9211242F938F939F93EF93FF9342
:1009F000E0913F02F09140028081E0914502F09148
:100A0000460282FD12C09081809148028F5F8F73F1
:100A100020914902821751F0E0914802F0E0E15D37
:100A2000FD4F958F8093480201C08081FF91EF9127
:100A30009F918F912F910F900FBE0F901F9018953F
:100A40001F920F920FB60F9211242F933F938F9303
:100A50009F93AF93BF938091E9019091EA01A09198
:100A6000EB01B091EC013091E80123E0230F2D3729
:100A700020F40196A11DB11D05C026E8230F0296A2
:100A8000A11DB11D2093E8018093E9019093EA0133
:100A9000A093EB01B093EC018091ED019091EE01F8
:100AA000A091EF01B091F0010196A11DB11D8093BD
:100AB000ED019093EE01A093EF01B093F001BF918F
:100AC000AF919F918F913F912F910F900FBE0F90FB
:100AD0001F901895CF93DF93CDB7DEB7A4970FB6CD
:100AE000F894DEBF0FBECDBF789484B5826084BD1C
:100AF00084B5816084BD85B5826085BD85B5816022
:100B000085BD80916E00816080936E00109281009F
:100B1000809181008260809381008091810081605A
:100B2000809381008091800081608093800080911B
:100B3000B10084608093B1008091B00081608093A7
:100B4000B00080917A00846080937A0080917A006E
:100B5000826080937A0080917A00816080937A002D
:100B600080917A00806880937A001092C10060E0E2
:100B700087E00E942C0260E085E00E942C0261E088
:100B800089E00E942C0261E08BE00E942C0261E06F
:100B90008CE00E942C0260E089E00E94FC01E09160
:100BA0003F02F091400282E08083E0913B02F091AD
:100BB0003C021082E0913D02F0913E0287E6808384
:100BC00010924702E0914302F091440286E0808354
:100BD000E0914102F0914202808180618083E09146
:100BE0004102F0914202808188608083E09141025D
:100BF000F0914202808180688083E0914102F0910F
:100C0000420280818F7D80838FE292E00E94DE002D
:100C10008FE292E00E94000118161906CCF70091AD
:100C2000F1011091F2010E949902FC0197FD17C099
:100C30008D32910509F417C5C0970A9708F413C5BA
:100C4000EE32F10509F40FC5E0912F02F091300268
:100C50000284F385E02D8FE292E00995E4CF60E015
:100C600070E0CB01000F111F000F111FE1E0F0E059
:100C7000EC0FFD1FE00FF11F60837183828393836C
:100C80008091F1019091F20101969093F20180938D
:100C9000F10106970CF4BCCF29813A814B815C812C
:100CA00020931B0230931C0240931D0250931E029E
:100CB0004D805E806F8078844092110250921202C3
:100CC000609213027092140289849A84AB84BC846B
:100CD0008092010290920202A0920302B09204025A
:100CE0008D859E85AF85B889898F9A8FAB8FBC8F94
:100CF0008093F7019093F801A093F901B093FA0162
:100D0000C988DA88EB88FC88C701B60129A33AA311
:100D10004BA35CA30E94630E6093000170930101DA
:100D200080930201909303018D899E89AF89B88DCC
:100D30008D8F9E8FAF8FB8A380931502909316026C
:100D4000A0931702B093180287E391E00E94340346
:100D500029A13AA14BA15CA1CA01B9010E946A0371
:100D600081E491E00E943403C301B2010E946A034E
:100D70008AE491E00E943403C501B4010E946A0331
:100D800083E591E00E943403698D7A8D8B8D9C8D73
:100D90000E946A038BE591E00E943403C701B6010B
:100DA0000E946A0385E691E00E9434036D8D7E8D7A
:100DB0008F8D98A10E946A03809105018F93809185
:100DC00004018F938BE291E09F938F9381E292E0F5
:100DD0009F938F930E94A70E81E292E00E943403BA
:100DE0000E9468020E9436038CE691E00E94340360
:100DF00080910401909105010E94390380E4809361
:100E00007C0080917A00806480937A000F900F902C
:100E10000F900F900F900F9080917A0086FDFCCF7D
:100E2000609178008091790070E0782B072E000C9B
:100E3000880B990B611571058105910511F00E94D0
:100E4000280C8FE292E00E94DE0008E010E0EE2421
:100E5000E394F12C37E0C32ED12C42E0242E312C28
:100E60000E943104E0912D02F0912E02E930F1054B
:100E700008F0F6C3EC5CFF4F0C949C0E8FE292E0FE
:100E80000E940001181619060CF0EAC38FE292E0E6
:100E90000E94DE0090932C0280932B020E94680235
:100EA00060932702709328028093290290932A026C
:100EB00081E292E00E94340360912702709128023F
:100EC0008091290290912A020E94360383E791E0E3
:100ED0000E94340380912B0290912C020E943903CE
:100EE000F0922E02E0922D02BBC30E948D024B01B4
:100EF0005C0184189508A608B70820E030E04AE7AE
:100F000054E460911B0270911C0280911D0290912B
:100F10001E020E94970C0E945C0E86169706A80679
:100F2000B90668F40E94310480911F02909120025A
:100F30000197D9F60E948D022B013C01D6CF0E9469
:100F4000680260932702709328028093290290938D
:100F50002A0281E292E00E9434036091270270919C
:100F600028028091290290912A020E94360387E785
:100F700091E00E94E50230922E0220922D0270C371
:100F800085E00E94D30190931A0280931902019781
:100F900009F066C30E9468026093270270932802DA
:100FA0008093290290932A0281E292E00E94340306
:100FB00060912702709128028091290290912A0263
:100FC0000E9436038CE791E00E94E5020E946802CD
:100FD0002B013C019AE0892E912CA12CB12C0E946E
:100FE0006802DC01CB0184199509A609B709883E7E
:100FF0009340A105B10558F091E0891A9108A10824
:10100000B108A8EE4A0EA3E05A1E611C711C81149F
:101010009104A104B10419F783E090E0ACC00E94F0
:101020008D022B013C010E948D024B015C01841852
:101030009508A608B70820E030E04AE754E460913C
:1010400015027091160280911702909118020E9469
:10105000970C0E945C0E86169706A806B90640F506
:101060000E94310480911F02909120020197D9F6CD
:101070000E946802609327027093280280932902DD
:1010800090932A0281E292E00E9434036091270249
:10109000709128028091290290912A020E943603C1
:1010A00084E891E00E94E502D0922E02C0922D02C7
:1010B00080912D0290912E02079709F4D1C2A4E0ED
:1010C000B0E0B0932E02A0932D02CAC285E00E9428
:1010D000D3015C0190931A0280931902019709F0E1
:1010E000BFC20E9468022B013C01609327027093EB
:1010F00028028093290290932A0220E034E244E7F8
:1011000059E4609111027091120280911302909142
:1011100014020E94970C0E94630EDC01CB01840D27
:10112000951DA61DB71D80930D0290930E02A093EE
:101130000F02B093100281E292E00E9434036091AA
:101140002702709128028091290290912A020E9420
:10115000360380E991E00E94E502109209021092A4
:101160000A0210920B0210920C02B0920802A09296
:10117000070285E090E090932E0280932D0270C2CA
:101180008091090290910A02A0910B02B0910C0289
:101190000097A105B10559F140910D0250910E0241
:1011A00060910F027091100284179507A607B70788
:1011B000F0F4409127025091280260912902709129
:1011C0002A02481759076A077B0788F480912B0287
:1011D00090912C02C19739F4A6E0B0E0B0932E02B2
:1011E000A0932D0204C0D0922E02C0922D020E9424
:1011F000680280900D0290900E02A0900F02B090B5
:10120000100286169706A806B90608F029C281E2E0
:1012100092E00E9434030E9468020E94360388E92B
:1012200091E00E94E502109208021092070280915C
:101230002B0290912C02C19759F481E292E00E9416
:1012400034030E9468020E94360381EA91E00AC0DA
:1012500081E292E00E9434030E9468020E943603F9
:1012600087EA91E00E94E50282C180910702909195
:1012700008020197F9F40E94680280900D02909094
:101280000E02A0900F02B090100286169706A806D4
:10129000B90680F481E292E00E9434030E94680261
:1012A0000E94360388E991E00E94E502109208024C
:1012B000109207028091050290910602892B09F095
:1012C0004EC061E089E00E94FC0161E08CE00E9478
:1012D000FC010E94680260932702709328028093A9
:1012E000290290932A0281E292E00E9434036091E5
:1012F0002702709128028091290290912A020E946F
:10130000360386EB91E00E94E50220E034E244E7F8
:1013100059E4609101027091020280910302909160
:1013200004020E94970C0E94630E80902702909006
:101330002802A0902902B0902A02DC01CB01880D7E
:10134000991DAA1DBB1D8093FD019093FE01A093E2
:10135000FF01B0930002F0920602E09205020E94A3
:1013600068028090FD019090FE01A090FF01B09076
:10137000000286169706A806B90608F071C160E05B
:1013800089E00E94FC0160E08CE00E94FC0181E2A7
:1013900092E00E9434030E9468020E94360380ECAF
:1013A00091E00E94E5021092060210920502DFC051
:1013B00080910702909108020197F9F40E94680257
:1013C00080900D0290900E02A0900F02B09010023B
:1013D00086169706A806B90680F481E292E00E947C
:1013E00034030E9468020E94360388E991E00E945B
:1013F000E50210920802109207028091FB01909181
:10140000FC01892BF1F50E9468024B015C0160939D
:101410002702709328028093290290932A0220E0E9
:1014200034E244E759E46091F7017091F80180914A
:10143000F9019091FA010E94970C0E94630E860EAA
:10144000971EA81EB91E8092F3019092F401A092FB
:10145000F501B092F60181E292E00E9434036091BE
:101460002702709128028091290290912A020E94FD
:1014700036038BEC91E00E94E502F092FC01E092D1
:10148000FB018091FB019091FC01019709F0E8C0FC
:101490004091090250910A0260910B0270910C0276
:1014A0008091270290912802A0912902B0912A02EE
:1014B00084179507A607B707D0F50E9468024B016D
:1014C0005C01609327027093280280932902909315
:1014D0002A0220E034E244E759E46091F701709178
:1014E000F8018091F9019091FA010E94970C0E94F5
:1014F000630E860E971EA81EB91E8092F30190926D
:10150000F401A092F501B092F60181E292E00E940E
:1015100034036091270270912802809129029091F2
:101520002A020E9436038BEC91E00E94E5020E94A1
:1015300068028090F3019090F401A090F501B090C2
:10154000F601681579058A059B0508F489C081E2D2
:1015500092E00E9434030E9468020E94360384EDE8
:1015600091E00E94E5021092FC011092FB011093A1
:101570002E0200932D0274C0809107029091080200
:101580000197F9F40E94680280900D0290900E027B
:10159000A0900F02B090100286169706A806B90612
:1015A00080F481E292E00E9434030E9468020E946B
:1015B000360388E991E00E94E50210920802109239
:1015C00007028091070290910802892B09F048C018
:1015D00081E292E00E9434030E9468020E94360376
:1015E0008BED91E00E94E50280910401909105014C
:1015F000019690930501809304019F938F93ABE232
:10160000B1E0BF93AF9381E292E09F938F930E94EA
:10161000A70E81E292E00E9434030E9468020E94B9
:1016200036038CE691E00E9434038091040190918E
:1016300005010E9439038FE292E00E9400010F90A1
:101640000F900F900F900F900F901816190624F41A
:101650008FE292E00E94DE0010922E0210922D0284
:101660000E94A001FDCB412C512C80E8682E8FE315
:10167000782EC12CD12C7601B12CA12CE130F105B2
:1016800079F1ED32F10539F1EE32F10539F1CF01A1
:10169000C0970A9728F5AAE0B0E0A70196010E943A
:1016A000740D6F01FF0FEE08FF08C60ED71EE81E6F
:1016B000F91E20E3C21AD108E108F108BB2081F02D
:1016C0002DEC3CEC4CEC5DE3C301B2010E94970CA5
:1016D0002B013C0105C0AA24A39402C0BB24B394EF
:1016E000E0912F02F09130020284F385E02D8FE229
:1016F00092E009950E949902FC01C0970A9708F4AC
:10170000BDCFEE32F10519F4B1101FC0B7CFE130F3
:10171000F10509F4B3CFAA2041F0F094E094D094FD
:10172000C094C11CD11CE11CF11CBB2049F0C701B5
:10173000B6010E94380CA30192010E94970C92CA34
:10174000C701B6010E94380C8DCAA110E6CFEFCFB9
:10175000EFE2F2E01382128288EE93E0A0E0B0E0C4
:1017600084839583A683B7838EE091E09183808301
:1017700085EC90E09587848784EC90E09787868756
:1017800080EC90E0918B808B81EC90E0938B828B4E
:1017900082EC90E0958B848B86EC90E0978B868B27
:1017A000118E128E138E148E08958F929F92AF9287
:1017B000BF92CF92DF92EF92FF92CF93DF93EC0133
:1017C000688179818A819B81611571058105910507
:1017D00021F464E279ED8BE597E02DE133EF41E010
:1017E00050E00E94550D49015A019B01AC01A7EA46
:1017F000B1E40E94740D6B017C01ACEEB4EFA50165
:1018000094010E94820DDC01CB018C0D9D1DAE1D4B
:10181000BF1DB7FF03C00197A109B0488883998312
:10182000AA83BB83BC01CD019F77DF91CF91FF904D
:10183000EF90DF90CF90BF90AF909F908F900895E2
:101840000E94D50B089586E091E00E94D50B089583
:10185000609306017093070180930801909309013A
:1018600008950E94730C08F481E00895E89409C07B
:1018700097FB3EF490958095709561957F4F8F4FC3
:101880009F4F9923A9F0F92F96E9BB279395F695D9
:10189000879577956795B795F111F8CFFAF4BB0F57
:1018A00011F460FF1BC06F5F7F4F8F4F9F4F16C0BB
:1018B000882311F096E911C0772321F09EE8872F45
:1018C000762F05C0662371F096E8862F70E060E001
:1018D0002AF09A95660F771F881FDAF7880F96957A
:1018E000879597F90895990F0008550FAA0BE0E81E
:1018F000FEEF16161706E807F907C0F012161306D2
:10190000E407F50798F0621B730B840B950B39F411
:101910000A2661F0232B242B252B21F408950A2677
:1019200009F4A140A6958FEF811D811D08950E94A5
:10193000AA0C0C941B0D0E940D0D38F00E94140D82
:1019400020F0952311F00C94040D0C940A0D112431
:101950000C944F0D0E942C0D70F3959FC1F3950FC1
:1019600050E0551F629FF001729FBB27F00DB11D23
:10197000639FAA27F00DB11DAA1F649F6627B00DB3
:10198000A11D661F829F2227B00DA11D621F739F9C
:10199000B00DA11D621F839FA00D611D221F749FAA
:1019A0003327A00D611D231F849F600D211D822FF1
:1019B000762F6A2F11249F5750409AF0F1F0882318
:1019C0004AF0EE0FFF1FBB1F661F771F881F915045
:1019D0005040A9F79E3F510580F00C94040D0C94E3
:1019E0004F0D5F3FE4F3983ED4F386957795679566
:1019F000B795F795E7959F5FC1F7FE2B880F911D6F
:101A00009695879597F9089597F99F6780E870E014
:101A100060E008959FEF80EC089500240A94161664
:101A2000170618060906089500240A9412161306CC
:101A3000140605060895092E0394000C11F488235A
:101A400052F0BB0F40F4BF2B11F460FF04C06F5F76
:101A50007F4F8F4F9F4F089557FD9058440F551F4C
:101A600059F05F3F71F04795880F97FB991F61F020
:101A70009F3F79F087950895121613061406551F97
:101A8000F2CF4695F1DF08C0161617061806991F03
:101A9000F1CF86957105610508940895E894BB27F8
:101AA00066277727CB0197F90895052E97FB1EF43B
:101AB00000940E946C0D57FD07D00E94BE0D07FCDC
:101AC00003D04EF40C946C0D5095409530952195B3
:101AD0003F4F4F4F5F4F089590958095709561955A
:101AE0007F4F8F4F9F4F08950E94E00DA59F900D4F
:101AF000B49F900DA49F800D911D11240895B7FFF0
:101B00000C94740D0E94740D821B930B08952F92F8
:101B10003F924F925F926F927F928F929F92AF927D
:101B2000BF92CF92DF92EF92FF920F931F93CF93CA
:101B3000DF93CDB7DEB7CA1BDB0B0FB6F894DEBF61
:101B40000FBECDBF09942A88398848885F846E8487
:101B50007D848C849B84AA84B984C884DF80EE80D1
:101B6000FD800C811B81AA81B981CE0FD11D0FB6DA
:101B7000F894DEBF0FBECDBFED010895A1E21A2E8D
:101B8000AA1BBB1BFD010DC0AA1FBB1FEE1FFF1F21
:101B9000A217B307E407F50720F0A21BB30BE40B71
:101BA000F50B661F771F881F991F1A9469F76095B8
:101BB0007095809590959B01AC01BD01CF01089572
:101BC000A29FB001B39FC001A39F700D811D11247E
:101BD000911DB29F700D811D1124911D08955058C3
:101BE000BB27AA270E94070E0C941B0D0E940D0D07
:101BF00038F00E94140D20F039F49F3F19F426F4B8
:101C00000C940A0D0EF4E095E7FB0C94040DE92FFB
:101C10000E942C0D58F3BA176207730784079507C3
:101C200020F079F4A6F50C944E0D0EF4E0950B2EF1
:101C3000BA2FA02D0B01B90190010C01CA01A0011E
:101C40001124FF27591B99F0593F50F4503E68F179
:101C50001A16F040A22F232F342F4427585FF3CFBA
:101C6000469537952795A795F0405395C9F77EF48B
:101C70001F16BA0B620B730B840BBAF09150A1F0D4
:101C8000FF0FBB1F661F771F881FC2F70EC0BA0F5A
:101C9000621F731F841F48F4879577956795B795E2
:101CA000F7959E3F08F0B0CF9395880F08F09927DD
:101CB000EE0F9795879508950E94630E6894B11171
:101CC0000C944F0D08950E94340D88F09F5798F0A2
:101CD000B92F9927B751B0F0E1F0660F771F881F31
:101CE000991F1AF0BA95C9F714C0B13091F00E944B
:101CF0004E0DB1E008950C944E0D672F782F882774
:101D0000B85F39F0B93FCCF3869577956795B39571
:101D1000D9F73EF490958095709561957F4F8F4FE0
:101D20009F4F08950E94730C08F48FEF08950E944E
:101D3000730C880B990B0895EE0FFF1F0590F4911B
:101D4000E02D099481E090E0F8940C944811AEE005
:101D5000B0E0EDEAFEE00C94950D0D891E8986E059
:101D60008C831A8309838FEF9FE79E838D83AE0157
:101D7000475E5F4F6F89788DCE0101960E94CA0E33
:101D80002F813885F801E20FF31F10822E96E4E0D0
:101D90000C94B10DACE0B0E0E0EDFEE00C94870DEA
:101DA0007C016B018A01FC0117821682838181FF0D
:101DB000BDC1CE0101964C01F7019381F60193FD5F
:101DC000859193FF81916F01882309F4ABC185321E
:101DD00039F493FD859193FF81916F01853229F448
:101DE000B70190E00E94B210E7CF512C312C20E0D7
:101DF0002032A0F48B3269F030F4803259F0833213
:101E000069F420612CC08D3239F0803339F42160BF
:101E100026C02260246023C0286021C027FD27C07F
:101E200030ED380F3A3078F426FF06C0FAE05F9EB6
:101E3000300D1124532E13C08AE0389E300D11242A
:101E4000332E20620CC08E3221F426FD6BC120643B
:101E500006C08C3611F4206802C0883641F4F601C1
:101E600093FD859193FF81916F018111C1CF982FCF
:101E70009F7D9554933028F40C5F1F4FFFE3F98347
:101E80000DC0833631F0833771F0833509F05BC0C4
:101E900022C0F801808189830E5F1F4F4424439440
:101EA000512C540115C03801F2E06F0E711CF8017D
:101EB000A080B18026FF03C0652D70E002C06FEFE7
:101EC0007FEFC5012C870E94A7102C0183012C8570
:101ED0002F77222E17C03801F2E06F0E711CF80127
:101EE000A080B18026FF03C0652D70E002C06FEFB7
:101EF0007FEFC5012C870E949C102C012C85206847
:101F0000222E830123FC1BC0832D90E04816590626
:101F1000B0F4B70180E290E00E94B2103A94F4CF9E
:101F2000F50127FC859127FE81915F01B70190E0C3
:101F30000E94B21031103A94F1E04F1A5108411446
:101F4000510471F7E5C0843611F0893639F5F8018E
:101F500027FF07C060817181828193810C5F1F4FD1
:101F600008C060817181072E000C880B990B0E5FF1
:101F70001F4F2F76722E97FF09C090958095709510
:101F800061957F4F8F4F9F4F2068722E2AE030E07F
:101F9000A4010E94EA10A82EA81844C0853729F48D
:101FA0002F7EB22E2AE030E025C0F22FF97FBF2E1F
:101FB0008F36C1F018F4883579F0B4C0803719F045
:101FC000883721F0AFC02F2F2061B22EB4FE0DC094
:101FD0008B2D8460B82E09C024FF0AC09F2F966005
:101FE000B92E06C028E030E005C020E130E002C094
:101FF00020E132E0F801B7FE07C060817181828183
:1020000093810C5F1F4F06C06081718180E090E07A
:102010000E5F1F4FA4010E94EA10A82EA818FB2DE6
:10202000FF777F2E76FE0BC0372D3E7FA51450F430
:1020300074FE0AC072FC08C0372D3E7E05C0BA2C63
:10204000372D03C0BA2C01C0B52C34FF0DC0FE01E2
:10205000EA0DF11D8081803311F4397E09C032FF11
:1020600006C0B394B39404C0832F867809F0B39468
:1020700033FD13C030FF06C05A2CB31418F4530CB0
:102080005B18B32CB31468F4B70180E290E03C878E
:102090000E94B210B3943C85F5CFB31410F43B18F2
:1020A00001C0312C34FF12C0B70180E390E03C87BF
:1020B0000E94B2103C8532FF17C031FD03C088E793
:1020C00090E002C088E590E0B7010CC0832F8678CD
:1020D00059F031FF02C08BE201C080E237FD8DE292
:1020E000B70190E00E94B210A51438F4B70180E364
:1020F00090E00E94B2105A94F7CFAA94F401EA0D2E
:10210000F11D8081B70190E00E94B210A110F5CFBF
:10211000332009F451CEB70180E290E00E94B21062
:102120003A94F6CFF7018681978102C08FEF9FEF37
:102130002C96E2E10C94A30DFC01059061507040D7
:102140000110D8F7809590958E0F9F1F0895FC0180
:102150006150704001900110D8F7809590958E0FD6
:102160009F1F08950F931F93CF93DF93FB0123814C
:1021700021FD03C08FEF9FEF28C022FF16C04681CC
:102180005781248135814217530744F4A081B181DE
:102190009D012F5F3F4F318320838C9326813781B0
:1021A0002F5F3F4F3783268310C0EB01092F182F75
:1021B0000084F185E02D0995892BE1F68E819F81C0
:1021C00001969F838E83812F902FDF91CF911F9156
:1021D0000F910895FA01AA27283051F1203181F199
:1021E000E8946F936E7F6E5F7F4F8F4F9F4FAF4F1F
:1021F000B1E03ED0B4E03CD0670F781F891F9A1F32
:10220000A11D680F791F8A1F911DA11D6A0F711DE5
:10221000811D911DA11D20D009F468943F912AE0F1
:10222000269F11243019305D3193DEF6CF010895D9
:10223000462F4770405D4193B3E00FD0C9F7F6CF0A
:10224000462F4F70405D4A3318F0495D31FD4052D2
:10225000419302D0A9F7EACFB4E0A6959795879568
:1022600077956795BA95C9F7009761057105089547
:102270009B01AC010A2E06945795479537952795F3
:10228000BA95C9F7620F731F841F951FA01D08958B
:04229000F894FFCFF0
:10229400204E000001000100000000000000370192
:1022A400A000CF007E010001DE00F2000D0A006EE6
:1022B400616E00696E66006F7666002530346420B6
:1022C40000204C49434B00484F4C4454494D452051
:1022D400005245535057494E200052455754494DDA
:1022E400452000544F54494D4520004445424F5524
:1022F4004E4345200041424F52542000205452493D
:10230400414C002054540020544F4E002053544953
:102314004D4F4E00204541524C5941424F525400BA
:1023240020524553504F4E0020524553504F46467D
:1023340000204D4953530020434F525245435452B9
:10234400454A45435400205245574152444F4E009C
:10235400205245574152444F46460020544F53544F
:102364004152540020544F454E440020544F464699
:02237400000067
:00000001FF
