:100000000C946A000C9492000C9492000C94920050
:100010000C9492000C9492000C9492000C94920018
:100020000C9492000C9492000C9492000C94920008
:100030000C9492000C9492000C9492000C949200F8
:100040000C94A6060C9492000C94B7090C94E90940
:100050000C9492000C9492000C9492000C949200D8
:100060000C9492000C9492008102E70217034E0355
:10007000A9033804F504010600000008000201008D
:100080000003040700000000000000000102040853
:1000900010204080010204081020010204081020F2
:1000A000040404040404040402020202020203031E
:1000B00003030303000000002300260029000000C2
:1000C0000000250028002B0000000000240027006D
:1000D0002A00190A11241FBECFEFD8E0DEBFCDBF22
:1000E00011E0A0E0B1E0E4EAF6E202C005900D9272
:1000F000A63DB107D9F722E0A6EDB1E001C01D92FF
:10010000AD3BB207E1F710E0C4EDD0E004C02297A8
:10011000FE010E94FC0FC23DD107C9F70E948A0D63
:100120000C9450130C940000CF92DF92EF92FF9248
:100130000F931F93CF93DF9387E00E944908EC0150
:100140008091090290910A02C817D90751F00E94C4
:10015000FC066093F6017093F7018093F801909389
:10016000F9010E94FC060091F6011091F70120911F
:10017000F8013091F901601B710B820B930BC09059
:100180000A01D0900B01E0900C01F0900D01C61611
:10019000D706E806F90608F047C080910B02909157
:1001A0000C02C817D90709F43FC0D0930C02C093C2
:1001B0000B02C130D105C1F50093F2011093F30198
:1001C0002093F4013093F50180910F018F9380917A
:1001D0000E018F9381E191E09F938F938EEF91E0D9
:1001E0009F938F930E9477106EEF71E080E292E010
:1001F0000E949A0A4091F2015091F3016091F4013A
:100200007091F5012AE030E080E292E00E946A0BF2
:1002100067E171E080E292E00E94A70A0F900F90E0
:100220000F900F900F900F90D0930A02C093090285
:10023000DF91CF911F910F91FF90EF90DF90CF90C2
:1002400008954F925F926F927F928F929F92AF929A
:10025000BF92CF92DF92EF92FF92CF93DF93CDB711
:10026000DEB76C970FB6F894DEBF0FBECDBF60E06F
:1002700087E00E94DA0760E085E00E94DA0761E02B
:1002800089E00E94DA076091070289E00E94130862
:1002900026E040E855E260E070E080E292E00E94F3
:1002A000550980E292E00E948B0880E292E00E9471
:1002B000720818161906CCF7E0900302F0900402B9
:1002C00041E060E070E080E292E00E94E50CF7011E
:1002D000EE0FFF1FEE0FFF1F21E030E02C0F3D1F40
:1002E000E20FF31F60837183828393838091030203
:1002F0009091040201969093040280930302059763
:10030000A4F289819A81AB81BC818D8B9E8BAF8B4E
:10031000B88F8093E2019093E301A093E401B0933E
:10032000E5014D805E806F8078844092DE015092BE
:10033000DF016092E0017092E10189849A84AB84CC
:10034000BC848092DA019092DB01A092DC01B09231
:10035000DD01CD84DE84EF84F888C092D601D0928E
:10036000D701E092D801F092D90189899A89AB89A5
:10037000BC89898F9A8FAB8FBC8FBC01CD010E9445
:10038000700E60930A0170930B0180930C0190939F
:100390000D016DE171E080E292E00E949A0A22E094
:1003A00030E04D895E896F89788D80E292E00E940D
:1003B000620C67E271E080E292E00E949A0A22E019
:1003C00030E0B301A20180E292E00E94620C60E39F
:1003D00071E080E292E00E949A0A22E030E0B501EA
:1003E000A40180E292E00E94620C69E371E080E285
:1003F00092E00E949A0A22E030E0B701A60180E272
:1004000092E00E94620C61E471E080E292E00E945E
:100410009A0A22E030E0498D5A8D6B8D7C8D80E206
:1004200092E00E94620C80910F018F9380910E01E7
:100430008F9381E191E09F938F938EEF91E09F9353
:100440008F930E9477106EEF71E080E292E00E943D
:100450009A0A0E94FC06AB01BC012AE030E080E26F
:1004600092E00E946A0B6BE471E080E292E00E94ED
:100470009A0A60910E0170910F014AE050E080E20B
:1004800092E00E94520B80E00E949407BC018827F2
:1004900077FD8095982F0E94810D0F900F900F90FF
:1004A0000F900F900F9080E292E06C960FB6F89448
:1004B000DEBF0FBECDBFDF91CF91FF90EF90DF90F9
:1004C000CF90BF90AF909F908F907F906F905F90F4
:1004D0004F900C948B088F929F92AF92BF92CF92C5
:1004E000DF92EF92FF920E949400E0911502F0914A
:1004F0001602E830F10508F020C4EC5CFF4F0C94C4
:10050000FA0F80E292E00E947208181619060CF0A9
:1005100014C480E292E00E948B08909306028093BC
:1005200005020E94FC066093FA017093FB01809320
:10053000FC019093FD016EEF71E080E292E00E9479
:100540009A0A4091FA015091FB016091FC0170916F
:10055000FD012AE030E080E292E00E946A0B62E551
:1005600071E080E292E00E949A0A60910502709127
:1005700006024AE050E080E292E00E94520B81E0E5
:1005800090E050C00E94F0066B017C01C818D908A9
:10059000EA08FB0820E030E04AE754E46091E20119
:1005A0007091E3018091E4019091E5010E94520F66
:1005B0000E946B0EC616D706E806F90668F40E947C
:1005C000940080910B0290910C020197D9F60E9441
:1005D000F0064B015C01D6CF0E94FC066093FA0145
:1005E0007093FB018093FC019093FD016EEF71E02D
:1005F00080E292E00E949A0A4091FA015091FB0138
:100600006091FC017091FD012AE030E080E292E00F
:100610000E946A0B66E571E080E292E00E94A70A00
:1006200082E090E0909316028093150286C385E0E5
:100630000E9449089093140280931302019709F0D5
:100640007CC30E94FC066093FA017093FB018093C7
:10065000FC019093FD016EEF71E080E292E00E9458
:100660009A0A4091FA015091FB016091FC0170914E
:10067000FD012AE030E080E292E00E946A0B6BE527
:1006800071E080E292E00E94A70A6AE070E080E0F8
:1006900090E00E941F0783E090E0C4CF85E00E94B5
:1006A00049089093140280931302019709F045C3FF
:1006B0000E94FC066B017C016093FA017093FB01C0
:1006C0008093FC019093FD0120E034E244E759E47B
:1006D0006091DE017091DF018091E0019091E10174
:1006E0000E94520F0E94700E6C0D7D1D8E1D9F1D6D
:1006F0006093EE017093EF018093F0019093F1010C
:100700006EEF71E080E292E00E949A0A4091FA0155
:100710005091FB016091FC017091FD012AE030E0F5
:1007200080E292E00E946A0B63E671E080E292E070
:100730000E94A70A1092F2011092F3011092F401A4
:100740001092F50110920E0210920D0284E090E0DA
:1007500069CF8091F2019091F301A091F401B091E1
:10076000F5010097A105B10549F14091FA015091B9
:10077000FB016091FC017091FD01481759076A0760
:100780007B07E0F44091EE015091EF016091F001A0
:100790007091F10184179507A607B70778F4809147
:1007A000050290910602C19719F485E090E002C01D
:1007B00086E090E090931602809315020E94FC065A
:1007C000C090EE01D090EF01E090F001F090F101C7
:1007D000C616D706E806F90608F0AFC26EEF71E05C
:1007E00080E292E00E949A0A4091EE015091EF015E
:1007F0006091F0017091F1012AE030E080E292E036
:100800000E946A0B6BE671E080E292E00E94A70A08
:1008100081E090E090930E0280930D02809105029A
:10082000909106026EEF71E0C19789F480E292E048
:100830000E949A0A0E94FC06AB01BC012AE030E04B
:1008400080E292E00E946A0B64E771E0D3C180E22B
:1008500092E00E949A0A0E94FC06AB01BC012AE0C9
:1008600030E080E292E00E946A0B6AE771E0C2C168
:1008700080910D0290910E02892B79F50E94FC0661
:10088000C090EE01D090EF01E090F001F090F10106
:10089000C616D706E806F90600F56EEF71E080E2AD
:1008A00092E00E949A0A4091EE015091EF0160910E
:1008B000F0017091F1012AE030E080E292E00E94C4
:1008C0006A0B6BE671E080E292E00E94A70A81E089
:1008D00090E090930E0280930D028091110290910E
:1008E0001202892B09F052C061E089E00E941308CE
:1008F0000E94FC066093FA017093FB018093FC0157
:100900009093FD016EEF71E080E292E00E949A0AFE
:100910004091FA015091FB016091FC017091FD0141
:100920002AE030E080E292E00E946A0B69E871E020
:1009300080E292E00E94A70A20E034E244E759E412
:100940006091DA017091DB018091DC019091DD0111
:100950000E94520F0E94700EC090FA01D090FB01CD
:10096000E090FC01F090FD016C0D7D1D8E1D9F1D22
:100970006093EA017093EB018093EC019093ED0199
:1009800081E090E090931202809311020E94FC0695
:10099000C090EA01D090EB01E090EC01F090ED0105
:1009A000C616D706E806F90608F0C7C160E089E078
:1009B0000E9413086EEF71E080E292E00E949A0AB2
:1009C0000E94FC06AB01BC012AE030E080E292E02C
:1009D0000E946A0B63E971E080E292E00E94A70A3C
:1009E000109212021092110209C180910D02909191
:1009F0000E02892B79F50E94FC06C090EE01D09082
:100A0000EF01E090F001F090F101C616D706E8067C
:100A1000F90600F56EEF71E080E292E00E949A0A1A
:100A20004091EE015091EF016091F0017091F10160
:100A30002AE030E080E292E00E946A0B6BE671E00F
:100A400080E292E00E94A70A81E090E090930E027B
:100A500080930D0280910F0290911002892B09F072
:100A600048C00E94FC066B017C016093FA01709300
:100A7000FB018093FC019093FD0120E034E244E708
:100A800059E46091D6017091D7018091D80190917D
:100A9000D9010E94520F0E94700E6C0D7D1D8E1D9B
:100AA0009F1D6093E6017093E7018093E8019093A6
:100AB000E9016EEF71E080E292E00E949A0A4091B3
:100AC000FA015091FB016091FC017091FD012AE057
:100AD00030E080E292E00E946A0B6EE971E080E211
:100AE00092E00E94A70A81E090E090931002809328
:100AF0000F0280910F0290911002019709F01DC121
:100B00004091F2015091F3016091F4017091F5016F
:100B10008091FA019091FB01A091FC01B091FD013F
:100B200084179507A607B70708F042C00E94FC0685
:100B30006B017C016093FA017093FB018093FC01CF
:100B40009093FD0120E034E244E759E46091D6013E
:100B50007091D7018091D8019091D9010E94520FD4
:100B60000E94700E6C0D7D1D8E1D9F1D6093E60111
:100B70007093E7018093E8019093E9016EEF71E0D3
:100B800080E292E00E949A0A4091FA015091FB01A2
:100B90006091FC017091FD012AE030E080E292E07A
:100BA0000E946A0B6EE971E080E292E00E94A70A5F
:100BB0000E94FC06C090E601D090E701E090E801B9
:100BC000F090E9016C157D058E059F0508F4B5C010
:100BD0006EEF71E080E292E00E949A0A0E94FC06A9
:100BE000AB01BC012AE030E080E292E00E946A0B97
:100BF00067EA71E080E292E00E94A70A87E090E055
:100C000011CD80910D0290910E02892B79F50E94F1
:100C1000FC06C090EE01D090EF01E090F001F09062
:100C2000F101C616D706E806F90600F56EEF71E089
:100C300080E292E00E949A0A4091EE015091EF0109
:100C40006091F0017091F1012AE030E080E292E0E1
:100C50000E946A0B6BE671E080E292E00E94A70AB4
:100C600081E090E090930E0280930D0280910D023E
:100C700090910E02019709F060C06EEF71E080E282
:100C800092E00E949A0A0E94FC06AB01BC012AE095
:100C900030E080E292E00E946A0B6EEA71E080E24E
:100CA00092E00E94A70A80910E0190910F01019697
:100CB00090930F0180930E019F938F9381E191E0B8
:100CC0009F938F938EEF91E09F938F930E94771065
:100CD0006EEF71E080E292E00E949A0A0E94FC06A8
:100CE000AB01BC012AE030E080E292E00E946A0B96
:100CF0006BE471E080E292E00E949A0A60910E013A
:100D000070910F014AE050E080E292E00E94520BA5
:100D100080E292E00E9472080F900F900F900F9067
:100D20000F900F901816190624F480E292E00E94AA
:100D30008B081092160210921502FF90EF90DF9030
:100D4000CF90BF90AF909F908F9008951F920F9279
:100D50000FB60F9211242F933F938F939F93AF93CE
:100D6000BF938091180290911902A0911A02B0913C
:100D70001B023091170223E0230F2D3720F4019638
:100D8000A11DB11D05C026E8230F0296A11DB11DAE
:100D9000209317028093180290931902A0931A02CD
:100DA000B0931B0280911C0290911D02A0911E0223
:100DB000B0911F020196A11DB11D80931C0290935A
:100DC0001D02A0931E02B0931F02BF91AF919F918D
:100DD0008F913F912F910F900FBE0F901F901895FC
:100DE0002FB7F894609118027091190280911A023D
:100DF00090911B022FBF08953FB7F89480911C0279
:100E000090911D02A0911E02B0911F0226B5A89BD1
:100E100005C02F3F19F00196A11DB11D3FBF6627E8
:100E2000782F892F9A2F620F711D811D911D42E02D
:100E3000660F771F881F991F4A95D1F708958F92E3
:100E40009F92AF92BF92CF92DF92EF92FF926B018F
:100E50007C010E94FC064B015C01C114D104E10439
:100E6000F104F1F00E94990D0E94FC0668197909BD
:100E70008A099B09683E73408105910570F321E062
:100E8000C21AD108E108F10888EE880E83E0981EA6
:100E9000A11CB11CC114D104E104F10429F7DDCF78
:100EA000FF90EF90DF90CF90BF90AF909F908F908A
:100EB0000895789484B5826084BD84B5816084BDD2
:100EC00085B5826085BD85B5816085BDEEE6F0E0C3
:100ED000808181608083E1E8F0E01082808182601F
:100EE0008083808181608083E0E8F0E080818160A0
:100EF0008083E1EBF0E0808184608083E0EBF0E0D0
:100F0000808181608083EAE7F0E080818460808373
:100F1000808182608083808181608083808180681D
:100F200080831092C10008958E3008F08E50877033
:100F30002091100190E4299F90011124822B80932D
:100F40007C0080917A00806480937A0080917A009E
:100F500086FDFCCF809178002091790090E0922B63
:100F60000895833081F028F4813099F08230A1F027
:100F700008958730A9F08830B9F08430D1F4809199
:100F800080008F7D03C0809180008F7780938000E8
:100F9000089584B58F7702C084B58F7D84BD089590
:100FA0008091B0008F7703C08091B0008F7D8093D7
:100FB000B0000895CF93DF9390E0FC01E457FF4F1A
:100FC0002491FC01E056FF4F8491882349F190E081
:100FD000880F991FFC01E853FF4FA591B4918254EB
:100FE0009F4FFC01C591D4919FB7611108C0F8943F
:100FF0008C91209582238C93888182230AC0623051
:1010000051F4F8948C91322F309583238C938881FE
:10101000822B888304C0F8948C91822B8C939FBF81
:10102000DF91CF9108950F931F93CF93DF931F927A
:10103000CDB7DEB7282F30E0F901E858FF4F849193
:10104000F901E457FF4F1491F901E056FF4F049165
:101050000023C9F0882321F069830E94B1076981C8
:10106000E02FF0E0EE0FFF1FE254FF4FA591B49187
:101070009FB7F8948C91611103C01095812301C032
:10108000812B8C939FBF0F90DF91CF911F910F9178
:101090000895CF93DF93282F30E0F901E858FF4FF0
:1010A0008491F901E457FF4FD491F901E056FF4FC5
:1010B000C491CC2391F081110E94B107EC2FF0E094
:1010C000EE0FFF1FEC54FF4FA591B4912C912D23EF
:1010D00081E090E021F480E002C080E090E0DF91C8
:1010E000CF910895FC01818D228D90E0805C9F4F0F
:1010F000821B91098F7399270895FC01918D828D30
:10110000981731F0828DE80FF11D858D90E00895DC
:101110008FEF9FEF0895FC01918D828D981761F0FC
:10112000828DDF01A80FB11D5D968C91928D9F5F1E
:101130009F73928F90E008958FEF9FEF08958FE057
:101140009AE0892B49F080E090E0892B29F00E94F9
:101150000F0A81110C9400000895FC01848DDF01B9
:10116000A80FB11DA35ABF4F2C91848D90E001961A
:101170008F739927848FA689B7892C93A089B18909
:101180008C9180648C93938D848D981306C0028813
:10119000F389E02D80818F7D80830895CF93DF9345
:1011A000EC01888D8823C9F0EA89FB89808185FD5F
:1011B00005C0A889B9898C9186FD0FC00FB607FCC0
:1011C000F5CF808185FFF2CFA889B9898C9185FF01
:1011D000EDCFCE010E94AD08E7CFDF91CF9108950A
:1011E000CF92DF92FF920F931F93CF93DF931F92C3
:1011F000CDB7DEB76C0181E0D60158968C93589735
:101200005B969C915B975C968C915C97981307C05A
:101210005096ED91FC915197808185FD2EC0F6018D
:10122000038D10E00F5F1F4F0F731127F02EF60193
:10123000848DF81211C00FB607FCF9CFD601509675
:10124000ED91FC915197808185FFF1CFC6016983B3
:101250000E94AD086981EBCF838DE80FF11DE35A41
:10126000FF4F6083D6015B960C935B975296ED918E
:10127000FC915397808180620CC0D6015696ED9107
:10128000FC91579760835096ED91FC915197808126
:101290008064808381E090E00F90DF91CF911F9177
:1012A0000F91FF90DF90CF900895BF92CF92DF9281
:1012B000EF92FF92CF93DF93EC016A017B01B22E94
:1012C000E889F98982E08083411581EE580761053C
:1012D0007105A1F060E079E08DE390E0A70196014F
:1012E0000E94B90F2150310941095109569547957E
:1012F00037952795211580E1380798F0E889F98915
:10130000108260E874E88EE190E0A70196010E94E7
:10131000B90F215031094109510956954795379523
:101320002795EC85FD853083EE85FF852083188E1B
:10133000EC89FD89B082EA89FB89808180618083A4
:10134000EA89FB89808188608083EA89FB898081C2
:1013500080688083EA89FB8980818F7D8083DF912B
:10136000CF91FF90EF90DF90CF90BF9008951F92A4
:101370000F920FB60F9211242F938F939F93EF9399
:10138000FF93E0913002F09131028081E0913602CA
:10139000F091370282FD12C09081809139028F5FF7
:1013A0008F7320913A02821751F0E0913902F0E0F8
:1013B000E05EFD4F958F8093390201C08081FF91DF
:1013C000EF919F918F912F910F900FBE0F901F90D3
:1013D00018951F920F920FB60F9211242F933F93DF
:1013E0004F935F936F937F938F939F93AF93BF932D
:1013F000EF93FF9380E292E00E94AD08FF91EF919E
:10140000BF91AF919F918F917F916F915F914F911C
:101410003F912F910F900FBE0F901F90189580E273
:1014200092E00E94720821E0892B09F420E0822FCB
:101430000895109223021092220288EE93E0A0E019
:10144000B0E08093240290932502A0932602B093EB
:10145000270288EB91E0909321028093200285EC93
:1014600090E090932D0280932C0284EC90E0909376
:101470002F0280932E0280EC90E0909331028093B3
:10148000300281EC90E0909333028093320282EC40
:1014900090E0909335028093340286EC90E0909334
:1014A0003702809336021092390210923A0210925B
:1014B0003B0210923C020895CF92DF92EF92FF928E
:1014C0000F931F93CF93DF937C016A01EB0100E040
:1014D00010E00C151D0571F06991D701ED91FC919B
:1014E0000190F081E02DC7010995892B19F00F5F5C
:1014F0001F4FEFCFC801DF91CF911F910F91FF9048
:10150000EF90DF90CF9008956115710581F0DB01B8
:101510000D900020E9F7AD0141505109461B570BD2
:10152000DC01ED91FC910280F381E02D099480E0D3
:1015300090E008950C94840ADC01ED91FC910190F7
:10154000F081E02D099464EC71E00C94840A0F930F
:101550001F93CF93DF93EC010E94840A8C01CE018C
:101560000E94A30A800F911FDF91CF911F910F91CD
:1015700008958F929F92AF92BF92DF92EF92FF9267
:101580000F931F93CF93DF93CDB7DEB7A1970FB61D
:10159000F894DEBF0FBECDBF7C01F42FD52ECB015A
:1015A00019A2223008F42AE08E010F5D1F4F822E0F
:1015B000912CA12CB12C6F2F7D2DA50194010E949F
:1015C000B90FF22FD32ECA01015011096A3014F459
:1015D000E0E301C0E7E3E60FD801EC93232B242BD3
:1015E000252B49F7B801C7010E94840AA1960FB6BE
:1015F000F894DEBF0FBECDBFDF91CF911F910F9149
:10160000FF90EF90DF90BF90AF909F908F900895E4
:10161000CF92DF92EF92FF920F931F93CF93DF93BE
:10162000EC016A017B012115310579F4E881F9812A
:101630000190F081E02D642FDF91CF911F910F91E8
:10164000FF90EF90DF90CF9009942A303105E9F4B4
:1016500077FF1AC06DE20E949C0A8C01442755272F
:10166000BA014C195D096E097F092AE0CE010E947A
:10167000B90A800F911FDF91CF911F910F91FF90B9
:10168000EF90DF90CF9008952AE0B701A601CE0138
:10169000DF91CF911F910F91FF90EF90DF90CF904E
:1016A0000C94B90A0F931F93CF93DF93EC019A0127
:1016B000AB01662757FD6095762F0E94080B8C01C1
:1016C000CE010E94A30A800F911FDF91CF911F913D
:1016D0000F9108952115310541F4DC01ED91FC9144
:1016E0000190F081E02D642F09940C94B90A4F9277
:1016F0005F926F927F928F929F92AF92BF92CF92A2
:10170000DF92EF92FF920F931F93CF93DF93EC0141
:101710006A017B01B22E9A01AB01C701B6010E949A
:10172000B50F882319F067EC71E027C02601370157
:10173000E89477F82FEF3FEF4FE75FE7C301B2017F
:101740000E94B50F81110DC02FEF3FEF4FE75FE70C
:10175000C301B2010E94FF0D18161CF46BEC71E07E
:101760000CC02FEF3FEF4FE75FE4C701B6010E94C7
:101770004E0F1816ACF46FEC71E0CE01DF91CF91F3
:101780001F910F91FF90EF90DF90CF90BF90AF909F
:101790009F908F907F906F905F904F900C94840AF1
:1017A0002FEF3FEF4FE75FECC701B6010E94FF0D3F
:1017B00087FDE1CF20E030E0A901C701B6010E941A
:1017C000FF0D87FF0AC06DE2CE010E949C0A8C01CA
:1017D000F7FAF094F7F8F09402C000E010E0A12CC2
:1017E00060E070E080E09FE3AB1441F020E030E087
:1017F00040E251E40E94030EA394F6CF9B01AC019A
:10180000C701B6010E949B0D6B017C010E94700E06
:101810002B013C010E949C0E9B01AC01C701B6014B
:101820000E949A0D6B017C012AE0B301A201CE0156
:101830000E94B90A080F191FBB2039F063ED71E04F
:10184000CE010E94840A080F191F7B2C772041F1DA
:1018500020E030E040E251E4C701B6010E94520F9F
:101860006B017C010E946B0E4B01AA2497FCA09493
:10187000BA2C2AE030E0B501A401CE010E94080B89
:10188000080F191FC501B4010E949E0E9B01AC01F7
:10189000C701B6010E949A0D6B017C017A94D6CFE4
:1018A000C801DF91CF911F910F91FF90EF90DF90D2
:1018B000CF90BF90AF909F908F907F906F905F90F0
:1018C0004F9008950F931F93CF93DF93EC010E94E5
:1018D000770B8C01CE010E94A30A800F911FDF912C
:1018E000CF911F910F9108950F931F93CF93DF9383
:1018F000EC010E94F006688779878A879B87E881D8
:10190000F9810084F185E02DCE01099597FF15C07E
:101910000E94F006088519852A853B85601B710B9E
:10192000820B930B0C811D812E813F816017710703
:101930008207930720F38FEF9FEFDF91CF911F91E5
:101940000F910895FF920F931F93CF93DF93EC01B4
:101950008B01F42ECE010E94740C9C0197FD28C0CF
:101960008D32910519F1C0970A9710F1FF2019F0F7
:101970002E323105F9F001301105F9F00230110570
:1019800069F42D30310551F034F4295031092230F9
:10199000310520F012C02032310579F4E881F98157
:1019A0000680F781E02DCE010995D4CF8DE203C0EA
:1019B000C90105C08EE290E002C08FEF9FEFDF917A
:1019C000CF911F910F91FF9008956F927F928F9208
:1019D0009F92AF92BF92CF92DF92EF92FF920F93BE
:1019E0001F93CF93DF93EC01042F41E00E94A20CE0
:1019F000FC0197FD74C0812C912C80E8A82E8FE308
:101A0000B82EC12CD12C7601712C612C112707FD29
:101A10001095E017F10791F1ED32F10551F1EE3239
:101A2000F10551F1CF01C0970A9740F5AAE0B0E067
:101A3000A70196010E9400106B017C01CF01AA272B
:101A400097FDA095BA2FC80ED91EEA1EFB1E80E393
:101A5000C81AD108E108F108772081F02DEC3CECA0
:101A60004CEC5DE3C501B4010E94520F4B015C01D7
:101A700005C06624639402C077247394E881F981D9
:101A80000680F781E02DCE010995CE010E94740CED
:101A9000FC01C0970A9708F4BCCFEE32F10519F4A7
:101AA000772009F4B6CFE017F10709F4B2CF66202A
:101AB00041F0F094E094D094C094C11CD11CE11C7E
:101AC000F11CC701B601772039F00E949E0EA501D6
:101AD00094010E94520F06C00E949E0E03C060E057
:101AE00070E0CB01DF91CF911F910F91FF90EF90AC
:101AF000DF90CF90BF90AF909F908F907F906F902E
:101B00000895611571058105910511F00C946E1011
:101B1000089508950E9459070E94890D0E9421018D
:101B2000CFE9D8E00E946B022097E1F30E949F0862
:101B3000F9CF08955058BB27AA270ED075C166D19A
:101B400030F06BD120F031F49F3F11F41EF45BC1F3
:101B50000EF4E095E7FB51C1E92F77D180F3BA1776
:101B6000620773078407950718F071F49EF58FC11B
:101B70000EF4E0950B2EBA2FA02D0B01B9019001A8
:101B80000C01CA01A0011124FF27591B99F0593FEC
:101B900050F4503E68F11A16F040A22F232F342F34
:101BA0004427585FF3CF469537952795A795F04082
:101BB0005395C9F77EF41F16BA0B620B730B840B97
:101BC000BAF09150A1F0FF0FBB1F661F771F881F4F
:101BD000C2F70EC0BA0F621F731F841F48F48795A7
:101BE00077956795B795F7959E3F08F0B3CF939596
:101BF000880F08F09927EE0F979587950895D9D00B
:101C000008F481E008950CD00FC107D140F0FED058
:101C100030F021F45F3F19F0F0C0511139C1F3C029
:101C200014D198F39923C9F35523B1F3951B550BA0
:101C3000BB27AA2762177307840738F09F5F5F4F9F
:101C4000220F331F441FAA1FA9F333D00E2E3AF0E0
:101C5000E0E830D091505040E695001CCAF729D0FA
:101C6000FE2F27D0660F771F881FBB1F2617370749
:101C70004807AB07B0E809F0BB0B802DBF01FF2779
:101C800093585F4F2AF09E3F510568F0B6C000C1DF
:101C90005F3FECF3983EDCF3869577956795B795B3
:101CA000F7959F5FC9F7880F911D9695879597F9CE
:101CB0000895E1E0660F771F881FBB1F6217730747
:101CC0008407BA0720F0621B730B840BBA0BEE1F5C
:101CD00088F7E095089504D06894B111D9C00895AB
:101CE000BCD088F09F5790F0B92F9927B751A0F03A
:101CF000D1F0660F771F881F991F1AF0BA95C9F7A0
:101D000012C0B13081F0C3D0B1E00895C0C0672FD8
:101D1000782F8827B85F39F0B93FCCF3869577954F
:101D20006795B395D9F73EF4909580957095619538
:101D30007F4F8F4F9F4F0895E89409C097FB3EF463
:101D400090958095709561957F4F8F4F9F4F992308
:101D5000A9F0F92F96E9BB279395F6958795779586
:101D60006795B795F111F8CFFAF4BB0F11F460FF46
:101D70001BC06F5F7F4F8F4F9F4F16C0882311F09E
:101D800096E911C0772321F09EE8872F762F05C0B2
:101D9000662371F096E8862F70E060E02AF09A954D
:101DA000660F771F881FDAF7880F9695879597F942
:101DB0000895990F0008550FAA0BE0E8FEEF1616DC
:101DC0001706E807F907C0F012161306E407F5072F
:101DD00098F0621B730B840B950B39F40A2661F0A3
:101DE000232B242B252B21F408950A2609F4A14046
:101DF000A6958FEF811D811D089597F99F6780E853
:101E000070E060E008959FEF80EC089500240A944C
:101E10001616170618060906089500240A941216C5
:101E20001306140605060895092E0394000C11F4F8
:101E3000882352F0BB0F40F4BF2B11F460FF04C0A5
:101E40006F5F7F4F8F4F9F4F089557FD9058440FFE
:101E5000551F59F05F3F71F04795880F97FB991F09
:101E600061F09F3F79F087950895121613061406C6
:101E7000551FF2CF4695F1DF08C016161706180653
:101E8000991FF1CF86957105610508940895E8942E
:101E9000BB2766277727CB0197F908958ADF08F4D7
:101EA0008FEF08950BD0C0CFB1DF28F0B6DF18F068
:101EB000952309F0A2CFA7CF1124EACFC6DFA0F364
:101EC000959FD1F3950F50E0551F629FF001729FCF
:101ED000BB27F00DB11D639FAA27F00DB11DAA1FEE
:101EE000649F6627B00DA11D661F829F2227B00D3B
:101EF000A11D621F739FB00DA11D621F839FA00DC6
:101F0000611D221F749F3327A00D611D231F849F15
:101F1000600D211D822F762F6A2F11249F5750406C
:101F20008AF0E1F088234AF0EE0FFF1FBB1F661F07
:101F3000771F881F91505040A9F79E3F510570F0C0
:101F40005CCFA6CF5F3FECF3983EDCF386957795A8
:101F50006795B795F795E7959F5FC1F7FE2B880FBB
:101F6000911D9695879597F9089523DF880B990B16
:101F70000895A1E21A2EAA1BBB1BFD010DC0AA1FCA
:101F8000BB1FEE1FFF1FA217B307E407F50720F0E2
:101F9000A21BB30BE40BF50B661F771F881F991F5D
:101FA0001A9469F760957095809590959B01AC01A6
:101FB000BD01CF010895052E97FB1EF400940E94E9
:101FC000F20F57FD07D00E94B90F07FC03D04EF463
:101FD0000C94F20F50954095309521953F4F4F4FFF
:101FE0005F4F089590958095709561957F4F8F4FC5
:101FF0009F4F0895EE0FFF1F0590F491E02D099477
:102000000E940B10A59F900DB49F900DA49F800D72
:10201000911D11240895A29FB001B39FC001A39FF9
:10202000700D811D1124911DB29F700D811D112411
:10203000911D08958F929F92AF92BF92CF92DF929F
:10204000EF92FF92CF93DF93EC01688179818A81CF
:102050009B81611571058105910521F464E279ED9B
:102060008BE597E02DE133EF41E050E00E94DB0F7C
:1020700049015A019B01AC01A7EAB1E40E9400109A
:102080006B017C01ACEEB4EFA50194010E94141326
:10209000C60ED71EE81EF91EF7FE06C081E0C81A5C
:1020A000D108E10880E8F80AC882D982EA82FB8276
:1020B000C701B6019F77DF91CF91FF90EF90DF903E
:1020C000CF90BF90AF909F908F9008950E941A106C
:1020D000089586E091E00E941A1008956093060129
:1020E0007093070180930801909309010895AEE071
:1020F000B0E0EDE7F0E10C9427130D891E8986E02E
:102100008C831A8309838FEF9FE79E838D83AE01B3
:10211000475E5F4F6F89788DCE0101960E949910BE
:10212000EF81F885E00FF11F10822E96E4E00C9409
:102130004313ACE0B0E0EFE9F0E10C9419137C013B
:102140006B018A01FC0117821682838181FFBDC168
:10215000CE0101964C01F7019381F60193FD859123
:1021600093FF81916F01882309F4ABC1853239F463
:1021700093FD859193FF81916F01853229F4B70119
:1021800090E00E948112E7CF512C312C20E02032C8
:10219000A0F48B3269F030F4803259F0833269F464
:1021A00020612CC08D3239F0803339F4216026C093
:1021B0002260246023C0286021C027FD27C030EDA5
:1021C000380F3A3078F426FF06C0FAE05F9E300DF3
:1021D0001124532E13C08AE0389E300D1124332E63
:1021E00020620CC08E3221F426FD6BC1206406C033
:1021F0008C3611F4206802C0883641F4F60193FD54
:10220000859193FF81916F018111C1CF982F9F7D9F
:102210009554933028F40C5F1F4FFFE3F9830DC0F2
:10222000833631F0833771F0833509F05BC022C00B
:10223000F801808189830E5F1F4F44244394512C01
:10224000540115C03801F2E06F0E711CF801A08036
:10225000B18026FF03C0652D70E002C06FEF7FEFF5
:10226000C5012C870E9476122C0183012C852F77C3
:10227000222E17C03801F2E06F0E711CF801A08009
:10228000B18026FF03C0652D70E002C06FEF7FEFC5
:10229000C5012C870E946B122C012C852068222EF0
:1022A000830123FC1BC0832D90E048165906B0F42F
:1022B000B70180E290E00E9481123A94F4CFF501D8
:1022C00027FC859127FE81915F01B70190E00E9474
:1022D000811231103A94F1E04F1A5108411451041F
:1022E00071F7E5C0843611F0893639F5F80127FF1A
:1022F00007C060817181828193810C5F1F4F08C08C
:1023000060817181882777FD8095982F0E5F1F4F20
:102310002F76B22E97FF09C09095809570956195A4
:102320007F4F8F4F9F4F2068B22E2AE030E0A401EC
:102330000E94B312A82EA81844C0853729F42F7E16
:10234000B22E2AE030E025C0F22FF97FBF2E8F3663
:10235000C1F018F4883579F0B4C0803719F08837A7
:1023600021F0AFC02F2F2061B22EB4FE0DC08B2DF7
:102370008460B82E09C024FF0AC09F2F9660B92E32
:1023800006C028E030E005C020E130E002C020E1D6
:1023900032E0F801B7FE07C06081718182819381CC
:1023A0000C5F1F4F06C06081718180E090E00E5F7E
:1023B0001F4FA4010E94B312A82EA818FB2DFF776F
:1023C000BF2EB6FE0BC02B2D2E7FA51450F4B4FEED
:1023D0000AC0B2FC08C02B2D2E7E05C07A2C2B2DF6
:1023E00003C07A2C01C0752C24FF0DC0FE01EA0D3C
:1023F000F11D8081803311F4297E09C022FF06C0BF
:102400007394739404C0822F867809F0739423FD2B
:1024100013C020FF06C05A2C731418F4530C57181D
:10242000732C731468F4B70180E290E02C870E944B
:10243000811273942C85F5CF731410F4371801C0F2
:10244000312C24FF12C0B70180E390E02C870E945A
:1024500081122C8522FF17C021FF03C088E590E080
:1024600002C088E790E0B7010CC0822F867859F04F
:1024700021FD02C080E201C08BE227FD8DE2B701A1
:1024800090E00E948112A51438F4B70180E390E037
:102490000E9481125A94F7CFAA94F401EA0DF11D1B
:1024A0008081B70190E00E948112A110F5CF332006
:1024B00009F451CEB70180E290E00E9481123A9473
:1024C000F6CFF7018681978102C08FEF9FEF2C96A0
:1024D000E2E10C943513FC0105906150704001104D
:1024E000D8F7809590958E0F9F1F0895FC0161503D
:1024F000704001900110D8F7809590958E0F9F1F26
:1025000008950F931F93CF93DF93182F092FEB019B
:102510008B8181FD03C08FEF9FEF20C082FF10C031
:102520004E815F812C813D81421753077CF4E88105
:10253000F9819F012F5F3F4F39832883108306C0A5
:10254000E885F985812F0995892B29F72E813F810F
:102550002F5F3F4F3F832E83812F902FDF91CF91AD
:102560001F910F910895FA01AA27283051F12031C7
:1025700081F1E8946F936E7F6E5F7F4F8F4F9F4F17
:10258000AF4FB1E03ED0B4E03CD0670F781F891F59
:102590009A1FA11D680F791F8A1F911DA11D6A0F27
:1025A000711D811D911DA11D20D009F468943F91DA
:1025B0002AE0269F11243019305D3193DEF6CF01D9
:1025C0000895462F4770405D4193B3E00FD0C9F79F
:1025D000F6CF462F4F70405D4A3318F0495D31FD0C
:1025E0004052419302D0A9F7EACFB4E0A69597955F
:1025F000879577956795BA95C9F700976105710535
:1026000008959B01AC010A2E06945795479537957E
:102610002795BA95C9F7620F731F841F951FA01DD8
:102620000895B7FF0C9400100E940010821B930BBA
:1026300008952F923F924F925F926F927F928F9266
:102640009F92AF92BF92CF92DF92EF92FF920F9341
:102650001F93CF93DF93CDB7DEB7CA1BDB0B0FB64B
:10266000F894DEBF0FBECDBF09942A883988488808
:102670005F846E847D848C849B84AA84B984C8849E
:10268000DF80EE80FD800C811B81AA81B981CE0F95
:10269000D11D0FB6F894DEBF0FBECDBFED0108957A
:0426A000F894FFCFDC
:1026A4000000BD02800001000000204E0000010077
:1026B40001253034642000204C49434B00484F4CE2
:1026C4004454494D4520005245535057494E20002B
:1026D40052455754494D452000544F54494D4520C7
:1026E400004445424F554E43452000205452494131
:1026F4004C002054540020544F4E00205354494D54
:102704004F4E0020524553504F4E002052455350D7
:102714004F464600204D4953530020434F525245E3
:10272400435452454A45435400205245574152446C
:102734004F4E00205245574152444F4646002054C4
:102744004F53544152540020544F454E440020549A
:102754004F46460000000000F0085C0A72088B082F
:102764007D08CE080D0A006E616E00696E66006F0A
:062774007666002E000055
:00000001FF
