:100000000C946B000C9493000C9493000C9493004C
:100010000C9493000C9493000C9493000C94930014
:100020000C9493000C9493000C9493000C94930004
:100030000C9493000C9493000C9493000C949300F4
:100040000C9415050C9493000C94E3040C94BD04DB
:100050000C9493000C9493000C9493000C949300D4
:100060000C9493000C94930033078F07B507040892
:100070005B08B5084B09EE09D20A00000000240015
:1000800027002A0000000000250028002B000000A7
:1000900000002300260029000404040404040404CE
:1000A0000202020202020303030303030102040823
:1000B00010204080010204081020010204081020D2
:1000C0000000000800020100000304070000000017
:1000D00000000000BE0B11241FBECFEFD8E0DEBF32
:1000E000CDBF11E0A0E0B1E0E0ECF2E202C005908B
:1000F0000D92A63EB107D9F722E0A6EEB1E001C00D
:100100001D92A03DB207E1F710E0CBE6D0E004C0BD
:100110002197FE010E94B20ECA36D107C9F70E948C
:100120005F050C945E110C940000E0913302F09195
:1001300034020190F081E02D682F83E392E009946E
:10014000CF92DF92EF92FF920F931F93CF93DF93A3
:100150006C017A018B01C0E0D0E0CE15DF0589F09B
:10016000D8016D918D01D601ED91FC910190F08146
:10017000E02DC6010995892B11F47E0102C021965C
:10018000ECCFC701DF91CF911F910F91FF90EF90BE
:10019000DF90CF900895089580E090E00895FC01ED
:1001A000538D448D252F30E0842F90E0821B930BDC
:1001B000541710F0CF96089501970895FC01918D82
:1001C000828D981761F0828DDF01A80FB11D5D96B9
:1001D0008C91928D9F5F9F73928F90E008958FEF27
:1001E0009FEF0895FC01918D828D981731F0828DDB
:1001F000E80FF11D858D90E008958FEF9FEF089532
:10020000FC01918D228D892F90E0805C9F4F821B95
:1002100091098F739927089583E392E00E9400016A
:1002200021E0892B09F420E0822F0895FC01848DC0
:10023000DF01A80FB11DA35ABF4F2C91848D90E010
:1002400001968F739927848FA689B7892C93A089EB
:10025000B1898C9180648C93938D848D981306C0A2
:100260000288F389E02D80818F7D80830895EF924D
:10027000FF920F931F93CF93DF93EC0181E0888F60
:100280009B8D8C8D981305C0E889F989808185FD47
:1002900024C0F62E0B8D10E00F5F1F4F0F73112738
:1002A000E02E8C8DE8120CC00FB607FCFACFE8895F
:1002B000F989808185FFF5CFCE010E941601F1CF2B
:1002C0008B8DFE01E80FF11DE35AFF4FF0820B8F7B
:1002D000EA89FB898081806207C0EE89FF8960839B
:1002E000E889F98980818064808381E090E0DF91F2
:1002F000CF911F910F91FF90EF900895CF93DF93CF
:10030000EC01888D8823C9F0EA89FB89808185FD0D
:1003100005C0A889B9898C9186FD0FC00FB607FC6E
:10032000F5CF808185FFF2CFA889B9898C9185FFAF
:10033000EDCFCE010E941601E7CFDF91CF91089556
:1003400080E090E0892B29F00E940C0181110C942F
:1003500000000895833081F028F4813099F08230D4
:10036000A1F008958730A9F08830B9F08430D1F435
:10037000809180008F7D03C0809180008F77809373
:100380008000089584B58F7702C084B58F7D84BDC9
:1003900008958091B0008F7703C08091B0008F7D69
:1003A0008093B0000895CF93DF93282F30E0F901B8
:1003B000E054FF4F8491F901E455FF4FD491F901C6
:1003C000E856FF4FC491CC2391F081110E94AA01FD
:1003D000EC2FF0E0EE0FFF1FE257FF4FA591B49115
:1003E000EC91ED2381E090E021F480E002C080E018
:1003F00090E0DF91CF9108951F93CF93DF93282F43
:1004000030E0F901E054FF4F8491F901E455FF4FCA
:10041000D491F901E856FF4FC491CC23C9F0162FAF
:1004200081110E94AA01EC2FF0E0EE0FFF1FEC57A4
:10043000FF4FA591B4918FB7F894111105C09C910D
:10044000ED2FE095E92302C0EC91ED2BEC938FBFEB
:10045000DF91CF911F910895CF93DF9390E0FC013E
:10046000E455FF4F2491FC01E856FF4F8491882307
:1004700061F190E0880F991FFC01E658FF4FC5918C
:10048000D491FC01EC57FF4FA591B491611109C0C3
:100490009FB7F8948881209582238883EC912E233E
:1004A0000BC0623061F49FB7F8943881822F809539
:1004B00083238883EC912E2B2C939FBF06C08FB78C
:1004C000F894E8812E2B28838FBFDF91CF91089578
:1004D0003FB7F8948091F1019091F201A091F3015E
:1004E000B091F40126B5A89B05C02F3F19F00196E5
:1004F000A11DB11D3FBFBA2FA92F982F8827820FAA
:10050000911DA11DB11DBC01CD0142E0660F771FF9
:10051000881F991F4A95D1F708952FB7F8946091D5
:10052000ED017091EE018091EF019091F0012FBFEC
:1005300008950F931F930E948D0260933B02709366
:100540003C0280933D0290933E02E0913302F09191
:1005500034020484F585E02D83E392E0099597FF4A
:100560001FC00E948D0200913B0210913C0220911D
:100570003D0230913E02DC01CB01801B910BA20BAE
:10058000B30B00913702109138022091390230915B
:100590003A0280179107A207B307B8F28FEF9FEFD7
:1005A0001F910F910895009769F0FC0101900020C0
:1005B000E9F73197AF01481B590BBC0183E392E087
:1005C0000C94A00080E090E00895CF93DF930E9408
:1005D000D302EC018CE191E00E94D3028C0F9D1FAD
:1005E000DF91CF9108958F929F92AF92BF920F9318
:1005F0001F93CF93DF93CDB7DEB7A1970FB6F894D3
:10060000DEBF0FBECDBF19A2423008F44AE08E0112
:100610000F5D1F4F842E912CA12CB12CA5019401AC
:100620000E94D40DE62FB901CA0101501109EA3028
:1006300014F4E05D01C0E95CD801EC93232B242B7A
:10064000252B61F7C8010E94D302A1960FB6F8943A
:10065000DEBF0FBECDBFDF91CF911F910F91BF9035
:10066000AF909F908F9008950C94D3024AE00C9421
:10067000F302CF92DF92EF92FF92CF93DF936C0160
:10068000990FEE08FF08F7FE12C08DE20E94950058
:10069000EC0166277727CB016C197D098E099F092C
:1006A0004AE00E94F3027C01EC0EFD1E06C04AE007
:1006B000C701B6010E94F3027C018CE191E00E9427
:1006C000D3028E0D9F1DDF91CF91FF90EF90DF90B1
:1006D000CF9008954F925F926F927F928F929F92E8
:1006E000AF92BF92CF92DF92EF92FF926B017C01AB
:1006F0009B01AC010E94AD0E882319F08FE191E0BF
:100700001AC046015701E894B7F82FEF3FEF4FE7C3
:100710005FE7C501B4010E94AD0E811110C02FEF3B
:100720003FEF4FE75FE7C501B4010E94470C181681
:1007300034F483E291E00E94D3027C017FC02FEF6A
:100740003FEF4FE75FE4C701B6010E94A80E1816FD
:100750001CF487E291E0EFCF2FEF3FEF4FE75FEC24
:10076000C701B6010E94470C87FDF3CF20E030E0BF
:10077000A901C701B6010E94470C87FF09C08DE29D
:100780000E9495005C01F7FAF094F7F8F09402C02B
:10079000A12CB12C2AE037ED43EA5BE3C701B60197
:1007A0000E94060E2B013C010E94790E6B017C0118
:1007B0000E944C0C9B01AC01C301B2010E94050ECA
:1007C0002B013C014AE0C701B6010E94F3027C0103
:1007D000EA0CFB1C8EE20E949500E80EF91E20E058
:1007E00030E040E251E4C301B2010E94AD0C2B01A4
:1007F0003C010E94790E4B01A12CB12C4AE0C501AD
:10080000B4010E94F302E80EF91EC501B4010E9472
:100810004C0C9B01AC01C301B2010E94050E20E00B
:1008200030E040E251E40E94AD0C0E94790E80E07D
:1008300090E04AE00E94F302E80EF91E8CE191E09C
:100840000E94D3028E0D9F1DFF90EF90DF90CF90FE
:10085000BF90AF909F908F907F906F905F904F90E0
:100860000895CF92DF92EF92FF920F931F93CF9351
:10087000DF9387E00E94D301EC018091EA0190911F
:10088000EB01C817D90751F00E9468026093E60196
:100890007093E7018093E8019093E9010E94680258
:1008A000C090E601D090E701E090E801F090E90106
:1008B000DC01CB018C199D09AE09BF090091000133
:1008C00010910101209102013091030108171907CD
:1008D0002A073B0708F042C080912302909124022E
:1008E000C817D907D9F1D0932402C09323026C2FE3
:1008F0008BE00E94FC01C130D10581F5C0920D0250
:10090000D0920E02E0920F02F09210028091050147
:100910008F93809104018F938BE291E09F938F934B
:1009200085E292E09F938F930E94BD0E85E292E054
:100930000E94340360910D0270910E0280910F02AB
:10094000909110020E94360381E391E00E94E5023B
:100950000F900F900F900F900F900F90D093EB018E
:10096000C093EA01DF91CF911F910F91FF90EF901B
:10097000DF90CF9008950E94B80E1F920F920FB68D
:100980000F9211242F933F934F935F936F937F9315
:100990008F939F93AF93BF93EF93FF9383E392E083
:1009A0000E941601FF91EF91BF91AF919F918F919E
:1009B0007F916F915F914F913F912F910F900FBE5B
:1009C0000F901F9018951F920F920FB60F9211243F
:1009D0002F938F939F93EF93FF93E0914302F091B6
:1009E00044028081E0914902F0914A0282FD12C0E6
:1009F000908180914C028F5F8F7320914D028217FE
:100A000051F0E0914C02F0E0ED5CFD4F958F80934A
:100A10004C0201C08081FF91EF919F918F912F91A6
:100A20000F900FBE0F901F9018951F920F920FB648
:100A30000F9211242F933F938F939F93AF93BF9364
:100A40008091ED019091EE01A091EF01B091F00144
:100A50003091EC0123E0230F2D3720F40196A11DE6
:100A6000B11D05C026E8230F0296A11DB11D2093DC
:100A7000EC018093ED019093EE01A093EF01B09310
:100A8000F0018091F1019091F201A091F301B091F8
:100A9000F4010196A11DB11D8093F1019093F20123
:100AA000A093F301B093F401BF91AF919F918F9107
:100AB0003F912F910F900FBE0F901F901895CF93DD
:100AC000DF93CDB7DEB7A4970FB6F894DEBF0FBEA5
:100AD000CDBF789484B5826084BD84B5816084BDC7
:100AE00085B5826085BD85B5816085BD80916E00CC
:100AF000816080936E0010928100809181008260FD
:100B00008093810080918100816080938100809139
:100B100080008160809380008091B1008460809328
:100B2000B1008091B00081608093B00080917A0024
:100B3000846080937A0080917A00826080937A004A
:100B400080917A00816080937A0080917A00806839
:100B500080937A001092C10060E087E00E942C022E
:100B600060E085E00E942C0261E089E00E942C0296
:100B700061E08BE00E942C0261E08CE00E942C027C
:100B800060E089E00E94FC01E0914302F0914402A0
:100B900082E08083E0913F02F09140021082E09178
:100BA0004102F091420287E6808310924B02E0916D
:100BB0004702F091480286E08083E0914502F0917F
:100BC0004602808180618083E0914502F091460277
:100BD000808188608083E0914502F09146028081A7
:100BE00080688083E0914502F091460280818F7D8C
:100BF000808383E392E00E94DE0083E392E00E9420
:100C0000000118161906CCF70091F5011091F601B4
:100C10000E949902FC0197FD17C08D32910509F4DD
:100C200038C5C0970A9708F434C5EE32F10509F4C7
:100C300030C5E0913302F09134020284F385E02D57
:100C400083E392E00995E4CF60E070E0CB01000F10
:100C5000111F000F111FE1E0F0E0EC0FFD1FE00F8E
:100C6000F11F60837183828393838091F50190915A
:100C7000F60101969093F6018093F50106970CF426
:100C8000BCCF29813A814B815C8120931F02309334
:100C9000200240932102509322024D805E806F809B
:100CA0007884409215025092160260921702709258
:100CB000180289849A84AB84BC8480920502909245
:100CC0000602A0920702B09208028D859E85AF852C
:100CD000B889898F9A8FAB8FBC8F8093FB019093DB
:100CE000FC01A093FD01B093FE01C988DA88EB886E
:100CF000FC88C701B60129A33AA34BA35CA30E94B9
:100D0000790E60930001709301018093020190932A
:100D100003018D899E89AF89B88D8D8F9E8FAF8F8E
:100D2000B8A38093190290931A02A0931B02B09368
:100D30001C0287E391E00E94340329A13AA14BA150
:100D40005CA1CA01B9010E946A0381E491E00E949A
:100D50003403C301B2010E946A038AE491E00E9455
:100D60003403C501B4010E946A0383E591E00E9447
:100D70003403698D7A8D8B8D9C8D0E946A038BE57F
:100D800091E00E943403C701B6010E946A0385E620
:100D900091E00E9434036D8D7E8D8F8D98A10E940D
:100DA0006A03809105018F93809104018F938BE2F8
:100DB00091E09F938F9385E292E09F938F930E949F
:100DC000BD0E85E292E00E9434030E9468020E94F8
:100DD00036038CE691E00E943403809104019091E7
:100DE00005010E94390380E480937C0080917A00A1
:100DF000806480937A000F900F900F900F900F9067
:100E00000F9080917A0086FDFCCF609178008091F0
:100E1000790070E0782B072E000C880B990B611578
:100E200071058105910511F00E943E0C83E392E06B
:100E30000E94DE0008E010E0EE24E394F12C37E09D
:100E4000C32ED12C42E0242E312C0E943104E0919B
:100E50003102F0913202E930F10508F017C4EC5C80
:100E6000FF4F0C94B20E83E392E00E94000118162B
:100E700019060CF00BC483E392E00E94DE0090930D
:100E8000300280932F020E94680260932B027093BD
:100E90002C0280932D0290932E0285E292E00E9414
:100EA000340360912B0270912C0280912D0290915D
:100EB0002E020E94360383E791E00E943403809162
:100EC0002F02909130020E943903F0923202E09298
:100ED0003102DCC30E948D024B015C01841895082D
:100EE000A608B70820E030E04AE754E460911F020A
:100EF0007091200280912102909122020E94AD0CFB
:100F00000E94720E86169706A806B90668F40E941B
:100F1000310480912302909124020197D9F60E9416
:100F20008D022B013C01D6CF0E94680260932B02F8
:100F300070932C0280932D0290932E0285E292E012
:100F40000E94340360912B0270912C0280912D023B
:100F500090912E020E94360387E791E00E94E502FD
:100F6000309232022092310291C385E00E94D30177
:100F700090931E0280931D02019709F087C30E947F
:100F8000680260932B0270932C0280932D02909341
:100F90002E0285E292E00E94340360912B02709150
:100FA0002C0280912D0290912E020E9436038CE734
:100FB00091E00E94E5020E9468022B013C019AE048
:100FC000892E912CA12CB12C0E946802DC01CB014E
:100FD00084199509A609B709883E9340A105B10572
:100FE00058F091E0891A9108A108B108A8EE4A0EBC
:100FF000A3E05A1E611C711C81149104A104B10468
:1010000019F783E090E0ACC00E948D022B013C01F7
:101010000E948D024B015C0184189508A608B70850
:1010200020E030E04AE754E46091190270911A021E
:1010300080911B0290911C020E94AD0C0E94720EC6
:1010400086169706A806B90640F50E9431048091DD
:101050002302909124020197D9F60E9468026093BE
:101060002B0270932C0280932D0290932E0285E226
:1010700092E00E94340360912B0270912C028091C7
:101080002D0290912E020E94360384E891E00E9486
:10109000E502D0923202C0923102809131029091E9
:1010A0003202079709F4F2C2A4E0B0E0B093320232
:1010B000A0933102EBC285E00E94D3015C019093C2
:1010C0001E0280931D02019709F0E0C20E9468028F
:1010D0002B013C0160932B0270932C0280932D0214
:1010E00090932E0220E034E244E759E46091150227
:1010F0007091160280911702909118020E94AD0C17
:101100000E94790EDC01CB01840D951DA61DB71D33
:101110008093110290931202A0931302B0931402D1
:1011200085E292E00E94340360912B0270912C02C0
:1011300080912D0290912E020E94360380E991E069
:101140000E94E50210920D0210920E0210920F0200
:1011500010921002B0920C02A0920B0285E090E077
:10116000909332028093310291C280910D0290914E
:101170000E02A0910F02B09110020097A105B105D7
:1011800009F44BC040911102509112026091130278
:101190007091140284179507A607B707F0F54091E0
:1011A0002B0250912C0260912D0270912E02481753
:1011B00059076A077B0788F580912F0290913002CA
:1011C0008133910599F485E292E00E9434030E94F4
:1011D00068020E94360388E991E00E94E502A6E0D9
:1011E000B0E0B0933202A093310217C0C29789F4E5
:1011F00085E292E00E9434030E9468020E94360356
:1012000088E991E00E94E5021093320200933102D6
:1012100004C0D0923202C09231020E9468028090D3
:10122000110290901202A0901302B0901402861640
:101230009706A806B90608F029C285E292E00E9446
:1012400034030E9468020E9436038DE991E00E94F7
:10125000E50210920C0210920B0280912F029091E5
:101260003002C1975CF085E292E00E9434030E9454
:1012700068020E94360386EA91E00AC085E292E0A5
:101280000E9434030E9468020E9436038CEA91E0B7
:101290000E94E50282C180910B0290910C0201979D
:1012A000F9F40E9468028090110290901202A090BE
:1012B0001302B090140286169706A806B90680F4A9
:1012C00085E292E00E9434030E9468020E94360385
:1012D0008DE991E00E94E50210920C0210920B023F
:1012E0008091090290910A02892B09F04EC061E0B9
:1012F00089E00E94FC0161E08CE00E94FC010E94F8
:10130000680260932B0270932C0280932D029093BD
:101310002E0285E292E00E94340360912B027091CC
:101320002C0280912D0290912E020E9436038BEBAD
:1013300091E00E94E50220E034E244E759E4609144
:1013400005027091060280910702909108020E94A6
:10135000AD0C0E94790E80902B0290902C02A090F0
:101360002D02B0902E02DC01CB01880D991DAA1D23
:10137000BB1D8093010290930202A0930302B093DD
:101380000402F0920A02E09209020E946802809030
:10139000010290900202A0900302B090040286160F
:1013A0009706A806B90608F071C160E089E00E94BE
:1013B000FC0160E08CE00E94FC0185E292E00E946A
:1013C00034030E9468020E94360385EC91E00E947B
:1013D000E50210920A0210920902DFC080910B020E
:1013E00090910C020197F9F40E946802809011021A
:1013F00090901202A0901302B090140286169706E5
:10140000A806B90680F485E292E00E9434030E94A7
:1014100068020E9436038DE991E00E94E502109275
:101420000C0210920B028091FF0190910002892B17
:10143000F1F50E9468024B015C0160932B027093EE
:101440002C0280932D0290932E0220E034E244E798
:1014500059E46091FB017091FC018091FD01909134
:10146000FE010E94AD0C0E94790E860E971EA81EEA
:10147000B91E8092F7019092F801A092F901B09202
:10148000FA0185E292E00E94340360912B02709190
:101490002C0280912D0290912E020E94360380ED45
:1014A00091E00E94E502F0920002E092FF0180913B
:1014B000FF0190910002019709F0E8C040910D02F0
:1014C00050910E0260910F027091100280912B02D8
:1014D00090912C02A0912D02B0912E0284179507B5
:1014E000A607B707D0F50E9468024B015C01609324
:1014F0002B0270932C0280932D0290932E0220E0F9
:1015000034E244E759E46091FB017091FC01809161
:10151000FD019091FE010E94AD0C0E94790E860E95
:10152000971EA81EB91E8092F7019092F801A09212
:10153000F901B092FA0185E292E00E9434036091D1
:101540002B0270912C0280912D0290912E020E940C
:10155000360380ED91E00E94E5020E9468028090CF
:10156000F7019090F801A090F901B090FA01681588
:1015700079058A059B0508F489C085E292E00E94FE
:1015800034030E9468020E94360389ED91E00E94B4
:10159000E502109200021092FF01109332020093B4
:1015A000310274C080910B0290910C020197F9F402
:1015B0000E9468028090110290901202A090130283
:1015C000B090140286169706A806B90680F485E244
:1015D00092E00E9434030E9468020E9436038DE963
:1015E00091E00E94E50210920C0210920B02809191
:1015F0000B0290910C02892B09F048C085E292E021
:101600000E9434030E9468020E94360380EE91E03B
:101610000E94E5028091040190910501019690934A
:101620000501809304019F938F93ABE2B1E0BF93D8
:10163000AF9385E292E09F938F930E94BD0E85E267
:1016400092E00E9434030E9468020E9436038CE6F6
:1016500091E00E94340380910401909105010E9461
:10166000390383E392E00E9400010F900F900F90E6
:101670000F900F900F901816190624F483E392E050
:101680000E94DE0010923202109231020E94A001EC
:10169000DCCB412C512C80E8682E8FE3782EC12CB6
:1016A000D12C7601B12CA12CE130F10579F1ED328C
:1016B000F10539F1EE32F10539F1CF01C0970A9702
:1016C00028F5AAE0B0E0A70196010E948A0D6F01FB
:1016D000FF0FEE08FF08C60ED71EE81EF91E20E316
:1016E000C21AD108E108F108BB2081F02DEC3CECD6
:1016F0004CEC5DE3C301B2010E94AD0C2B013C0137
:1017000005C0AA24A39402C0BB24B394E091330281
:10171000F09134020284F385E02D83E392E0099591
:101720000E949902FC01C0970A9708F4BDCFEE32DF
:10173000F10519F4B1101FC0B7CFE130F10509F47C
:10174000B3CFAA2041F0F094E094D094C094C11C8F
:10175000D11CE11CF11CBB2049F0C701B6010E945D
:101760004E0CA30192010E94AD0C71CAC701B601D3
:101770000E944E0C6CCAA110E6CFEFCFE3E3F2E07B
:101780001382128288EE93E0A0E0B0E08483958318
:10179000A683B7838EE091E09183808385EC90E00F
:1017A0009587848784EC90E09787868780EC90E02B
:1017B000918B808B81EC90E0938B828B82EC90E01C
:1017C000958B848B86EC90E0978B868B118E128E96
:1017D000138E148E08958F929F92AF92BF92CF92E4
:1017E000DF92EF92FF92CF93DF93EC0168817981D2
:1017F0008A819B81611571058105910521F464E25F
:1018000079ED8BE597E02DE133EF41E050E00E9468
:101810006B0D49015A019B01AC01A7EAB1E40E949A
:101820008A0D6B017C01ACEEB4EFA50194010E941E
:10183000980DDC01CB018C0D9D1DAE1DBF1DB7FFAA
:1018400003C00197A109B04888839983AA83BB8309
:10185000BC01CD019F77DF91CF91FF90EF90DF909A
:10186000CF90BF90AF909F908F9008950E94EB0B08
:10187000089586E091E00E94EB0B089560930601C5
:1018800070930701809308019093090108950E94C5
:10189000890C08F481E00895E89409C097FB3EF4B0
:1018A00090958095709561957F4F8F4F9F4F9923AD
:1018B000A9F0F92F96E9BB279395F695879577952B
:1018C0006795B795F111F8CFFAF4BB0F11F460FFEB
:1018D0001BC06F5F7F4F8F4F9F4F16C0882311F043
:1018E00096E911C0772321F09EE8872F762F05C057
:1018F000662371F096E8862F70E060E02AF09A95F2
:10190000660F771F881FDAF7880F9695879597F9E6
:101910000895990F0008550FAA0BE0E8FEEF161680
:101920001706E807F907C0F012161306E407F507D3
:1019300098F0621B730B840B950B39F40A2661F047
:10194000232B242B252B21F408950A2609F4A140EA
:10195000A6958FEF811D811D08950E94C00C0C94E7
:10196000310D0E94230D38F00E942A0D20F095239E
:1019700011F00C941A0D0C94200D11240C94650D8B
:101980000E94420D70F3959FC1F3950F50E0551FD3
:10199000629FF001729FBB27F00DB11D639FAA27C4
:1019A000F00DB11DAA1F649F6627B00DA11D661F13
:1019B000829F2227B00DA11D621F739FB00DA11D34
:1019C000621F839FA00D611D221F749F3327A00DEE
:1019D000611D231F849F600D211D822F762F6A2F8A
:1019E00011249F5750409AF0F1F088234AF0EE0FEF
:1019F000FF1FBB1F661F771F881F91505040A9F71C
:101A00009E3F510580F00C941A0D0C94650D5F3FBC
:101A1000E4F3983ED4F3869577956795B795F79557
:101A2000E7959F5FC1F7FE2B880F911D96958795CF
:101A300097F9089597F99F6780E870E060E008954E
:101A40009FEF80EC089500240A94161617061806D6
:101A50000906089500240A941216130614060506B2
:101A60000895092E0394000C11F4882352F0BB0F43
:101A700040F4BF2B11F460FF04C06F5F7F4F8F4FA6
:101A80009F4F089557FD9058440F551F59F05F3FE1
:101A900071F04795880F97FB991F61F09F3F79F090
:101AA00087950895121613061406551FF2CF469512
:101AB000F1DF08C0161617061806991FF1CF869594
:101AC0007105610508940895E894BB276627772778
:101AD000CB0197F90895052E97FB1EF400940E9400
:101AE000820D57FD07D00E94D40D07FC03D04EF4A1
:101AF0000C94820D50954095309521953F4F4F4F56
:101B00005F4F089590958095709561957F4F8F4FA9
:101B10009F4F08950E94F60DA59F900DB49F900DC4
:101B2000A49F800D911D11240895B7FF0C948A0D78
:101B30000E948A0D821B930B08952F923F924F9221
:101B40005F926F927F928F929F92AF92BF92CF924D
:101B5000DF92EF92FF920F931F93CF93DF93CDB756
:101B6000DEB7CA1BDB0B0FB6F894DEBF0FBECDBFCE
:101B700009942A88398848885F846E847D848C849F
:101B80009B84AA84B984C884DF80EE80FD800C81A8
:101B90001B81AA81B981CE0FD11D0FB6F894DEBF8B
:101BA0000FBECDBFED010895A1E21A2EAA1BBB1BEB
:101BB000FD010DC0AA1FBB1FEE1FFF1FA217B30719
:101BC000E407F50720F0A21BB30BE40BF50B661F2F
:101BD000771F881F991F1A9469F7609570958095F3
:101BE00090959B01AC01BD01CF010895A29FB0016A
:101BF000B39FC001A39F700D811D1124911DB29F41
:101C0000700D811D1124911D08955058BB27AA27DE
:101C10000E941D0E0C94310D0E94230D38F00E947D
:101C20002A0D20F039F49F3F19F426F40C94200D6E
:101C30000EF4E095E7FB0C941A0DE92F0E94420D7B
:101C400058F3BA17620773078407950720F079F4F1
:101C5000A6F50C94640D0EF4E0950B2EBA2FA02D72
:101C60000B01B90190010C01CA01A0011124FF2749
:101C7000591B99F0593F50F4503E68F11A16F04044
:101C8000A22F232F342F4427585FF3CF4695379543
:101C90002795A795F0405395C9F77EF41F16BA0B08
:101CA000620B730B840BBAF09150A1F0FF0FBB1FB6
:101CB000661F771F881FC2F70EC0BA0F621F731FFF
:101CC000841F48F4879577956795B795F7959E3F5C
:101CD00008F0B0CF9395880F08F09927EE0F9795ED
:101CE000879508950E94790E6894B1110C94650D42
:101CF00008950E944A0D88F09F5798F0B92F9927B0
:101D0000B751B0F0E1F0660F771F881F991F1AF0E6
:101D1000BA95C9F714C0B13091F00E94640DB1E0DA
:101D200008950C94640D672F782F8827B85F39F0D9
:101D3000B93FCCF3869577956795B395D9F73EF47F
:101D400090958095709561957F4F8F4F9F4F089527
:101D50000E94890C08F48FEF08950E94890C880B6B
:101D6000990B0895EE0FFF1F0590F491E02D099453
:101D700081E090E0F8940C945E11AEE0B0E0E3EC0A
:101D8000FEE00C94AB0D0D891E8986E08C831A83CE
:101D900009838FEF9FE79E838D83AE01475E5F4F80
:101DA0006F89788DCE0101960E94E00E2F813885D3
:101DB000F801E20FF31F10822E96E4E00C94C70D99
:101DC000ACE0B0E0E6EEFEE00C949D0D7C016B0112
:101DD0008A01FC0117821682838181FFBDC1CE0179
:101DE00001964C01F7019381F60193FD859193FFD4
:101DF00081916F01882309F4ABC1853239F493FDD9
:101E0000859193FF81916F01853229F4B70190E0AC
:101E10000E94C810E7CF512C312C20E02032A0F4D2
:101E20008B3269F030F4803259F0833269F42061EA
:101E30002CC08D3239F0803339F4216026C0226005
:101E4000246023C0286021C027FD27C030ED380F53
:101E50003A3078F426FF06C0FAE05F9E300D112478
:101E6000532E13C08AE0389E300D1124332E206289
:101E70000CC08E3221F426FD6BC1206406C08C3666
:101E800011F4206802C0883641F4F60193FD859173
:101E900093FF81916F018111C1CF982F9F7D955440
:101EA000933028F40C5F1F4FFFE3F9830DC0833696
:101EB00031F0833771F0833509F05BC022C0F8013F
:101EC000808189830E5F1F4F44244394512C540119
:101ED00015C03801F2E06F0E711CF801A080B180CE
:101EE00026FF03C0652D70E002C06FEF7FEFC501D4
:101EF0002C870E94BD102C0183012C852F77222E68
:101F000017C03801F2E06F0E711CF801A080B1809B
:101F100026FF03C0652D70E002C06FEF7FEFC501A3
:101F20002C870E94B2102C012C852068222E830160
:101F300023FC1BC0832D90E048165906B0F4B7016E
:101F400080E290E00E94C8103A94F4CFF50127FC9B
:101F5000859127FE81915F01B70190E00E94C81032
:101F600031103A94F1E04F1A51084114510471F7BD
:101F7000E5C0843611F0893639F5F80127FF07C02E
:101F800060817181828193810C5F1F4F08C06081E5
:101F90007181072E000C880B990B0E5F1F4F2F7657
:101FA000722E97FF09C090958095709561957F4F2F
:101FB0008F4F9F4F2068722E2AE030E0A4010E94CC
:101FC0000011A82EA81844C0853729F42F7EB22E00
:101FD0002AE030E025C0F22FF97FBF2E8F36C1F006
:101FE00018F4883579F0B4C0803719F0883721F0BB
:101FF000AFC02F2F2061B22EB4FE0DC08B2D846098
:10200000B82E09C024FF0AC09F2F9660B92E06C0C3
:1020100028E030E005C020E130E002C020E132E0FD
:10202000F801B7FE07C060817181828193810C5FE6
:102030001F4F06C06081718180E090E00E5F1F4FEE
:10204000A4010E940011A82EA818FB2DFF777F2E57
:1020500076FE0BC0372D3E7FA51450F474FE0AC0E7
:1020600072FC08C0372D3E7E05C0BA2C372D03C048
:10207000BA2C01C0B52C34FF0DC0FE01EA0DF11DD4
:102080008081803311F4397E09C032FF06C0B394D9
:10209000B39404C0832F867809F0B39433FD13C042
:1020A00030FF06C05A2CB31418F4530C5B18B32C31
:1020B000B31468F4B70180E290E03C870E94C81036
:1020C000B3943C85F5CFB31410F43B1801C0312C08
:1020D00034FF12C0B70180E390E03C870E94C81033
:1020E0003C8532FF17C031FD03C088E790E002C095
:1020F00088E590E0B7010CC0832F867859F031FF56
:1021000002C08BE201C080E237FD8DE2B70190E0B2
:102110000E94C810A51438F4B70180E390E00E9433
:10212000C8105A94F7CFAA94F401EA0DF11D8081EA
:10213000B70190E00E94C810A110F5CF332009F438
:1021400051CEB70180E290E00E94C8103A94F6CFD9
:10215000F7018681978102C08FEF9FEF2C96E2E115
:102160000C94B90DFC010590615070400110D8F736
:10217000809590958E0F9F1F0895FC0161507040CF
:1021800001900110D8F7809590958E0F9F1F0895AC
:102190000F931F93CF93DF93FB01238121FD03C096
:1021A0008FEF9FEF28C022FF16C046815781248100
:1021B00035814217530744F4A081B1819D012F5FFF
:1021C0003F4F318320838C93268137812F5F3F4F90
:1021D0003783268310C0EB01092F182F0084F18567
:1021E000E02D0995892BE1F68E819F8101969F83D1
:1021F0008E83812F902FDF91CF911F910F910895A2
:10220000FA01AA27283051F1203181F1E8946F9327
:102210006E7F6E5F7F4F8F4F9F4FAF4FB1E03ED0CD
:10222000B4E03CD0670F781F891F9A1FA11D680F6B
:10223000791F8A1F911DA11D6A0F711D811D911D9E
:10224000A11D20D009F468943F912AE0269F112413
:102250003019305D3193DEF6CF010895462F477077
:10226000405D4193B3E00FD0C9F7F6CF462F4F70D2
:10227000405D4A3318F0495D31FD4052419302D030
:10228000A9F7EACFB4E0A6959795879577956795D6
:10229000BA95C9F700976105710508959B01AC01D6
:1022A0000A2E06945795479537952795BA95C9F7FD
:1022B000620F731F841F951FA01D0895F894FFCF10
:1022C000204E000001000100000000000000370166
:1022D000A000CF007E010001DE00F2000D0A006EBA
:1022E000616E00696E66006F76660025303464208A
:1022F00000204C49434B00484F4C4454494D452025
:10230000005245535057494E200052455754494DAD
:10231000452000544F54494D4520004445424F55F7
:102320004E4345200041424F525420002054524910
:10233000414C002054540020544F4E002053544927
:102340004D4F4E00204541524C5941424F5254008E
:1023500020524553504F4E002048495400205245CA
:1023600053504F464600204D4953530020434F528F
:102370005245435452454A45435400205245574123
:1023800052444F4E00205245574152444F4646005A
:1023900020544F53544152540020544F454E440052
:0623A00020544F464600E8
:00000001FF
