:100000000C9462000C948A000C948A000C948A0070
:100010000C948A000C948A000C948A000C948A0038
:100020000C948A000C948A000C948A000C948A0028
:100030000C948A000C948A000C948A000C948A0018
:100040000C942D020C948A000C94E7040C9419056E
:100050000C948A000C948A000C948A000C948A00F8
:100060000C948A000C948A00000000080002010031
:100070000003040700000000000000000102040863
:100080001020408001020408102001020408102002
:10009000040404040404040402020202020203032E
:1000A00003030303000000002300260029000000D2
:1000B0000000250028002B0000000000240027007D
:1000C0002A00490511241FBECFEFD8E0DEBFCDBF07
:1000D00011E0A0E0B1E0ECE3F6E102C005900D9282
:1000E000AA35B107D9F722E0AAE5B1E001C01D9217
:1000F000AA31B207E1F710E0C4ECD0E004C02297C7
:10010000FE010E94090BC23CD107C9F70E94AC084E
:100110000C941C0B0C940000CF92DF92EF92FF9294
:10012000CF93DF9387E00E947903EC010E94830262
:100130006B017C018091660190916701A09168013B
:10014000B0916901C81AD90AEA0AFB0A20E034E230
:1001500044E759E460915E0170915F018091600114
:10016000909161010E94730A0E948C096C157D05B3
:100170008E059F0520F460E089E00E944303809192
:100180006E0190916F01C817D90791F00E94830208
:1001900060936201709363018093640190936501A1
:1001A00060936A0170936B0180936C0190936D0171
:1001B0000E948302C0906201D0906301E0906401CC
:1001C000F09065016C197D098E099F090E94BD0997
:1001D00020910601309107014091080150910901D9
:1001E0000E946F0A18160CF067C080917001909100
:1001F0007101C817D90709F45FC0D0937101C0938A
:100200007001C130D10509F057C06AE071E08DE797
:1002100091E00E94CA0540916A0150916B01609182
:100220006C0170916D012AE030E08DE791E00E9451
:100230008F060E9483026B017C0180916601909180
:100240006701A0916801B0916901C81AD90AEA0A48
:10025000FB0A20E034E244E759E460915A017091CE
:100260005B0180915C0190915D010E94730A0E9484
:100270008C096C157D058E059F05F0F461E089E021
:100280000E9443030E94830260936601709367019A
:1002900080936801909369016EE071E08DE791E0D1
:1002A0000E94CA050E948302AB01BC012AE030E033
:1002B0008DE791E00E948F06D0936F01C0936E018D
:1002C000DF91CF91FF90EF90DF90CF9008954F9204
:1002D0005F926F927F928F929F92AF92BF92CF92D6
:1002E000DF92EF92FF92CF93DF93CDB7DEB72C97DB
:1002F0000FB6F894DEBF0FBECDBF60E087E00E946E
:100300000A0361E089E00E940A036091720189E0BA
:100310000E94430326E040E855E260E070E08DE78C
:1003200091E00E94850462E171E08DE791E00E9416
:10033000D7058DE791E00E94BB03E12CF12C67010A
:10034000CC0CDD1CCC0CDD1C81E090E08C0F9D1FE3
:10035000C80ED91EA12CB12C8DE791E00E94A203FA
:100360001816190664F741E060E070E08DE791E04F
:100370000E940F08F601EA0DFB1D608371838283E2
:1003800093838FEFE81AF80A94E0A90EB11C83E07A
:10039000E816F1040CF349805A806B807C8040920F
:1003A0005A0150925B0160925C0170925D018D80F8
:1003B0009E80AF80B88480925E0190925F01A0928F
:1003C0006001B0926101C984DA84EB84FC84C0923C
:1003D0000601D0920701E0920801F09209016EE156
:1003E00071E08DE791E00E94CA0522E030E0B301A0
:1003F000A2018DE791E00E948C0768E271E08DE731
:1004000091E00E94CA0522E030E0B501A4018DE729
:1004100091E00E948C0760E371E08DE791E00E941B
:10042000CA0522E030E0B701A6018DE791E02C96E5
:100430000FB6F894DEBF0FBECDBFDF91CF91FF9016
:10044000EF90DF90CF90BF90AF909F908F907F9074
:100450006F905F904F900C948C071F920F920FB685
:100460000F9211242F933F938F939F93AF93BF933A
:100470008091750190917601A0917701B0917801FA
:100480003091740123E0230F2D3720F40196A11D34
:10049000B11D05C026E8230F0296A11DB11D2093B2
:1004A00074018093750190937601A0937701B093C6
:1004B00078018091790190917A01A0917B01B091AE
:1004C0007C010196A11DB11D8093790190937A0161
:1004D000A0937B01B0937C01BF91AF919F918F91CD
:1004E0003F912F910F900FBE0F901F9018952FB72F
:1004F000F8946091750170917601809177019091E7
:1005000078012FBF08953FB7F894809179019091B9
:100510007A01A0917B01B0917C0126B5A89B05C012
:100520002F3F19F00196A11DB11D3FBF6627782FFF
:10053000892F9A2F620F711D811D911D42E0660F58
:10054000771F881F991F4A95D1F70895789484B52D
:10055000826084BD84B5816084BD85B5826085BDBF
:1005600085B5816085BDEEE6F0E0808181608083A5
:10057000E1E8F0E010828081826080838081816088
:100580008083E0E8F0E0808181608083E1EBF0E04F
:10059000808184608083E0EBF0E0808181608083F3
:1005A000EAE7F0E0808184608083808182608083DC
:1005B0008081816080838081806880831092C10007
:1005C0000895833081F028F4813099F08230A1F0D1
:1005D00008958730A9F08830B9F08430D1F4809143
:1005E00080008F7D03C0809180008F778093800092
:1005F000089584B58F7702C084B58F7D84BD08953A
:100600008091B0008F7703C08091B0008F7D809380
:10061000B0000895CF93DF9390E0FC01E458FF4FC2
:100620002491FC01E057FF4F8491882349F190E029
:10063000880F991FFC01E854FF4FA591B491825592
:100640009F4FFC01C591D4919FB7611108C0F894E8
:100650008C91209582238C93888182230AC06230FA
:1006600051F4F8948C91322F309583238C938881A8
:10067000822B888304C0F8948C91822B8C939FBF2B
:10068000DF91CF9108950F931F93CF93DF931F9224
:10069000CDB7DEB7282F30E0F901E859FF4F84913C
:1006A000F901E458FF4F1491F901E057FF4F04910D
:1006B0000023C9F0882321F069830E94E102698147
:1006C000E02FF0E0EE0FFF1FE255FF4FA591B49130
:1006D0009FB7F8948C91611103C01095812301C0DC
:1006E000812B8C939FBF0F90DF91CF911F910F9122
:1006F0000895CF93DF93282F30E0F901E859FF4F99
:100700008491F901E458FF4FD491F901E057FF4F6C
:10071000C491CC2391F081110E94E102EC2FF0E012
:10072000EE0FFF1FEC55FF4FA591B4912C912D2397
:1007300081E090E021F480E002C080E090E0DF9171
:10074000CF910895FC01818D228D90E0805C9F4FB8
:10075000821B91098F7399270895FC01918D828DD9
:10076000981731F0828DE80FF11D858D90E0089586
:100770008FEF9FEF0895FC01918D828D981761F0A6
:10078000828DDF01A80FB11D5D968C91928D9F5FC8
:100790009F73928F90E008958FEF9FEF08958FE3FE
:1007A00095E0892B49F080E090E0892B29F00E94A8
:1007B0003F0581110C9400000895FC01848DDF0138
:1007C000A80FB11DA35ABF4F2C91848D90E00196C4
:1007D0008F739927848FA689B7892C93A089B189B3
:1007E0008C9180648C93938D848D981306C00288BD
:1007F000F389E02D80818F7D80830895CF93DF93EF
:10080000EC01888D8823C9F0EA89FB89808185FD08
:1008100005C0A889B9898C9186FD0FC00FB607FC69
:10082000F5CF808185FFF2CFA889B9898C9185FFAA
:10083000EDCFCE010E94DD03E7CFDF91CF91089588
:10084000CF92DF92FF920F931F93CF93DF931F926C
:10085000CDB7DEB76C0181E0D60158968C935897DE
:100860005B969C915B975C968C915C97981307C004
:100870005096ED91FC915197808185FD2EC0F60137
:10088000038D10E00F5F1F4F0F731127F02EF6013D
:10089000848DF81211C00FB607FCF9CFD60150961F
:1008A000ED91FC915197808185FFF1CFC60169835D
:1008B0000E94DD036981EBCF838DE80FF11DE35AC0
:1008C000FF4F6083D6015B960C935B975296ED9138
:1008D000FC915397808180620CC0D6015696ED91B1
:1008E000FC91579760835096ED91FC9151978081D0
:1008F0008064808381E090E00F90DF91CF911F9121
:100900000F91FF90DF90CF900895BF92CF92DF922A
:10091000EF92FF92CF93DF93EC016A017B01B22E3D
:10092000E889F98982E08083411581EE58076105E5
:100930007105A1F060E079E08DE390E0A7019601F8
:100940000E94DA0A2150310941095109569547950B
:1009500037952795211580E1380798F0E889F989BE
:10096000108260E874E88EE190E0A70196010E9491
:10097000DA0A2150310941095109569547953795B1
:100980002795EC85FD853083EE85FF852083188EC5
:10099000EC89FD89B082EA89FB898081806180834E
:1009A000EA89FB89808188608083EA89FB8980816C
:1009B00080688083EA89FB8980818F7D8083DF91D5
:1009C000CF91FF90EF90DF90CF90BF9008951F924E
:1009D0000F920FB60F9211242F938F939F93EF9343
:1009E000FF93E0918D01F0918E018081E091930160
:1009F000F091940182FD12C09081809196018F5FE9
:100A00008F7320919701821751F0E0919601F0E0E9
:100A1000E358FE4F958F8093960101C08081FF912E
:100A2000EF919F918F912F910F900FBE0F901F907C
:100A300018951F920F920FB60F9211242F933F9388
:100A40004F935F936F937F938F939F93AF93BF93D6
:100A5000EF93FF938DE791E00E94DD03FF91EF910B
:100A6000BF91AF919F918F917F916F915F914F91C6
:100A70003F912F910F900FBE0F901F9018958DE70B
:100A800091E00E94A20321E0892B09F420E0822F4B
:100A900008951092800110927F0188EE93E0A0E00B
:100AA000B0E08093810190938201A0938301B09381
:100AB00084018EE391E090937E0180937D0185EC2B
:100AC00090E090938A018093890184EC90E0909368
:100AD0008C0180938B0180EC90E090938E01809349
:100AE0008D0181EC90E09093900180938F0182ECD6
:100AF00090E0909392018093910186EC90E0909326
:100B00009401809393011092960110929701109294
:100B10009801109299010895CF92DF92EF92FF927F
:100B20000F931F93CF93DF937C016A01EB0100E0E9
:100B300010E00C151D0571F06991D701ED91FC9144
:100B40000190F081E02DC7010995892B19F00F5F05
:100B50001F4FEFCFC801DF91CF911F910F91FF90F1
:100B6000EF90DF90CF9008956115710581F0DB0162
:100B70000D900020E9F7AD0141505109461B570B7C
:100B8000DC01ED91FC910280F381E02D099480E07D
:100B900090E008950C94B405DC01ED91FC91019076
:100BA000F081E02D09946AE471E00C94B4050F9390
:100BB0001F93CF93DF93EC010E94B4058C01CE010B
:100BC0000E94D305800F911FDF91CF911F910F914C
:100BD00008958F929F92AF92BF92DF92EF92FF9211
:100BE0000F931F93CF93DF93CDB7DEB7A1970FB6C7
:100BF000F894DEBF0FBECDBF7C01F42FD52ECB0104
:100C000019A2223008F42AE08E010F5D1F4F822EB8
:100C1000912CA12CB12C6F2F7D2DA50194010E9448
:100C2000DA0AF22FD32ECA01015011096A3014F4E6
:100C3000E0E301C0E7E3E60FD801EC93232B242B7C
:100C4000252B49F7B801C7010E94B405A1960FB63C
:100C5000F894DEBF0FBECDBFDF91CF911F910F91F2
:100C6000FF90EF90DF90BF90AF909F908F9008958E
:100C7000CF92DF92EF92FF920F931F93CF93DF9368
:100C8000EC016A017B012115310579F4E881F981D4
:100C90000190F081E02D642FDF91CF911F910F9192
:100CA000FF90EF90DF90CF9009942A303105E9F45E
:100CB00077FF1AC06DE20E94CC058C0144275527AE
:100CC000BA014C195D096E097F092AE0CE010E9424
:100CD000E905800F911FDF91CF911F910F91FF9038
:100CE000EF90DF90CF9008952AE0B701A601CE01E2
:100CF000DF91CF911F910F91FF90EF90DF90CF90F8
:100D00000C94E9052115310541F4DC01ED91FC91CC
:100D10000190F081E02D642F09940C94E9050F9364
:100D20001F93CF93DF93EC010E9482068C01CE01CA
:100D30000E94D305800F911FDF91CF911F910F91DA
:100D400008954F925F926F927F928F929F92AF928F
:100D5000BF92CF92DF92EF92FF920F931F93CF93A8
:100D6000DF93EC016A017B01B22E9A01AB01C7014E
:100D7000B6010E94D60A882319F06DE471E027C0FD
:100D800026013701E89477F82FEF3FEF4FE75FE751
:100D9000C301B2010E94D60A81110DC02FEF3FEFAF
:100DA0004FE75FE7C301B2010E94200918161CF447
:100DB00061E571E00CC02FEF3FEF4FE75FE4C70143
:100DC000B6010E946F0A1816ACF465E571E0CE0119
:100DD000DF91CF911F910F91FF90EF90DF90CF9017
:100DE000BF90AF909F908F907F906F905F904F904B
:100DF0000C94B4052FEF3FEF4FE75FECC701B6014E
:100E00000E94200987FDE1CF20E030E0A901C70161
:100E1000B6010E94200987FF0AC06DE2CE010E9440
:100E2000CC058C01F7FAF094F7F8F09402C000E0DA
:100E300010E0A12C60E070E080E09FE3AB1441F093
:100E400020E030E040E251E40E942409A394F6CF70
:100E50009B01AC01C701B6010E94BC086B017C017B
:100E60000E9491092B013C010E94BD099B01AC012C
:100E7000C701B6010E94BB086B017C012AE0B301E7
:100E8000A201CE010E94E905080F191FBB2039F00D
:100E90006CE171E0CE010E94B405080F191F7B2C94
:100EA000772041F120E030E040E251E4C701B60193
:100EB0000E94730A6B017C010E948C094B01AA24D9
:100EC00097FCA094BA2C2AE030E0B501A401CE0131
:100ED0000E943806080F191FC501B4010E94BF09FE
:100EE0009B01AC01C701B6010E94BB086B017C01EC
:100EF0007A94D6CFC801DF91CF911F910F91FF90C7
:100F0000EF90DF90CF90BF90AF909F908F907F90A9
:100F10006F905F904F9008950F931F93CF93DF933F
:100F2000EC010E94A1068C01CE010E94D305800F26
:100F3000911FDF91CF911F910F9108950F931F93F0
:100F4000CF93DF93EC010E947702688779878A87C5
:100F50009B87E881F9810084F185E02DCE01099518
:100F600097FF15C00E947702088519852A853B8561
:100F7000601B710B820B930B0C811D812E813F81B5
:100F8000601771078207930720F38FEF9FEFDF91C0
:100F9000CF911F910F910895FF920F931F93CF93BD
:100FA000DF93EC018B01F42ECE010E949E079C0181
:100FB00097FD28C08D32910519F1C0970A9710F15D
:100FC000FF2019F02E323105F9F001301105F9F04A
:100FD0000230110569F42D30310551F034F42950F7
:100FE00031092230310520F012C02032310579F468
:100FF000E881F9810680F781E02DCE010995D4CFF3
:101000008DE203C0C90105C08EE290E002C08FEFFF
:101010009FEFDF91CF911F910F91FF9008956F92F5
:101020007F928F929F92AF92BF92CF92DF92EF9278
:10103000FF920F931F93CF93DF93EC01042F41E0B6
:101040000E94CC07FC0197FD74C0812C912C80E894
:10105000A82E8FE3B82EC12CD12C7601712C612CD7
:10106000112707FD1095E017F10791F1ED32F10519
:1010700051F1EE32F10551F1CF01C0970A9740F5D9
:10108000AAE0B0E0A70196010E94FC0A6B017C0176
:10109000CF01AA2797FDA095BA2FC80ED91EEA1E28
:1010A000FB1E80E3C81AD108E108F108772081F01F
:1010B0002DEC3CEC4CEC5DE3C501B4010E94730ADD
:1010C0004B015C0105C06624639402C077247394CD
:1010D000E881F9810680F781E02DCE010995CE01E6
:1010E0000E949E07FC01C0970A9708F4BCCFEE321D
:1010F000F10519F4772009F4B6CFE017F10709F4E8
:10110000B2CF662041F0F094E094D094C094C11C1A
:10111000D11CE11CF11CC701B601772039F00E94F7
:10112000BF09A50194010E94730A06C00E94BF096D
:1011300003C060E070E0CB01DF91CF911F910F9170
:10114000FF90EF90DF90CF90BF90AF909F908F90E7
:101150007F906F90089508950E94A6020E94AB08A8
:101160000E946701CFECD3E00E948C002097E1F34E
:101170000E94CF03F9CF5058BB27AA270ED075C1C4
:1011800066D130F06BD120F031F49F3F11F41EF4A2
:101190005BC10EF4E095E7FB51C1E92F77D180F3F5
:1011A000BA17620773078407950718F071F49EF564
:1011B0008FC10EF4E0950B2EBA2FA02D0B01B901B3
:1011C00090010C01CA01A0011124FF27591B99F0BD
:1011D000593F50F4503E68F11A16F040A22F232FC9
:1011E000342F4427585FF3CF469537952795A79519
:1011F000F0405395C9F77EF41F16BA0B620B730BC0
:10120000840BBAF09150A1F0FF0FBB1F661F771F30
:10121000881FC2F70EC0BA0F621F731F841F48F4E5
:10122000879577956795B795F7959E3F08F0B3CF6B
:101230009395880F08F09927EE0F97958795089555
:10124000D9D008F481E008950CD00FC107D140F047
:10125000FED030F021F45F3F19F0F0C0511139C1D8
:10126000F3C014D198F39923C9F35523B1F3951B17
:10127000550BBB27AA2762177307840738F09F5FB7
:101280005F4F220F331F441FAA1FA9F333D00E2E26
:101290003AF0E0E830D091505040E695001CCAF793
:1012A00029D0FE2F27D0660F771F881FBB1F261758
:1012B00037074807AB07B0E809F0BB0B802DBF012B
:1012C000FF2793585F4F2AF09E3F510568F0B6C044
:1012D00000C15F3FECF3983EDCF386957795679508
:1012E000B795F7959F5FC9F7880F911D96958795DC
:1012F00097F90895E1E0660F771F881FBB1F6217FB
:1013000073078407BA0720F0621B730B840BBA0BB8
:10131000EE1F88F7E095089504D06894B111D9C004
:101320000895BCD088F09F5790F0B92F9927B751F6
:10133000A0F0D1F0660F771F881F991F1AF0BA9599
:10134000C9F712C0B13081F0C3D0B1E00895C0C078
:10135000672F782F8827B85F39F0B93FCCF386958F
:1013600077956795B395D9F73EF4909580957095EC
:1013700061957F4F8F4F9F4F0895E89409C097FB69
:101380003EF490958095709561957F4F8F4F9F4F5C
:101390009923A9F0F92F96E9BB279395F6958795A0
:1013A00077956795B795F111F8CFFAF4BB0F11F463
:1013B00060FF1BC06F5F7F4F8F4F9F4F16C088230A
:1013C00011F096E911C0772321F09EE8872F762F40
:1013D00005C0662371F096E8862F70E060E02AF081
:1013E0009A95660F771F881FDAF7880F969587956D
:1013F00097F90895990F0008550FAA0BE0E8FEEF42
:1014000016161706E807F907C0F012161306E407C8
:10141000F50798F0621B730B840B950B39F40A26C1
:1014200061F0232B242B252B21F408950A2609F49F
:10143000A140A6958FEF811D811D089597F99F67A3
:1014400080E870E060E008959FEF80EC089500244C
:101450000A941616170618060906089500240A9419
:1014600012161306140605060895092E0394000C9F
:1014700011F4882352F0BB0F40F4BF2B11F460FF2E
:1014800004C06F5F7F4F8F4F9F4F089557FD905857
:10149000440F551F59F05F3F71F04795880F97FB38
:1014A000991F61F09F3F79F08795089512161306F2
:1014B0001406551FF2CF4695F1DF08C01616170621
:1014C0001806991FF1CF8695710561050894089556
:1014D000E894BB2766277727CB0197F908958ADF21
:1014E00008F48FEF08950BD0C0CFB1DF28F0B6DF3E
:1014F00018F0952309F0A2CFA7CF1124EACFC6DFB9
:10150000A0F3959FD1F3950F50E0551F629FF00116
:10151000729FBB27F00DB11D639FAA27F00DB11D6F
:10152000AA1F649F6627B00DA11D661F829F2227F8
:10153000B00DA11D621F739FB00DA11D621F839F7F
:10154000A00D611D221F749F3327A00D611D231F55
:10155000849F600D211D822F762F6A2F11249F57A3
:1015600050408AF0E1F088234AF0EE0FFF1FBB1FC6
:10157000661F771F881F91505040A9F79E3F510565
:1015800070F05CCFA6CF5F3FECF3983EDCF386951E
:1015900077956795B795F795E7959F5FC1F7FE2B10
:1015A000880F911D9695879597F9089523DF880BED
:1015B000990B0895A1E21A2EAA1BBB1BFD010DC0B9
:1015C000AA1FBB1FEE1FFF1FA217B307E407F507F3
:1015D00020F0A21BB30BE40BF50B661F771F881FCF
:1015E000991F1A9469F760957095809590959B0165
:1015F000AC01BD01CF0108950E940D0BA59F900D78
:10160000B49F900DA49F800D911D11240895EE0F9D
:10161000FF1F0590F491E02D0994A29FB001B39FA4
:10162000C001A39F700D811D1124911DB29F700DEB
:0C163000811D1124911D0895F894FFCF36
:10163C0000001A02800000409C463020200031201F
:10164C0020005354415254494E472E2E2E00484FE1
:10165C004C4454494D4520005245574152442000BA
:10166C004445424F554E43452000000000002004E5
:10167C008C05A203BB03AD03FE030D0A006E616E65
:0A168C0000696E66006F76660000CC
:00000001FF
