:100000000C9462000C948A000C948A000C948A0070
:100010000C948A000C948A000C948A000C948A0038
:100020000C948A000C948A000C948A000C948A0028
:100030000C948A000C948A000C948A000C948A0018
:100040000C9415040C948A000C94E3030C94BD03E7
:100050000C948A000C948A000C948A000C948A00F8
:100060000C948A000C948A000000000024002700F1
:100070002A0000000000250028002B0000000000DE
:1000800023002600290004040404040404040202DA
:100090000202020203030303030301020408102007
:1000A0004080010204081020010204081020000012
:1000B0000008000201000003040700000000000027
:1000C0000000210711241FBECFEFD8E0DEBFCDBF57
:1000D00022E0A2E5B1E001C01D92A231B207E1F732
:1000E00011E0A0E0B1E0E0EDF2E102C005900D9278
:1000F000A235B107D9F710E0C2E6D0E004C02197DD
:10010000FE010E945B09C136D107C9F70E945F0456
:100110000C9466090C940000E0917501F091760151
:100120000190F081E02D682F85E791E009942FB7C9
:10013000F8948091710190917201A0917301B09136
:1001400074012FBF80937D0190937E01A0937F0166
:10015000B0938001E0917501F09176010484F585FA
:10016000E02D85E791E0099597FF26C02FB7F89419
:100170008091710190917201A0917301B09174010D
:100180002FBF40917D0150917E0160917F01709160
:100190008001841B950BA60BB70B40917901509100
:1001A0007A0160917B0170917C0184179507A60705
:1001B000B70780F28FEF9FEF0895CF92DF92EF9213
:1001C000FF920F931F93CF93DF936C017A018B0102
:1001D000C0E0D0E0CE15DF0589F0D8016D918D012A
:1001E000D601ED91FC910190F081E02DC6010995B9
:1001F000892B11F47E0102C02196ECCFC701DF915B
:10020000CF911F910F91FF90EF90DF90CF900895C5
:10021000089580E090E00895FC01538D448D252FD2
:1002200030E0842F90E0821B930B541710F0CF9690
:10023000089501970895FC01918D828D981761F0C2
:10024000828DDF01A80FB11D5D968C91928D9F5F0D
:100250009F73928F90E008958FEF9FEF0895FC01B8
:10026000918D828D981731F0828DE80FF11D858D6B
:1002700090E008958FEF9FEF0895FC01918D228DFE
:10028000892F90E0805C9F4F821B91098F73992783
:10029000089585E791E00E943D0121E0892B09F452
:1002A00020E0822F0895FC01848DDF01A80FB11D8D
:1002B000A35ABF4F2C91848D90E001968F7399279C
:1002C000848FA689B7892C93A089B1898C91806489
:1002D0008C93938D848D981306C00288F389E02D4A
:1002E00080818F7D80830895EF92FF920F931F93FB
:1002F000CF93DF93EC0181E0888F9B8D8C8D9813D9
:1003000005C0E889F989808185FD24C0F62E0B8D12
:1003100010E00F5F1F4F0F731127E02E8C8DE81236
:100320000CC00FB607FCFACFE889F989808185FFF8
:10033000F5CFCE010E945301F1CF8B8DFE01E80F66
:10034000F11DE35AFF4FF0820B8FEA89FB89808110
:10035000806207C0EE89FF896083E889F98980811E
:100360008064808381E090E0DF91CF911F910F91B5
:10037000FF90EF900895CF93DF93EC01888D882351
:10038000C9F0EA89FB89808185FD05C0A889B98902
:100390008C9186FD0FC00FB607FCF5CF808185FFDD
:1003A000F2CFA889B9898C9185FFEDCFCE010E944B
:1003B0005301E7CFDF91CF91089580E090E0892B42
:1003C00029F00E94490181110C94000008958330A6
:1003D00081F028F4813099F08230A1F008958730BF
:1003E000A9F08830B9F08430D1F4809180008F7DFD
:1003F00003C0809180008F7780938000089584B53A
:100400008F7702C084B58F7D84BD08958091B00040
:100410008F7703C08091B0008F7D8093B0000895E6
:100420001F93CF93DF93282F30E0F901E255FF4F60
:100430008491F901E656FF4FD491F901EA57FF4F35
:10044000C491CC23C9F0162F81110E94E701EC2F33
:10045000F0E0EE0FFF1FEE58FF4FA591B4918FB75C
:10046000F894111105C09C91ED2FE095E92302C08D
:10047000EC91ED2BEC938FBFDF91CF911F910895FD
:10048000CF93DF9390E0FC01E656FF4F2491FC01EF
:10049000EA57FF4F8491882361F190E0880F991FFC
:1004A000FC01E859FF4FC591D491FC01EE58FF4F74
:1004B000A591B491611109C09FB7F89488812095E6
:1004C00082238883EC912E230BC0623061F49FB7A6
:1004D000F8943881822F809583238883EC912E2B8A
:1004E0002C939FBF06C08FB7F894E8812E2B2883EA
:1004F0008FBFDF91CF9108953FB7F894809153015A
:1005000090915401A0915501B091560126B5A89B38
:1005100005C02F3F19F00196A11DB11D3FBFBA2F95
:10052000A92F982F8827820F911DA11DB11DBC01F5
:10053000CD0142E0660F771F881F991F4A95D1F7BA
:100540000895009769F0FC0101900020E9F73197C8
:10055000AF01481B590BBC0185E791E00C94DD000D
:1005600080E090E008958F929F92AF92BF920F9398
:100570001F93CF93DF93CDB7DEB7A1970FB6F89453
:10058000DEBF0FBECDBF19A2423008F44AE08E0193
:100590000F5D1F4F842E912CA12CB12CA50194012D
:1005A0000E943909E62FB901CA0101501109EA3048
:1005B00014F4E05D01C0E95CD801EC93232B242BFB
:1005C000252B61F7C8010E94A102A1960FB6F894ED
:1005D000DEBF0FBECDBFDF91CF911F910F91BF90B6
:1005E000AF909F908F9008954F925F926F927F92FD
:1005F0008F929F92AF92BF92CF92DF92EF92FF9233
:100600006B017C019B01AC010E943409882319F025
:1006100086E191E01AC046015701E894B7F82FEF40
:100620003FEF4FE75FE7C501B4010E943409811134
:1006300010C02FEF3FEF4FE75FE7C501B4010E9405
:100640004E07181634F48AE191E00E94A1027C0161
:100650007FC02FEF3FEF4FE75FE4C701B6010E9475
:100660002F0918161CF48EE191E0EFCF2FEF3FEF2A
:100670004FE75FECC701B6010E944E0787FDF3CF3D
:1006800020E030E0A901C701B6010E944E0787FFB4
:1006900009C08DE20E948C005C01F7FAF094F7F833
:1006A000F09402C0A12CB12C2AE037ED43EA5BE3C1
:1006B000C701B6010E948D082B013C010E94000970
:1006C0006B017C010E9453079B01AC01C301B20185
:1006D0000E948C082B013C014AE0C701B6010E9430
:1006E000B3027C01EA0CFB1C8EE20E948C00E80E37
:1006F000F91E20E030E040E251E4C301B2010E9463
:10070000B4072B013C010E9400094B01A12CB12C24
:100710004AE0C501B4010E94B302E80EF91EC5010A
:10072000B4010E9453079B01AC01C301B2010E94B6
:100730008C0820E030E040E251E40E94B4070E94BF
:10074000000980E090E04AE00E94B302E80EF91E42
:1007500082E291E00E94A1028E0D9F1DFF90EF901A
:10076000DF90CF90BF90AF909F908F907F906F90D1
:100770005F904F9008950E9461091F920F920FB6EB
:100780000F9211242F933F934F935F936F937F9317
:100790008F939F93AF93BF93EF93FF9385E791E080
:1007A0000E945301FF91EF91BF91AF919F918F9163
:1007B0007F916F915F914F913F912F910F900FBE5D
:1007C0000F901F9018951F920F920FB60F92112441
:1007D0002F938F939F93EF93FF93E0918501F09177
:1007E00086018081E0918B01F0918C0182FD12C025
:1007F000908180918E018F5F8F7320918F0182177E
:1008000051F0E0918E01F0E0EB58FE4F958F809310
:100810008E0101C08081FF91EF919F918F912F9167
:100820000F900FBE0F901F9018951F920F920FB64A
:100830000F9211242F933F938F939F93AF93BF9366
:100840008091710190917201A0917301B091740136
:100850003091520123E0230F2D3720F40196A11D82
:10086000B11D05C026E8230F0296A11DB11D2093DE
:1008700052018093710190937201A0937301B09320
:1008800074018091530190915401A0915501B09150
:1008900056010196A11DB11D8093530190935401FF
:1008A000A0935501B0935601BF91AF919F918F9145
:1008B0003F912F910F900FBE0F901F901895CF93DF
:1008C000DF93CDB7DEB72C970FB6F894DEBF0FBE1F
:1008D000CDBF789484B5826084BD84B5816084BDC9
:1008E00085B5826085BD85B5816085BD80916E00CE
:1008F000816080936E0010928100809181008260FF
:10090000809381008091810081608093810080913B
:1009100080008160809380008091B100846080932A
:10092000B1008091B00081608093B00080917A0026
:10093000846080937A0080917A00826080937A004C
:1009400080917A00816080937A0080917A0080683B
:1009500080937A001092C10060E087E00E9440021C
:1009600061E089E00E94400261E08BE00E94400269
:1009700061E08CE00E94400260E089E00E94100289
:10098000E0918501F091860182E08083E091810110
:10099000F09182011082E0918301F09184018FEC4B
:1009A000808310928D01E0918901F0918A0186E0A7
:1009B0008083E0918701F09188018081806180834C
:1009C000E0918701F0918801808188608083E091C7
:1009D0008701F0918801808180688083E0918701A0
:1009E000F091880180818F7D808385E291E00E9473
:1009F000A10282E291E00E94A10285E791E00E94BB
:100A00001B0100E010E01801220C331C220C331CE7
:100A1000A12CB12C85E791E00E943D011816190622
:100A200094F70E949700FC0197FD17C08D32910545
:100A300009F492C1C0970A9708F48EC1EE32F1050D
:100A400009F48AC1E0917501F09176010284F38581
:100A5000E02D85E791E00995E4CF60E070E0CB01FF
:100A6000F501E20DF31D41E050E04C0F5D1FE40F76
:100A7000F51F60837183828393830F5F1F4F54E060
:100A8000A50EB11C033011052CF249805A806B80F1
:100A90007C804092590150925A0160925B017092A1
:100AA0005C018D809E80AF80B884809269019092B5
:100AB0006A01A0926B01B0926C01C984DA84EB8464
:100AC000FC84C0920001D0920101E0920201F092F8
:100AD000030181E391E00E94A102C301B2010E94DF
:100AE000F4028BE391E00E94A102C501B4010E94CF
:100AF000F40283E491E00E94A102C701B6010E94C2
:100B0000F40205EB10E041EAE42E40E0F42E5DE84B
:100B1000C52E50E0D52EF8018491F701A490F6017E
:100B2000B490BB20A9F081110E94E7018B2D90E0C9
:100B3000880F991F84589F4FFC01A591B4918C9107
:100B4000A82291E080E009F490E0A92EB82E02C01E
:100B5000A12CB12CF1E0AF260E947C0240906D01E7
:100B600050906E0160906F01709070019B01AC011C
:100B7000241935094609570929013A0120E034E2D0
:100B800044E759E46091690170916A0180916B01B9
:100B900090916C010E94B4070E94F90864157505D4
:100BA0008605970540F460E089E00E94100260E04D
:100BB0008CE00E9410028091670190916801A81654
:100BC000B90691F00E947C02609363017093640106
:100BD000809365019093660160935F01709360015B
:100BE00080936101909362010E947C0240906301B6
:100BF0005090640160906501709066019B01AC01AA
:100C0000241935094609570929013A016091000163
:100C10007091010180910201909103010E94F908F5
:100C2000641575058605970508F04DC080915D0136
:100C300090915E01A816B90609F445C0B0925E0114
:100C4000A0925D016A2D8BE00E941002A114B104F4
:100C5000D1F18DE491E00E94A10260915F01709159
:100C6000600180916101909162014AE00E94B302AB
:100C700082E291E00E94A1020E947C0240906D01FC
:100C800050906E0160906F01709070019B01AC01FB
:100C9000241935094609570929013A0120E034E2AF
:100CA00044E759E46091590170915A0180915B01C8
:100CB00090915C010E94B4070E94F90864157505C3
:100CC0008605970538F0B0926801A09267010E94EE
:100CD000DD0121CF61E089E00E94100261E08CE03B
:100CE0000E9410020E947C0260936D0170936E015D
:100CF00080936F019093700140905701509058017C
:100D00003FEF431A530A5092580140925701052C65
:100D1000000C6608770877FE0CC08DE20E948C00FC
:100D200066277727CB0164197509860997094AE078
:100D300003C04AE0C301B2010E94B3028EE491E015
:100D40000E94A1020E947C024AE00E94B30282E259
:100D500091E00E94A102B7CF412C512C80E8682E6F
:100D60008FE3782EC12CD12C7601912C812CE1308F
:100D7000F10579F1ED32F10539F1EE32F10539F194
:100D8000CF01C0970A9728F5AAE0B0E0A701960125
:100D90000E9472086F01FF0FEE08FF08C60ED71EF3
:100DA000E81EF91E20E3C21AD108E108F1089920D3
:100DB00081F02DEC3CEC4CEC5DE3C301B2010E94F0
:100DC000B4072B013C0105C08824839402C09924F8
:100DD0009394E0917501F09176010284F385E02D02
:100DE00085E791E009950E949700FC01C0970A975A
:100DF00008F4BDCFEE32F10519F491101FC0B7CF42
:100E0000E130F10509F4B3CF882041F0F094E0948B
:100E1000D094C094C11CD11CE11CF11C992049F054
:100E2000C701B6010E945507A30192010E94B407B1
:100E300017CEC701B6010E94550712CE8110E6CF2A
:100E4000EFCFE5E7F1E01382128288EE93E0A0E0B5
:100E5000B0E084839583A683B78388E091E0918393
:100E6000808385EC90E09587848784EC90E0978779
:100E7000868780EC90E0918B808B81EC90E0938B67
:100E8000828B82EC90E0958B848B86EC90E0978B44
:100E9000868B118E128E138E148E08950E949007E9
:100EA00008F481E00895E89409C097FB3EF490951A
:100EB0008095709561957F4F8F4F9F4F9923A9F033
:100EC000F92F96E9BB279395F695879577956795C2
:100ED000B795F111F8CFFAF4BB0F11F460FF1BC006
:100EE0006F5F7F4F8F4F9F4F16C0882311F096E999
:100EF00011C0772321F09EE8872F762F05C0662347
:100F000071F096E8862F70E060E02AF09A95660FFF
:100F1000771F881FDAF7880F9695879597F90895B8
:100F2000990F0008550FAA0BE0E8FEEF16161706FA
:100F3000E807F907C0F012161306E407F50798F062
:100F4000621B730B840B950B39F40A2661F0232B7B
:100F5000242B252B21F408950A2609F4A140A695F7
:100F60008FEF811D811D08950E94C7070C943808DA
:100F70000E942A0838F00E94310820F0952311F0D1
:100F80000C9421080C94270811240C946C080E94DE
:100F9000490870F3959FC1F3950F50E0551F629F6C
:100FA000F001729FBB27F00DB11D639FAA27F00DC2
:100FB000B11DAA1F649F6627B00DA11D661F829FE9
:100FC0002227B00DA11D621F739FB00DA11D621FCE
:100FD000839FA00D611D221F749F3327A00D611DEB
:100FE000231F849F600D211D822F762F6A2F1124CD
:100FF0009F5750409AF0F1F088234AF0EE0FFF1F00
:10100000BB1F661F771F881F91505040A9F79E3F56
:10101000510580F00C9421080C946C085F3FE4F3B8
:10102000983ED4F3869577956795B795F795E795AC
:101030009F5FC1F7FE2B880F911D9695879597F9B5
:10104000089597F99F6780E870E060E008959FEF4A
:1010500080EC089500240A9416161706180609064F
:10106000089500240A94121613061406050608951E
:10107000092E0394000C11F4882352F0BB0F40F4A6
:10108000BF2B11F460FF04C06F5F7F4F8F4F9F4FE6
:10109000089557FD9058440F551F59F05F3F71F068
:1010A0004795880F97FB991F61F09F3F79F08795CF
:1010B0000895121613061406551FF2CF4695F1DF58
:1010C00008C0161617061806991FF1CF86957105E8
:1010D000610508940895E894BB2766277727CB011C
:1010E00097F908950E947D08A59F900DB49F900DDB
:1010F000A49F800D911D11240895A29FB001B39F5C
:10110000C001A39F700D811D1124911DB29F700D10
:10111000811D1124911D08955058BB27AA270E94B4
:10112000A4080C9438080E942A0838F00E9431085C
:1011300020F039F49F3F19F426F40C9427080EF49C
:10114000E095E7FB0C942108E92F0E94490858F329
:10115000BA17620773078407950720F079F4A6F59C
:101160000C946B080EF4E0950B2EBA2FA02D0B01FA
:10117000B90190010C01CA01A0011124FF27591BDC
:1011800099F0593F50F4503E68F11A16F040A22FE2
:10119000232F342F4427585FF3CF46953795279553
:1011A000A795F0405395C9F77EF41F16BA0B620B52
:1011B000730B840BBAF09150A1F0FF0FBB1F661F99
:1011C000771F881FC2F70EC0BA0F621F731F841FDC
:1011D00048F4879577956795B795F7959E3F08F002
:1011E000B0CF9395880F08F09927EE0F97958795C4
:1011F00008950E9400096894B1110C946C08089538
:101200000E94510888F09F5798F0B92F9927B7513D
:10121000B0F0E1F0660F771F881F991F1AF0BA959A
:10122000C9F714C0B13091F00E946B08B1E0089585
:101230000C946B08672F782F8827B85F39F0B93F77
:10124000CCF3869577956795B395D9F73EF490954D
:101250008095709561957F4F8F4F9F4F08950E94A5
:10126000900708F48FEF08950E949007880B990B60
:101270000895A1E21A2EAA1BBB1BFD010DC0AA1FD7
:10128000BB1FEE1FFF1FA217B307E407F50720F0EF
:10129000A21BB30BE40BF50B661F771F881F991F6A
:1012A0001A9469F760957095809590959B01AC01B3
:1012B000BD01CF010895EE0FFF1F0590F491E02DC1
:1012C000099481E090E0F8940C946609F894FFCFBB
:1012D00000C0DA45000000007401DD000C01BB0114
:1012E0003D011B012F016E616E00696E66006F7615
:1012F00066000D0A005354415254494E472E2E2E7B
:1013000000484F4C4454494D4520005245574152E6
:101310004420004445424F554E4345200030202094
:021320000000CB
:00000001FF
