:100000000C9462000C948A000C948A000C948A0070
:100010000C948A000C948A000C948A000C948A0038
:100020000C948A000C948A000C948A000C948A0028
:100030000C948A000C948A000C948A000C948A0018
:100040000C94C3030C948A000C9491030C946B03DE
:100050000C948A000C948A000C948A000C948A00F8
:100060000C948A000C948A000000000024002700F1
:100070002A000000000023002600290000000000E4
:10008000250028002B0004040404040404040202D4
:100090000202020203030303030301020408102007
:1000A0004080010204081020010204081020000012
:1000B0000008000201000003040700000000000027
:1000C0000000E60611241FBECFEFD8E0DEBFCDBF93
:1000D00022E0A0E5B1E001C01D92A031B207E1F736
:1000E00011E0A0E0B1E0EAE5F2E102C005900D9276
:1000F000A035B107D9F710E0C2E6D0E004C02197DF
:10010000FE010E942009C136D107C9F70E940D04E3
:100110000C942B090C940000E0917301F091740190
:100120000190F081E02D682F83E791E009942FB7CB
:10013000F89480916F0190917001A0917101B0913C
:1001400072012FBF80937B0190937C01A0937D016E
:10015000B0937E01E0917301F09174010084F18508
:10016000E02D83E791E0099597FF26C02FB7F8941B
:1001700080916F0190917001A0917101B091720115
:100180002FBF40917B0150917C0160917D01709166
:100190007E01841B950BA60BB70B40917701509104
:1001A00078016091790170917A0184179507A6070B
:1001B000B70780F28FEF9FEF0895CF92DF92EF9213
:1001C000FF920F931F93CF93DF936C017A018B0102
:1001D000C0E0D0E0CE15DF0589F0D8016D918D012A
:1001E000D601ED91FC910190F081E02DC6010995B9
:1001F000892B11F47E0102C02196ECCFC701DF915B
:10020000CF911F910F91FF90EF90DF90CF900895C5
:10021000FC01918D828D981761F0828DDF01A80F0E
:10022000B11D5D968C91928D9F5F9F73928F90E030
:1002300008958FEF9FEF0895FC01918D828D98179F
:1002400031F0828DE80FF11D858D90E008958FEFDC
:100250009FEF0895FC01918D228D892F90E0805CA5
:100260009F4F821B91098F739927089583E791E02F
:100270000E942A0121E0892B09F420E0822F0895B1
:10028000FC01848DDF01A80FB11DA35ABF4F2C9133
:10029000848D90E001968F739927848FA689B78902
:1002A0002C93A089B1898C9180648C93938D848DDB
:1002B000981306C00288F389E02D80818F7D8083AA
:1002C0000895EF92FF920F931F93CF93DF93EC016A
:1002D00081E0888F9B8D8C8D981305C0E889F98902
:1002E000808185FD24C0F62E0B8D10E00F5F1F4F1F
:1002F0000F731127E02E8C8DE8120CC00FB607FC8F
:10030000FACFE889F989808185FFF5CFCE010E9477
:100310004001F1CF8B8DFE01E80FF11DE35AFF4F35
:10032000F0820B8FEA89FB898081806207C0EE89A9
:10033000FF896083E889F98980818064808381E016
:1003400090E0DF91CF911F910F91FF90EF90089572
:10035000CF93DF93EC01888D8823C9F0EA89FB896C
:10036000808185FD05C0A889B9898C9186FD0FC063
:100370000FB607FCF5CF808185FFF2CFA889B98938
:100380008C9185FFEDCFCE010E944001E7CFDF9138
:10039000CF91089580E090E0892B29F00E943601EA
:1003A00081110C9400000895833081F028F481308D
:1003B00099F08230A1F008958730A9F08830B9F023
:1003C0008430D1F4809180008F7D03C080918000C3
:1003D0008F7780938000089584B58F7702C084B5AD
:1003E0008F7D84BD08958091B0008F7703C0809188
:1003F000B0008F7D8093B00008951F93CF93DF935B
:10040000E7EBF0E09491E3EAF0E0D491EFE8F0E07C
:10041000C491CC23D9F0182F992319F0892F0E9469
:10042000D401EC2FF0E0EE0FFF1FE458FF4FA59131
:10043000B4918FB7F894111105C09C91ED2FE09500
:10044000E92302C0EC91ED2BEC938FBFDF91CF91AC
:100450001F9108953FB7F8948091510190915201F6
:10046000A0915301B091540126B5A89B05C02F3F20
:1004700019F00196A11DB11D3FBFBA2FA92F982FCA
:100480008827820F911DA11DB11DBC01CD0142E045
:10049000660F771F881F991F4A95D1F70895009717
:1004A00069F0FC0101900020E9F73197AF01481B8A
:1004B000590BBC0183E791E00C94DD0080E090E0F3
:1004C00008958F929F92AF92BF920F931F93CF93F5
:1004D000DF93CDB7DEB7A1970FB6F894DEBF0FBE9E
:1004E000CDBF19A2423008F44AE08E010F5D1F4FC4
:1004F000842E912CA12CB12CA50194010E94FE0800
:10050000E62FB901CA0101501109EA3014F4E05D87
:1005100001C0E95CD801EC93232B242B252B61F738
:10052000C8010E944F02A1960FB6F894DEBF0FBE1D
:10053000CDBFDF91CF911F910F91BF90AF909F9052
:100540008F9008954F925F926F927F928F929F92B9
:10055000AF92BF92CF92DF92EF92FF926B017C013C
:100560009B01AC010E94F908882319F084E191E015
:100570001AC046015701E894B7F82FEF3FEF4FE755
:100580005FE7C501B4010E94F908811110C02FEF87
:100590003FEF4FE75FE7C501B4010E94130718164C
:1005A00034F488E191E00E944F027C017FC02FEF7C
:1005B0003FEF4FE75FE4C701B6010E94F408181649
:1005C0001CF48CE191E0EFCF2FEF3FEF4FE75FECB2
:1005D000C701B6010E94130787FDF3CF20E030E08A
:1005E000A901C701B6010E94130787FF09C08DE268
:1005F0000E948C005C01F7FAF094F7F8F09402C0C6
:10060000A12CB12C2AE037ED43EA5BE3C701B60128
:100610000E9452082B013C010E94C5086B017C011D
:100620000E9418079B01AC01C301B2010E9451084E
:100630002B013C014AE0C701B6010E9461027C0126
:10064000EA0CFB1C8EE20E948C00E80EF91E20E0F2
:1006500030E040E251E4C301B2010E9479072B016E
:100660003C010E94C5084B01A12CB12C4AE0C501F8
:10067000B4010E946102E80EF91EC501B4010E9496
:1006800018079B01AC01C301B2010E94510820E090
:1006900030E040E251E40E9479070E94C50880E002
:1006A00090E04AE00E946102E80EF91E80E291E0CB
:1006B0000E944F028E0D9F1DFF90EF90DF90CF9014
:1006C000BF90AF909F908F907F906F905F904F9072
:1006D00008950E9426091F920F920FB60F921124BF
:1006E0002F933F934F935F936F937F938F939F933A
:1006F000AF93BF93EF93FF9383E791E00E94400194
:10070000FF91EF91BF91AF919F918F917F916F91E9
:100710005F914F913F912F910F900FBE0F901F90BF
:1007200018951F920F920FB60F9211242F938F934B
:100730009F93EF93FF93E0918301F0918401808177
:10074000E0918901F0918A0182FD12C0908180912F
:100750008C018F5F8F7320918D01821751F0E09192
:100760008C01F0E0ED58FE4F958F80938C0101C015
:100770008081FF91EF919F918F912F910F900FBEEC
:100780000F901F9018951F920F920FB60F92112481
:100790002F933F938F939F93AF93BF9380916F015C
:1007A00090917001A0917101B0917201309150014E
:1007B00023E0230F2D3720F40196A11DB11D05C0A4
:1007C00026E8230F0296A11DB11D209350018093AE
:1007D0006F0190937001A0937101B09372018091A9
:1007E000510190915201A0915301B0915401019691
:1007F000A11DB11D8093510190935201A09353010B
:10080000B0935401BF91AF919F918F913F912F91E0
:100810000F900FBE0F901F901895CF93DF93CDB719
:10082000DEB72C970FB6F894DEBF0FBECDBF78941D
:1008300084B5826084BD84B5816084BD85B58260E5
:1008400085BD85B5816085BD80916E008160809396
:100850006E001092810080918100826080938100FF
:10086000809181008160809381008091800081600F
:10087000809380008091B10084608093B10080916A
:10088000B00081608093B00080917A008460809392
:100890007A0080917A00826080937A0080917A0059
:1008A000816080937A0080917A00806880937A00DA
:1008B0001092C100E1EAF0E02491EDE8F0E08491CB
:1008C0008823C9F090E0880F991FFC01E859FF4F79
:1008D000A591B491FC01E458FF4F459154913FB765
:1008E000F8949C91822F809598239C93FA01908193
:1008F000892380833FBFE3EAF0E02491EFE8F0E052
:100900008491882399F090E0880F991FFC01E859A1
:10091000FF4FA591B491FC01E458FF4F859194914C
:100920008FB7F894EC91E22BEC938FBF80E00E949C
:10093000FD01E0918301F091840182E08083E091E8
:100940007F01F09180011082E0918101F09182019C
:100950008FEC808310928B01E0918701F0918801E8
:1009600086E08083E0918501F0918601808180613D
:100970008083E0918501F091860180818860808389
:10098000E0918501F0918601808180688083E0910B
:100990008501F091860180818F7D808383E291E0E3
:1009A0000E944F0280E291E00E944F0283E791E0B3
:1009B0000E94080100E010E01801220C331C220CF8
:1009C000331CA12CB12C83E791E00E942A01181658
:1009D000190694F70E949700FC0197FD17C08D320D
:1009E000910509F47EC1C0970A9708F47AC1EE32E6
:1009F000F10509F476C1E0917301F091740106806C
:100A0000F781E02D83E791E00995E4CF60E070E0A5
:100A1000CB01F501E20DF31D21E030E02C0F3D1F6D
:100A2000E20FF31F60837183828393830F5F1F4FF5
:100A300034E0A30EB11C033011052CF249805A801A
:100A40006B807C804092570150925801609259010E
:100A500070925A018D809E80AF80B8848092670129
:100A600090926801A0926901B0926A01C984DA8407
:100A7000EB84FC84C0920001D0920101E09202015B
:100A8000F09203018FE291E00E944F02C301B20194
:100A90000E94A20289E391E00E944F02C501B401C5
:100AA0000E94A20281E491E00E944F02C701B601B8
:100AB0000E94A20205EB10E0F8018491E1EAF0E067
:100AC000E490EDE8F0E0F490FF20B1F081110E9495
:100AD000D401EF2DF0E0EE0FFF1FCF018E589F4F96
:100AE000FC01A591B4918C91E82291E080E009F499
:100AF00090E0E92EF82E02C0E12CF12C0E942A028F
:100B000080906B0190906C01A0906D01B0906E018F
:100B10009B01AC01281939094A095B0949015A01AD
:100B200020E034E244E759E4609167017091680184
:100B30008091690190916A010E9479070E94BE0824
:100B4000681579058A059B0518F480E00E94FD016F
:100B50008091650190916601E816F90691F00E9476
:100B60002A02609361017093620180936301909304
:100B7000640160935D0170935E0180935F019093C7
:100B800060010E942A028090610190906201A09011
:100B90006301B09064019B01AC01281939094A092D
:100BA0005B0949015A016091000170910101809136
:100BB0000201909103010E94BE08681579058A051B
:100BC0009B0508F04AC080915B0190915C01E8169A
:100BD000F90609F442C0F0925C01E0925B0141E049
:100BE000E416F104D1F58BE491E00E944F0260918C
:100BF0005D0170915E0180915F01909160014AE01A
:100C00000E94610280E291E00E944F020E942A024B
:100C100080906B0190906C01A0906D01B0906E017E
:100C20009B01AC01281939094A095B0949015A019C
:100C300020E034E244E759E4609157017091580193
:100C40008091590190915A010E9479070E94BE0833
:100C5000681579058A059B0538F0F0926601E092E7
:100C600065010E94CA0128CF81E00E94FD010E9417
:100C70002A0260936B0170936C0180936D019093D5
:100C80006E0180905501909056013FEF831A930AB0
:100C90009092560180925501092C000CAA08BB08BD
:100CA000B7FE0CC08DE20E948C0066277727CB012F
:100CB000681979098A099B094AE003C04AE0C5011D
:100CC000B4010E9461028CE491E00E944F020E94F4
:100CD0002A024AE00E94610280E291E00E944F02F3
:100CE000BCCF412C512C80E8682E8FE3782EC12C8C
:100CF000D12C7601912C812CE130F10579F1ED3286
:100D0000F10539F1EE32F10539F1CF01C0970A97BB
:100D100028F5AAE0B0E0A70196010E9437086F010C
:100D2000FF0FEE08FF08C60ED71EE81EF91EF0E3FF
:100D3000CF1AD108E108F108992081F02DEC3CECA4
:100D40004CEC5DE3C301B2010E9479072B013C0129
:100D500005C08824839402C099249394E091730180
:100D6000F09174010680F781E02D83E791E0099509
:100D70000E949700FC01C0970A9708F4BDCFEE329D
:100D8000F10519F491101FC0B7CFE130F10509F456
:100D9000B3CF882041F0F094E094D094C094C11C6B
:100DA000D11CE11CF11C992049F0C701B6010E9439
:100DB0001A07A30192010E9479072BCEC701B60141
:100DC0000E941A0726CE8110E6CFEFCFE3E7F1E0CD
:100DD0001382128288EE93E0A0E0B0E084839583D2
:100DE000A683B78388E091E09183808385EC90E0CF
:100DF0009587848784EC90E09787868780EC90E0E5
:100E0000918B808B81EC90E0938B828B82EC90E0D5
:100E1000958B848B86EC90E0978B868B118E128E4F
:100E2000138E148E08950E94550708F481E00895EA
:100E3000E89409C097FB3EF4909580957095619574
:100E40007F4F8F4F9F4F9923A9F0F92F96E9BB272A
:100E50009395F695879577956795B795F111F8CFA6
:100E6000FAF4BB0F11F460FF1BC06F5F7F4F8F4F11
:100E70009F4F16C0882311F096E911C0772321F007
:100E80009EE8872F762F05C0662371F096E8862F9F
:100E900070E060E02AF09A95660F771F881FDAF7F6
:100EA000880F9695879597F90895990F0008550F23
:100EB000AA0BE0E8FEEF16161706E807F907C0F0E0
:100EC00012161306E407F50798F0621B730B840BE8
:100ED000950B39F40A2661F0232B242B252B21F4C2
:100EE00008950A2609F4A140A6958FEF811D811D62
:100EF00008950E948C070C94FD070E94EF0738F0BC
:100F00000E94F60720F0952311F00C94E6070C944C
:100F1000EC0711240C9431080E940E0870F3959F81
:100F2000C1F3950F50E0551F629FF001729FBB27E0
:100F3000F00DB11D639FAA27F00DB11DAA1F649F7C
:100F40006627B00DA11D661F829F2227B00DA11D2F
:100F5000621F739FB00DA11D621F839FA00D611DB5
:100F6000221F749F3327A00D611D231F849F600DD6
:100F7000211D822F762F6A2F11249F5750409AF0FF
:100F8000F1F088234AF0EE0FFF1FBB1F661F771F8B
:100F9000881F91505040A9F79E3F510580F00C9456
:100FA000E6070C9431085F3FE4F3983ED4F386954E
:100FB00077956795B795F795E7959F5FC1F7FE2BF6
:100FC000880F911D9695879597F9089597F99F67D2
:100FD00080E870E060E008959FEF80EC08950024C1
:100FE0000A941616170618060906089500240A948E
:100FF00012161306140605060895092E0394000C14
:1010000011F4882352F0BB0F40F4BF2B11F460FFA2
:1010100004C06F5F7F4F8F4F9F4F089557FD9058CB
:10102000440F551F59F05F3F71F04795880F97FBAC
:10103000991F61F09F3F79F0879508951216130666
:101040001406551FF2CF4695F1DF08C01616170695
:101050001806991FF1CF86957105610508940895CA
:10106000E894BB2766277727CB0197F908950E945C
:101070004208A59F900DB49F900DA49F800D911DD7
:1010800011240895A29FB001B39FC001A39F700DCA
:10109000811D1124911DB29F700D811D1124911D80
:1010A00008955058BB27AA270E9469080C94FD0791
:1010B0000E94EF0738F00E94F60720F039F49F3FB6
:1010C00019F426F40C94EC070EF4E095E7FB0C946D
:1010D000E607E92F0E940E0858F3BA176207730754
:1010E0008407950720F079F4A6F50C9430080EF4E7
:1010F000E0950B2EBA2FA02D0B01B90190010C0128
:10110000CA01A0011124FF27591B99F0593F50F43F
:10111000503E68F11A16F040A22F232F342F442797
:10112000585FF3CF469537952795A795F04053958F
:10113000C9F77EF41F16BA0B620B730B840BBAF05F
:101140009150A1F0FF0FBB1F661F771F881FC2F7CA
:101150000EC0BA0F621F731F841F48F487957795DE
:101160006795B795F7959E3F08F0B0CF9395880F98
:1011700008F09927EE0F9795879508950E94C50866
:101180006894B1110C94310808950E94160888F0F3
:101190009F5798F0B92F9927B751B0F0E1F0660F3B
:1011A000771F881F991F1AF0BA95C9F714C0B1307C
:1011B00091F00E943008B1E008950C943008672F38
:1011C000782F8827B85F39F0B93FCCF386957795AB
:1011D0006795B395D9F73EF4909580957095619594
:1011E0007F4F8F4F9F4F08950E94550708F48FEF50
:1011F00008950E945507880B990B0895A1E21A2EB5
:10120000AA1BBB1BFD010DC0AA1FBB1FEE1FFF1FAA
:10121000A217B307E407F50720F0A21BB30BE40BFA
:10122000F50B661F771F881F991F1A9469F7609541
:101230007095809590959B01AC01BD01CF010895FB
:10124000EE0FFF1F0590F491E02D099481E090E0EE
:0A125000F8940C942B09F894FFCFDA
:10125A0000C0DA45000000006101DD002A01080132
:10126A001C01A8016E616E00696E66006F766600E9
:10127A000D0A005354415254494E472E2E2E00480F
:10128A004F4C4454494D4520005245574152442041
:10129A00004445424F554E4345200030202000006F
:00000001FF
