:100000000C945D000C9485000C9485000C94850084
:100010000C9485000C9485000C9485000C9485004C
:100020000C9485000C9485000C9485000C9485003C
:100030000C9485000C9485000C9485000C9485002C
:100040000C945B040C9485000C949A020C94CC02E2
:100050000C9485000C9485000C9485000C9485000C
:100060000C9485000C94850000000008000201003B
:100070000003040700000000000000000102040863
:100080001020408001020408102001020408102002
:10009000040404040404040402020202020203032E
:1000A0000303030300000000250028002B000000CC
:1000B0000000240027002A00FC0211241FBECFEFFD
:1000C000D8E0DEBFCDBF11E0A0E0B1E0E4E1FAE0AE
:1000D00002C005900D92AA32B107D9F721E0AAE239
:1000E000B1E001C01D92A43DB207E1F710E0CAEBF8
:1000F000D0E004C02297FE010E940405C83BD1074E
:10010000C9F70E944C040C9408050C94000061E0AF
:1001100089E00E94E60060912C0189E00E941F01A5
:1001200026E040E855E260E070E08EE291E00E9457
:10013000380260E071E08EE291E00E9488038EE276
:1001400091E00C94B10160912A0170912B014AE079
:1001500050E08EE291E00E9433048EE291E00E9432
:1001600055011816190644F48EE291E00E946E01C2
:1001700090932B0180932A010895833081F028F415
:10018000813099F08230A1F008958730A9F088304D
:10019000B9F08430D1F4809180008F7D03C08091CC
:1001A00080008F7780938000089584B58F7702C098
:1001B00084B58F7D84BD08958091B0008F7703C092
:1001C0008091B0008F7D8093B0000895CF93DF932E
:1001D00090E0FC01E458FF4F2491FC01E057FF4FF1
:1001E0008491882349F190E0880F991FFC01E25522
:1001F000FF4FA591B4918C559F4FFC01C591D491AF
:100200009FB7611108C0F8948C91209582238C933C
:10021000888182230AC0623051F4F8948C91322F85
:10022000309583238C938881822B888304C0F89433
:100230008C91822B8C939FBFDF91CF9108950F9368
:100240001F93CF93DF931F92CDB7DEB7282F30E0F7
:10025000F901E859FF4F8491F901E458FF4F1491D7
:10026000F901E057FF4F04910023C9F0882321F0E2
:1002700069830E94BD006981E02FF0E0EE0FFF1F4F
:10028000EC55FF4FA591B4919FB7F8948C916111F3
:1002900003C01095812301C0812B8C939FBF0F90C9
:1002A000DF91CF911F910F910895FC01818D228DD7
:1002B00090E0805C9F4F821B91098F73992708956E
:1002C000FC01918D828D981731F0828DE80FF11D20
:1002D000858D90E008958FEF9FEF0895FC01918D3B
:1002E000828D981761F0828DDF01A80FB11D5D9698
:1002F0008C91928D9F5F9F73928F90E008958FEF06
:100300009FEF089582EF92E0892B49F080E090E022
:10031000892B29F00E94F20281110C9400000895AB
:10032000FC01848DDF01A80FB11DA35ABF4F2C9192
:10033000848D90E001968F739927848FA689B78961
:100340002C93A089B1898C9180648C93938D848D3A
:10035000981306C00288F389E02D80818F7D808309
:100360000895CF93DF93EC01888D8823C9F0EA8943
:10037000FB89808185FD05C0A889B9898C9186FD9E
:100380000FC00FB607FCF5CF808185FFF2CFA8899B
:10039000B9898C9185FFEDCFCE010E949001E7CF06
:1003A000DF91CF910895CF92DF92FF920F931F9329
:1003B000CF93DF931F92CDB7DEB76C0181E0D601FA
:1003C00058968C9358975B969C915B975C968C9112
:1003D0005C97981307C05096ED91FC9151978081DE
:1003E00085FD2EC0F601038D10E00F5F1F4F0F73C8
:1003F0001127F02EF601848DF81211C00FB607FCFC
:10040000F9CFD6015096ED91FC915197808185FFEF
:10041000F1CFC60169830E9490016981EBCF838D82
:10042000E80FF11DE35AFF4F6083D6015B960C93F2
:100430005B975296ED91FC915397808180620CC03E
:10044000D6015696ED91FC91579760835096ED91A9
:10045000FC91519780818064808381E090E00F90CF
:10046000DF91CF911F910F91FF90DF90CF90089572
:10047000BF92CF92DF92EF92FF92CF93DF93EC0186
:100480006A017B01B22EE889F98982E080834115F7
:1004900081EE580761057105A1F060E079E08DE318
:1004A00090E0A70196010E94E00421503109410922
:1004B00051095695479537952795211580E13807BD
:1004C00098F0E889F989108260E874E88EE190E09C
:1004D000A70196010E94E004215031094109510908
:1004E0005695479537952795EC85FD853083EE85A4
:1004F000FF852083188EEC89FD89B082EA89FB890B
:10050000808180618083EA89FB8980818860808323
:10051000EA89FB89808180688083EA89FB89808100
:100520008F7D8083DF91CF91FF90EF90DF90CF9010
:10053000BF9008951F920F920FB60F9211242F9320
:100540008F939F93EF93FF93E0913E01F0913F01D2
:100550008081E0914401F091450182FD12C09081BB
:10056000809147018F5F8F7320914801821751F06E
:10057000E0914701F0E0E25DFE4F958F80934701E7
:1005800001C08081FF91EF919F918F912F910F90EA
:100590000FBE0F901F9018951F920F920FB60F92DB
:1005A00011242F933F934F935F936F937F938F9378
:1005B0009F93AF93BF93EF93FF938EE291E00E94DE
:1005C0009001FF91EF91BF91AF919F918F917F919A
:1005D0006F915F914F913F912F910F900FBE0F90B0
:1005E0001F9018958EE291E00E94550121E0892B21
:1005F00009F420E0822F0895109231011092300109
:1006000088EE93E0A0E0B0E0809332019093330154
:10061000A0933401B09335018DE091E090932F01C8
:1006200080932E0185EC90E090933B0180933A01FA
:1006300084EC90E090933D0180933C0180EC90E04D
:1006400090933F0180933E0181EC90E090934101B3
:100650008093400182EC90E09093430180934201AB
:1006600086EC90E0909345018093440110924701FD
:10067000109248011092490110924A010895CF92B8
:10068000DF92EF92FF920F931F93CF93DF937C0142
:100690006A01EB0100E010E00C151D0571F0699195
:1006A000D701ED91FC910190F081E02DC7010995F2
:1006B000892B19F00F5F1F4FEFCFC801DF91CF914A
:1006C0001F910F91FF90EF90DF90CF9008956115EB
:1006D000710581F0DB010D900020E9F7AD0141507B
:1006E0005109461B570BDC01ED91FC910280F3810F
:1006F000E02D099480E090E00895DC01ED91FC91FB
:100700000190F081E02D099469E171E00C94670398
:100710000F931F93CF93DF93EC010E9467038C012B
:10072000CE010E948403800F911FDF91CF911F9112
:100730000F9108958F929F92AF92BF92DF92EF92A6
:10074000FF920F931F93CF93DF93CDB7DEB7A1979F
:100750000FB6F894DEBF0FBECDBF7C01F42FD52EAF
:10076000CB0119A2223008F42AE08E010F5D1F4F41
:10077000822E912CA12CB12C6F2F7D2DA5019401DF
:100780000E94E004F22FD32ECA01015011096A30F1
:1007900014F4E0E301C0E7E3E60FD801EC93232B68
:1007A000242B252B49F7B801C7010E946703A196A6
:1007B0000FB6F894DEBF0FBECDBFDF91CF911F9172
:1007C0000F91FF90EF90DF90BF90AF909F908F9030
:1007D0000895CF92DF92EF92FF920F931F93CF93E2
:1007E000DF93EC016A017B012115310579F4E88181
:1007F000F9810190F081E02D642FDF91CF911F915D
:100800000F91FF90EF90DF90CF9009942A3031053F
:10081000E9F477FF1AC06DE20E947D038C01442742
:100820005527BA014C195D096E097F092AE0CE01EE
:100830000E949A03800F911FDF91CF911F910F911A
:10084000FF90EF90DF90CF9008952AE0B701A601C6
:10085000CE01DF91CF911F910F91FF90EF90DF902C
:10086000CF900C949A030F931F93CF93DF93EC01D7
:100870009A01AB01662757FD6095762F0E94E90328
:100880008C01CE010E948403800F911FDF91CF91D4
:100890001F910F91089508950E94A5040E944B0492
:1008A0000E948700C2E8D1E00E94A3002097E1F3F4
:1008B0000E948201F9CF1F920F920FB60F9211245E
:1008C0002F933F938F939F93AF93BF938091CC01CE
:1008D0009091CD01A091CE01B091CF013091CB018B
:1008E00023E0230F2D3720F40196A11DB11D05C073
:1008F00026E8230F0296A11DB11D2093CB01809302
:10090000CC019093CD01A093CE01B093CF01809103
:10091000D0019091D101A091D201B091D301019663
:10092000A11DB11D8093D0019093D101A093D2015C
:10093000B093D301BF91AF919F918F913F912F9130
:100940000F900FBE0F901F901895789484B5826019
:1009500084BD84B5816084BD85B5826085BD85B563
:10096000816085BDEEE6F0E0808181608083E1E812
:10097000F0E010828081826080838081816080834A
:10098000E0E8F0E0808181608083E1EBF0E080814D
:1009900084608083E0EBF0E0808181608083EAE71F
:1009A000F0E08081846080838081826080838081A8
:1009B000816080838081806880831092C100089567
:1009C000A1E21A2EAA1BBB1BFD010DC0AA1FBB1F53
:1009D000EE1FFF1FA217B307E407F50720F0A21BC5
:1009E000B30BE40BF50B661F771F881F991F1A9432
:1009F00069F760957095809590959B01AC01BD015C
:100A0000CF010895EE0FFF1F0590F491E02D09949A
:040A1000F894FFCF88
:100A14005354415254494E470000000000D3013F53
:100A24000355016E016001B1010D0A006E616E0093
:0A0A3400696E66006F7666002E0002
:00000001FF
